:0300000002195B87
:0C195B00787FE4F6D8FD7581220219A205
:10005600253032643A253032643A25303264000065
:1000660003050911FF118905C300E000F000F8003F
:100076000000000000004428FF11AA440000000010
:10008600000000000000000000000000000000006A
:10009600000000000000000000000000000000005A
:1000A600000000000000000000000000000000004A
:1000B6000000000000000000008301384482929294
:1000C600740183000000000000007C44FF017D7D78
:1000D6007D017D7D7D7D017D7D7D7D7D01FF000036
:1000E6000000000001000100010001000100010004
:1000F60000000000000000000101000000000000F8
:1001060000000000000000000000000000000000E9
:1001160000000000000000000000000000000000D9
:1001260000000000000000000000000000000000C9
:1001360000000000000000000001010000000000B7
:1001460000010100000000000000000001010101A3
:10015600010101010101010101010101010100008B
:100166000000000000000000000000000000000089
:1001760000000000000000000000003F3F0303F302
:100186001311111111111101F11161810101018187
:100196006111F1010101014141F10101010101C1B9
:1001A600211111111121C1010101014141F1010189
:1001B60001010101010101011111111111D33303D3
:1001C600033F3F00000000000000000000000000A8
:1001D6000000000000000000000000000000000019
:1001E6000000000000000000000000000000000009
:1001F6000000000000000000000000E0E000007FBA
:1002060001010101010100007F000001061806013D
:1002160000007F0000000040407F40400000001FBB
:100226002040404040201F0000000040407F4040EA
:1002360000000000600000000040300C03000000D9
:1002460000E0E000000000000000000000000000E8
:100256000000000000000000000000000000000098
:100266000000000000000000000000000000000088
:100276000000000000000000000000070706060658
:1002860006040404844444448404048444444484A6
:1002960004040484C4040404048444444484040418
:1002A6000404048444444484040404040484444448
:1002B6004484040484444444840404040406060672
:1002C6000607070000000000000000000000000014
:1002D6000000000000000000000000000000000018
:1002E6000000000000000000000000000000000008
:1002F60000000000000000000000000000000000F8
:1003060000000000101814121100000F1010100F3A
:10031600000000101F10000000081012120D00004F
:100326001800000D1212120D00001800001018140B
:100336001211000010181412110000000000000035
:1003460000000000000000000000000000000000A7
:100356000000000000000000000000000000000097
:100366000000000000000000000000000000000087
:100376000000000000000000000000000000000077
:100386000000000000000000000000000000000067
:1003960000000000000000000000008080808080D7
:1003A60080808000000000000000000000000000C7
:1003B6000000000000000000000000000000000037
:1003C6000000000000000000000000000000000027
:1003D6000000000000000000000000000000000017
:1003E6007F030C300C037F00003854545800007C07
:1003F60004047800003C40407C000000000000003F
:1004060000000000000000000000000000000000E6
:100416000000000000000000000000FFAAAAAA28B1
:100426000800FF00000000000000000000000000BF
:1004360000000000000000000000000000000000B6
:1004460000000000000000007F030C300C037F005A
:1004560000264949493200007F020408107F000047
:1004660000FEFE060606060606060606F6F606065C
:100476000606060606060606FEFEFCF0E00000007E
:10048600007F7F6060606060606060606B6B606072
:1004960060606060606060607F7F3F0F0700000003
:1004A600000080F0F88C8C8C8CF8F0800000000046
:0F04B60000003F3F3F3F3F333F3F3F3F000000CD
:10181E00C10AC10D4400280000000044002400004D
:10182E000000C18C44003C00000000C10B420000CF
:10183E000000C109440002000000005A000A0527FA
:10184E00049704170497052705270527049704977F
:0F185E000497052706200620440006000000001E
:101D850043B10153B2FE53B1FD43B20290FE23E0CD
:101D950054FDF043B10443B20443B10843B20853C0
:0C1DA500C9EF53CAEF53C9DF53CADF2255
:10176F0090007EE070047F0180027F0090007EEF8A
:10177F00F0121F7090003C120CEA121E307D327F67
:10178F00B07E0412119C121FB37F647E00121F14CF
:10179F00121FACC20D90004774FFF0A37400F0A3AA
:1017AF007456F0900083E0FFA3E090004ACFF0A3BF
:1017BF00EFF0900071E0FFA3E090004CCFF0A3EFAB
:1017CF00F0900078E0FFA3E090004ECFF0A3EFF091
:1017DF007B017A00792C12052A7B017A00792C90F3
:1017EF0000497420F07D02E4FF121AD690007EE0CB
:1017FF00B4011B9000477410F0A374FFF0A374049E
:0F180F00F0A374A5F07B10E4FD7F211218C8220E
:10143A0020B0030214CF20090BD209121F709000AA
:04144A0002020CEAA4
:10144E00121F70900002E0F8A3E0F9A3E0FAA3E007
:10145E00FBC3EF9BFFEE9AFEED99FDEC98FC90001E
:10146E0040120CEAE47F787E05FDFC900040E0F827
:10147E00A3E0F9A3E0FAA3E0FBC3120CD940099054
:10148E000000E4F0A37402F0E47FC8FEFDFC9000BF
:10149E0040E0F8A3E0F9A3E0FAA3E0FBC3120CD9F5
:1014AE004060E47F787E05FDFC900040E0F8A3A349
:1014BE00A3E0D3120CD9504A900000E4F0A304F03C
:1014CE002230093E900000E07004A3E06401700534
:1014DE0012176F8024900000E07004A3E064027085
:1014EE00187D327FF47E0112119C121FB37F327E63
:1014FE0000121F14121FACC20CE4900000F0A3F0F7
:02150E00C20910
:0115100022B8
:0312840030107AAD
:10128700E4900040F0A3F0A3F0F0900042E0FFC329
:10129700648094845029EF3395E0FE747F2FF582A4
:1012A70074003EF583E0FF3395E0FE900041E02FA8
:1012B700F0900040E03EF0900042E004F080CB90D8
:1012C7000040E0FAA3E0FBD39400EA6480948040F6
:1012D7000C900074120CF600000001801BC3EA6436
:1012E7008094809000745009120CF6FFFFFFFF8076
:0A12F70007120CF600000000C21000
:1013010090007EE07057900074E0FCA3E0FDA3E044
:10131100FEA3E0FFEC4D4E4F6043121F7090003C66
:10132100120CEA7D327F787E0512119C121FB37F69
:10133100327E00121F14121FACE47F1EFEFDFC90D2
:101341000074E0F8A3E0F9A3E0FAA3E0FB120BBC00
:0E135100120F83900074120CF60000000022B0
:101BB10090007EE064017060121F70900024E0F8D4
:101BC100A3E0F9A3E0FAA3E0FBC3EF9BFFEE9AFECB
:101BD100ED99FDEC98FCE47BE87A03F9F8D3120C5B
:101BE100D95035121F70900024120CEA74FFFFFEC9
:101BF100120F83900083E07002A3E0701B900071CC
:101C0100E07002A3E07011900078E07004A3E0643A
:091C1100017005200A02D20D2227
:100D7F00200003020F74200A0BD20A121F7090007A
:100D8F0006120CEA121F70900006E0F8A3E0F9A318
:100D9F00E0FAA3E0FBC3EF9BFFEE9AFEED99FDECAB
:100DAF0098FC900040120CEAE47FC8FEFDFC900016
:100DBF0040E0F8A3E0F9A3E0FAA3E0FBC3120CD9DB
:100DCF00500690000A020F5CE47F907E01FDFC90BC
:100DDF000040E0F8A3E0F9A3E0FAA3E0FBC3120C94
:100DEF00D9500690000C020F5CE47F587E02FDFC88
:100DFF00900040E0F8A3E0F9A3E0FAA3E0FBC312F0
:100E0F000CD9500690000E020F5CE47F207E03FD8C
:100E1F00FC900040E0F8A3E0F9A3E0FAA3E0FBC3E5
:100E2F00120CD95006900010020F5CE47FE87E038D
:100E3F00FDFC900040E0F8A3E0F9A3E0FAA3E0FB8B
:100E4F00C3120CD95006900012020F5CE47FB07EE3
:100E5F0004FDFC900040E0F8A3E0F9A3E0FAA3E062
:100E6F00FBC3120CD95006900014020F5CE47F787C
:100E7F007E05FDFC900040E0F8A3E0F9A3E0FAA3A3
:100E8F00E0FBC3120CD95006900016020F5CE47FF2
:100E9F00087E07FDFC900040E0F8A3E0F9A3E0FA1C
:100EAF00A3E0FBC3120CD95006900018020F5CE4AC
:100EBF007FD07E07FDFC900040E0F8A3E0F9A3E0AF
:100ECF00FAA3E0FBC3120CD9500590001A807EE400
:100EDF007F987E08FDFC900040E0F8A3E0F9A3E0C6
:100EEF00FAA3E0FBC3120CD9500590001C805EE4FE
:100EFF007F607E09FDFC900040E0F8A3E0F9A3E0DD
:100F0F00FAA3E0FBC3120CD9500590001E803EE4FB
:100F1F007F287E0AFDFC900040E0F8A3E0F9A3E0F3
:100F2F00FAA3E0FBC3120CD95005900020801EE4F9
:100F3F007FF07E0AFDFC900040E0F8A3E0F9A3E00B
:100F4F00FAA3E0FBC3120CD9500F900022E0FEA3CE
:100F5F00E0FF7D3212119C8009121F709000061263
:100F6F000CEA021FB3121FACC20A121F70900006C8
:030F7F00120CEA67
:010F8200224C
:101B460090007EE064016062121F7090003CE0F835
:101B5600A3E0F9A3E0FAA3E0FBC3EF9BFFEE9AFE36
:101B6600ED99FDEC98FCE47B307A75F9F8D3120C0C
:101B7600D95037121E30121FAC4387020000121DC7
:101B860085C2B112001E121F8D1216ACE4FF121E82
:101B9600C3E4FF121DDD7D327FB07E0412119C125C
:0B1BA6001F7090003C120CEAD2AF222E
:1015E200121D85C2B112001E121F8D1216ACE4FF2D
:1015F200121EC3E4FF121DDD90004774FFF0A374B6
:1016020000F0A37456F0900083E0FFA3E090004A3C
:10161200CFF0A3EFF0900071E0FFA3E090004CCF79
:10162200F0A3EFF0900078E0FFA3E090004ECFF03F
:10163200A3EFF07B017A00792C12052A7B017A0054
:10164200792C9000497420F07D02E4FF121AD67DB5
:10165200327FB07E0412119C75C124D20C75FF0337
:10166200D2AEC20BD2AF121F70900024120CEA301D
:101672000C0343C11012143A121284121BB1A20DB0
:101682009200120D7F121B46121A64300BE1900079
:10169200477410F0A374FFF0A37404F0A37465F010
:0A16A2007B20E4FDFF1218C880C58C
:03003300021FBAEF
:061FBA005387DFD20B3259
:10003600759850E4F589758BCC758DFFD28E438EFD
:0C00460040900086F0900085F0C20E2271
:08000300200EFDD20E8F9922A0
:101D52009000C8EBF0A3EAF0A3E9F09000C8E0FB22
:101D6200A3E0FAA3E0F9120AF960179000C8A3E40D
:101D720075F001120BA6A9F0FA120AF9FF1200037C
:031D820080D922E3
:03002300021CD4E8
:101CD400C0E0C083C082C0D075D000C006C0073049
:101CE4009904C299C20E309822C298900086E0FFEF
:101CF40004F0EF3395E0FE74872FF58274003EF50F
:101D040083E599F0900086E0540FF0D007D006D018
:081D1400D0D082D083D0E03270
:081FA4008F993099FDC29922CA
:101EFA00EF1FAC0670011E4C600F000000000000CE
:0A1F0A000000000000000080E72244
:101F1400AB07AA06EB1BAE0270011A4E60097FE8FC
:081F24007E03121EFA80ED227B
:0D000E00E4F5C7F5C5F5C675C380F5C4223D
:101EDF0075C78075F50C75C5018FC4EEFF8FC3757F
:0B1EEF00C65A75C6A500AFC202000E67
:101DB100A2AFE433FCC2AF75C78075F50C75C502DF
:101DC1008FC4EEFF8FC3AF058FC275C65A75C6A506
:0B1DD1000012000EAF04EF24FF92AFE1
:011DDC0022E4
:101E5900A2AFE433FDC2AF75C78075F50C75C50334
:101E69008FC4EEFF8FC375C65A75C6A50012000E42
:071E7900AF05EF24FF92AF5B
:011E8000223F
:101F4100AB07AA06121EDFEF6D6005AF03121DB1CC
:011F5100226D
:10082A00253032643A253032643A25303264000089
:10083A0000C0A0E0E0E0E0E0E0E0E0E0E0A0E0000E
:10084A00007F7F3F00000000000000003F7F3F0064
:10085A0000FFFFFE8080808080808080FEFFFF0096
:10086A000003020303030303030303030302010058
:10087A00000080C0E000000000000000000000004E
:10088A0000003F7F7F000000000000000000000021
:10089A000000FEFFFE000000000000000000000053
:1008AA00000000010300000000000000000000003A
:1008BA0000002060E0E0E0E0E0E0E0E0E0A0C0006E
:1008CA00000000808080808080808080BF7F7F00E1
:1008DA0000FEFF7F838383838383838383010000F6
:1008EA0000010203030303030303030303020000DB
:1008FA00002060E0E0E0E0E0E0E0E0E0E0A0C0004E
:10090A000000808080808080808080803F7F7F00A0
:10091A000000038383838383838383837FFFFF00B2
:10092A000002030303030303030303030302010097
:10093A0000E0C08000000000000000008080C000CD
:10094A00007F7FBF8080808080808080BF7F7F0023
:10095A00000001030303030303030303FFFFFE0075
:10096A000000000000000000000000000001030079
:10097A0000C0A060E0E0E0E0E0E0E0E0E0200000AD
:10098A00007F7FBF80808080808080808000000020
:10099A00000001038383838383838383FFFFFE0035
:1009AA00000002030303030303030303030201001A
:1009BA0000C0A0E0E0E0E0E0E0E0E0E0E0200000ED
:1009CA00007F7FBF808080808080808080000000E0
:1009DA0000FFFF7F8383838383838383FFFFFF007B
:1009EA0000010203030303030303030303020300D7
:1009FA00002060E0E0E0E0E0E0E0E0E0E0A0C0004D
:100A0A000000000000000000000000003F7F7F009F
:100A1A00000000000000000000000000FEFFFE00D1
:100A2A0000000000000000000000000000010300B8
:100A3A0000C0A0E0E0E0E0E0E0E0E0E0E0A0E0000C
:100A4A00007F7FBF8080808080808080BF7F3F0062
:100A5A0000FFFF7F8383838383838383FFFFFF00FA
:100A6A000001020303030303030303030302030056
:100A7A0000C0A0E0E0E0E0E0E0E0E0E0E0A0C000EC
:100A8A00007F7FBF8080808080808080BF7F7F00E2
:100A9A00000001038383838383838383FFFFFF0033
:100AAA000000020303030303030303030302010019
:100ABA00000000000000000000000000000000002C
:100ACA000000000000000707070000000000000007
:100ADA00000000000000C0C0C000000000000000CC
:0F0AEA00000000000000010101000000000000FA
:04186D00410097009F
:101EC300900040EFF07006FD7FA6121D29900040A0
:0C1ED300E0B40107E4FD7FA7121D2922E6
:101DDD00900040EFF0700DFD7FC8121D29E4FD7FCE
:101DED00A1121D29900040E0B4010EE4FD7FC01248
:0A1DFD001D29E4FD7FA0121D29221C
:081F9B007F01AE071FEE70FA92
:011FA300221B
:0F1F5200D2B2D2B3121F9BC2B2121F9BC2B322D4
:0A002600C2B2D2B3121F9BD2B22265
:0F1F6100D2B2121F9BD2B3121F9BC2B3021F9B9F
:021E8100AD07AB
:101E8300E4FCC2B3ED30E704D2B28002C2B2121F47
:101E93009BD2B3121F9BC2B3ED25E0FD0CECB4083B
:011EA300E15D
:011EA400221B
:0D1D1C00121D29E4FDFF121D29E4FD7F10BA
:101D2900AB05AA07121F527F78121E81121F61EBA1
:101D390060047F408002E4FF121E81121F61AF021E
:091D4900121E81121F6102002626
:071E0700E0FFA3E0FD04F081
:101E0E00A907ED24B0FFE4FD121D29E954F0C454D6
:101E1E000F4410FFE4FD121D29E9540FFFE4FD02EB
:021E2E001D296C
:101F2C00E4FD7F8D121D29E4FD7F14121D29E4FDB3
:051F3C007FAF021D292A
:0E1F7F00E4FD7F8D121D22E4FD7FAE021D29C0
:101E3000E4F9E924B0FFE4FD121D1CE4900044F035
:101E40007D01E4FF121D29900044E004F0E0C394FA
:081E50008040ED09E9B408DA55
:011E58002267
:0810B10090004BEFF0A3EDF0FD
:1010B900E490004FF090004EE0FFC313FD90005004
:1010C900F0E4A3F0A3F0EFB40809A3E4F0A37406D5
:1010D900F0803190004EE0FF131313541FF5827511
:1010E9008300EF54077E0060047F0180027F00EFD8
:1010F9002582FFEE3583FE7C00120B3F900053EEF4
:10110900F0A3EFF0EB24E090004FF090004BE0FFEC
:10111900A3E0FD121E0EE4900051F0A3F0900053DD
:10112900E0FCA3E0FD900051E0FEA3E0FFC39DEECB
:101139009C505F900050E0FD7C00120B51ED4C700B
:101149000E90004EE06408600690004B121E079056
:10115900004EE0B4203C900051E0FEA3E0FF900077
:101169004FE075F040A42439F582E5F03404F583A5
:10117900E5822FF582E5833EF583E493FF7D011235
:101189001D29900052E004F07093900051E004F0A2
:02119900808B49
:01119B002231
:071EA5009000CBEFF0A9054E
:101EAC007F017E00AD0119ED600C9000CBE0FD7C54
:061EBC0000120B3F80EE56
:011EC20022FD
:0E135F009000A8EFF0A3EDF0A3EAF0A3EBF0EE
:10136D00E49000B0F0A3F09000ADE0B4080690005A
:10137D00B07402F0E49000AEF09000ACE0FF90008D
:10138D00AEE0FEC39F4003021439C3EF9E14FD7FF0
:10139D000A121EA59000AAE0FCA3E0FDCFCDCFCE92
:1013AD00CCCE120B517C007D0A120B519000AFED8B
:1013BD00F09000B1E0703C9000ACE014FF9000AEF6
:1013CD00E0FEC39F502DA3E070239000ADE0FCC361
:1013DD0013FF9000B0E02F8EF0A4FF9000A8E02F37
:1013ED00FFA3E0FD90004EECF07B2080339000B128
:1013FD007401F09000ADE0FEC313FF9000B0E02F3C
:10140D00FF9000AEE0FDEF8DF0A4FF9000A8E02F5F
:10141D00FFA3E0FD9000AFE02430FB90004EEEF016
:0C142D001210B19000AEE004F002138633
:011439002290
:101AD600900044EFF0A3EDF0A3EBF0A3EAF0A3E946
:011AE600F00F
:101AE700E490004AF0900046E0FBA3E0FAA3E0F997
:101AF70090004AE0F582758300120B126040900057
:101B070044E0FFA3E0FD90004AE0FE04F08E8275FA
:101B17008300120B12FB900049E090004EF0121068
:101B2700B1900049E0FFB40809900044E02406F0B2
:0E1B370080B3EFC313FF900044E02FF080A7AF
:011B4500227D
:0B19E7009000BCEFF0A3EDF0A3EBF0CC
:1019F200A3E0FF131313541FFD7C00EF54077E0076
:101A020060047F0180027F00EF2DFFEE3CFE90001C
:101A1200BFE0FD7C00120B3F9000C2EEF0A3EFF09E
:101A2200E49000C0F0A3F09000C2E0FCA3E0FD90BF
:101A320000C0E0FEA3E0FFC39DEE9C50249000BFD7
:101A4200E0FD7C00120B51ED4C70069000BC121EA2
:101A5200079000C1E004F070CE9000C0E004F08076
:011A6200C6BD
:011A63002260
:0B18C800900044EFF0A3EDF0A3EBF064
:1018D300E490004BF0A3F0900047E0FF1313135480
:1018E3001FFEEF540760047F0180027F00EE2F90FC
:1018F3000047F0E490004DF0900047E0FF90004D6A
:10190300E0FEC39F5051900044E0FFA3E0FDEE2DA5
:10191300FD121E0EE490004EF0900046E0FF900092
:101923004EE0C39F5029900048E0FBA3E0FAA3E0F8
:10193300F9A3E475F001120BA685F082F583120B6F
:1019430012FF7D01121D2990004EE004F080CA9021
:07195300004DE004F080A14B
:01195A00226A
:1016AC00C2927FC87E00121F14D292E4FD7FAE124C
:1016BC001D1CE4FD7F40121D29E4FD7F81121D29B4
:1016CC00E4FD7FCF121D29E4FD7FA1121D29E4FD4D
:1016DC007FC8121D29E4FD7FA6121D29E4FD7FA8F9
:1016EC00121D29E4FD7F3F121D29E4FD7FD3121D3D
:1016FC0029E4FDFF121D29E4FD7FD5121D29E4FD0F
:10170C007F80121D29E4FD7FD9121D29E4FD7FF194
:10171C00121D29E4FD7FDA121D29E4FD7F12121D32
:10172C0029E4FD7FDB121D29E4FD7F40121D29E415
:10173C00FD7F20121D29E4FD7F02121D29E4FD7F8F
:10174C008D121D29E4FD7F14121D29E4FD7FA412C6
:10175C001D29E4FD7FA6121D29121E30E4FD7FAF6A
:03176C00021D2932
:080F8300900043EEF0A3EFF033
:100F8B00900071E0FEA3E0FF7C007D3C120B3FAABA
:100F9B0006AB07900083E0FEA3E0FF7C0E7D1012F2
:100FAB000B3FEF2BFFEE3AFE900079E02FFF900006
:100FBB0078E03EFE3395E0FDFC900045120CEA9084
:100FCB000045E0F8A3E0F9A3E0FAA3E0FB900043AF
:100FDB00E0FEA3E0FFEE3395E0FDFCEB2FFFEA3ED6
:100FEB00FEE93DFDE83CFCA3120CEAE4FFFEFDFC30
:100FFB00900045E0F8A3E0F9A3E0FAA3E0FBC312ED
:10100B000CD9500A900045120CF600000000E47F4A
:10101B00807E51FDFC900045E0F8A3E0F9A3E0FAD7
:10102B00A3E0FBC3120CD9400A900045120CF6004A
:10103B00000000E47B107A0EF9F8900045E0FCA369
:10104B00E0FDA3E0FEA3E0FF120C47900083EEF05F
:10105B00A3EFF0E47B107A0EF9F8900045E0FCA3C7
:10106B00E0FDA3E0FEA3E0FF120C47AC00AD01AE28
:10107B0002AF03E47B3CFAF9F8120C47900071EED7
:10108B00F0A3EFF0E47B3CFAF9F8900045E0FCA309
:10109B00E0FDA3E0FEA3E0FF120C47AF0390007846
:0510AB00EAF0A3EFF0E4
:0110B000221D
:101A6400900097E0FF900078E07003A3E06F60615E
:101A740090004774FFF0A37408F0A3742AF0900058
:101A840083E0FFA3E090004ACFF0A3EFF090007151
:101A9400E0FFA3E090004CCFF0A3EFF0900078E0DB
:101AA400FFA3E090004ECFF0A3EFF07B017A007922
:101AB4009812052A7B017A0079989000497420F0E5
:101AC4007D02E4FF121AD6900078E0A3E09000971C
:011AD400F021
:011AD50022EE
:101871004100B5004100B9004100B8004200B60086
:10188100004200BA0000C18F4200B200004100B422
:011891000056
:05119C00900044EDF09D
:1011A100C3940150037401F0900044E0D394634070
:1011B100037463F09000B2E0B50612A3E0B5070D29
:1011C100A3E0FD900044E06D70030212839000B231
:1011D100EEF0A3EFF0900044E09000B4F0AB07AA6A
:1011E10006E4F9F87F407E427D0FFC120C47900027
:1011F10045120CEA900049E4F0A37432F0900049E2
:10120100E0FEA3E0FBAA06E4F9F8900045E0FCA3A8
:10121100E0FDA3E0FEA3E0FF120C479000B6EEF064
:10122100FAA3EFF0FB900044E0FF7E00AD03AC02B7
:10123100120B3F7C007D64120B51A9079000B5E9A8
:10124100F0C3EB999000B9F053890F4389109000D6
:1012510049E0FEA3E0FFE4FCFD7B02FAF9F8120B82
:10126100BCC3E49FFFE49E9000BAF0A3EFF09000AE
:10127100BAE0FCA3E0FDECF58DEDF58BD28ED2AB9F
:02128100D2AFEA
:011283002248
:071FAC00C2B1C28EC2AB22DC
:071FB300D2B1D28ED2AB22A5
:03001B00021C1AAA
:101C1A00C0E0C083C082C0D075D000C004C005C077
:101C2A00079000BA74FFF0A3749CF09000BAE0FC2D
:101C3A00A3E0FDECF58DEDF58B9000B8E004F030F3
:101C4A000F159000B5E0FF9000B8E0C39F401BE479
:101C5A00F0C20FC2B180139000B9E0FF9000B8E063
:101C6A00C39F4006E4F0D20FD2B1D007D005D0040A
:091C7A00D0D0D082D083D0E0323A
:1018920044007F0000000041007300C11042008339
:1018A2000000420071000042007800004400740011
:0E18B20000000041007E0044007A00000000AB
:04001E00758F1022A8
:0300530002151182
:10151100C0E0C0F0C083C082C0D075D000C000C0A0
:1015210001C002C003C004C005C006C00790007E10
:06153100E060030215C793
:10153700121F7090006C120CEA900070E4F090009B
:101547007AE0F8A3E0F9A3E0FAA3E0FB90006CE0EF
:10155700FCA3E0FDA3E0FEA3E0C39BFFEE9AFEED34
:1015670099FDEC98FCE47B0AFAF9F8D3120CD950F0
:101577004F90006CE0FCA3E0FDA3E0FEA3E0FF902A
:10158700007A120CEA90007030CD057401F08003E8
:1015970074FFF0900070E0FF900073E0FE04F0EE3F
:1015A700FD3395E0FC747F2DF58274003CF583EFE5
:1015B700F0900073E0C3648094844004E4F0D21098
:1015C700D007D006D005D004D003D002D001D00078
:0B15D700D0D0D082D083D0F0D0E03222
:0718C0004400C40000000019
:0E1F8D00438E80758CA2758A40D2A9D28C2218
:0F1F70009000C4E0FCA3E0FDA3E0FEA3E0FF228D
:03000B00021C8351
:101C8300C0E0C0F0C083C082C0D075D000C000C027
:101C930004C005C006C007758CA2758A409000C4B5
:101CA300E0FCA3E0FDA3E0FEA3E02401FFE43EFE8D
:101CB300E43DFDE43CFC9000C4120CEAD007D006DE
:101CC300D005D004D000D0D0D082D083D0F0D0E0E3
:011CD30032DE
:101967000215E2E493A3F8E493A34003F68001F29F
:1019770008DFF48029E493A3F85407240CC8C33381
:10198700C4540F4420C8834004F456800146F6DF50
:10199700E4800B010204081020408090181EE47EAA
:1019A700019360BCA3FF543F30E509541FFEE49345
:1019B700A360010ECF54C025E060A840B8E493A30C
:1019C700FAE493A3F8E493A3C8C582C8CAC583CA37
:1019D700F0A3C8C582C8CAC583CADFE9DEE780BEEF
:0118C7000020
:100AF900BB010689828A83E0225002E722BBFE02FB
:090B0900E32289828A83E493222D
:100B1200BB010CE58229F582E5833AF583E0225098
:100B220006E92582F8E622BBFE06E92582F8E222E2
:0D0B3200E58229F582E5833AF583E49322FC
:100B3F00EF8DF0A4A8F0CF8CF0A428CE8DF0A42ECA
:020B4F00FE2284
:100B5100BC000BBE0029EF8DF084FFADF022E4CC88
:100B6100F875F008EF2FFFEE33FEEC33FCEE9DEC51
:100B7100984005FCEE9DFE0FD5F0E9E4CEFD22ED97
:100B8100F8F5F0EE8420D21CFEADF075F008EF2FE1
:100B9100FFED33FD4007985006D5F0F222C398FDD2
:050BA1000FD5F0EA226F
:100BA600A3F8E0C5F025F0F0E58215827002158302
:060BB600E0C838F0E8225F
:100BBC00E88FF0A4CC8BF0A42CFCE98EF0A42CFCD8
:100BCC008AF0EDA42CFCEA8EF0A4CDA8F08BF0A456
:100BDC002DCC3825F0FDE98FF0A42CCD35F0FCEBB5
:100BEC008EF0A4FEA9F0EB8FF0A4CFC5F02ECD397A
:0F0BFC00FEE43CFCEAA42DCE35F0FDE43CFC22E7
:100C0B0075F008758200EF2FFFEE33FECD33CDCCA0
:100C1B0033CCC58233C5829BED9AEC99E582984023
:100C2B000CF582EE9BFEED9AFDEC99FC0FD5F0D600
:100C3B00E4CEFBE4CDFAE4CCF9A88222B800C1B92A
:100C4B000059BA002DEC8BF084CFCECDFCE5F0CB68
:100C5B00F97818EF2FFFEE33FEED33FDEC33FCEBA1
:100C6B0033FB10D703994004EB99FB0FD8E5E4F95C
:100C7B00FA227818EF2FFFEE33FEED33FDEC33FC49
:100C8B00C933C910D7059BE99A4007EC9BFCE99A3D
:100C9B00F90FD8E0E4C9FAE4CCFB2275F010EF2F82
:100CAB00FFEE33FEED33FDCC33CCC833C810D70782
:100CBB009BEC9AE899400AED9BFDEC9AFCE899F8BD
:0E0CCB000FD5F0DAE4CDFBE4CCFAE4C8F92250
:100CD900EB9FF5F0EA9E42F0E99D42F0E89C45F071
:010CE90022E8
:0C0CEA00ECF0A3EDF0A3EEF0A3EFF0227D
:100CF600A8828583F0D083D082120D0D120D0D12BD
:100D06000D0D120D0DE473E493A3C583C5F0C583E1
:100D1600C8C582C8F0A3C583C5F0C583C8C582C847
:010D260022AA
:1004C500E5082447F582E43400F583E00508229029
:1004D5000044300703900047E475F001120D39021E
:1004E5000AF92000E97F2ED2008018EF540F2490DE
:1004F500D43440D4FF30040BEF24BFB41A005003AA
:100505002461FFE50960021509050CE50C7002057B
:100515000B30070E900044E475F001120D39EF021F
:100525000D27021FA47403D2078003E4C207F50850
:10053500900044120D50E4F509F50BF50CE5096042
:10054500077F2012050880F5750AFFC201C200C2A7
:1005550002C203C205C206C2081204D4FF700D30E0
:1005650007057F00120519AF0CAE0B22B4255FC23B
:10057500D5C2041204D4FF24D0B40A00501A75F071
:100585000A780930D50508B6FF0106C6A426F62067
:10059500D5047002D20380D924CFB41A00EF5004D9
:1005A500C2E5D20402071AD20180C6D20080C0D2A9
:1005B5000280BCD2D580BAD20580B47F201205084E
:1005C5002002077401B5090040F11204C5FF1205A8
:1005D50008020542D208D20680951204C5FB120412
:1005E500C5FA1204C5F94A4B700679EB7A077BFF09
:1005F50020022EE509602A7E008E82758300120B8B
:100605001260060EEE650A70F0C2D5EBC0E0EAC0D6
:10061500E0E9C0E0EE120761D0E0F9D0E0FAD0E001
:10062500FB120AF9FF60AAEBC0E0EAC0E0E9C0E00E
:10063500120508D0E02401F9D0E03400FAD0E0FB3F
:10064500E50A0460DCD50AD980877BFF7A07795DE6
:10065500D202809C791080027908C206C2088008FF
:10066500D2D5790A8004790AC2D5E50A047002F563
:100675000AE4FAFDFEFF1204C5FC7B0820011312F3
:1006850004C5FD7B1030000A1204C5FE1204C5FF27
:100695007B20EC3382D592D55013C3E43000069FFE
:1006A500FFE49EFEE42001039DFDE49CFCE4CBF801
:1006B500C201EC700CCFCECDCCE824F8F870F380F5
:1006C50017C3EF33FFEE33FEED33FDEC33FCEB33B5
:1006D500FB994002FB0FD8E9EB300105F8D0E0C4E7
:1006E50048B201C0E00AEC4D4E4F78207B0070C245
:1006F500EAB50A0040BCC0E0120763D0F0D0E020A4
:100705000104C4C0E0C4B201C0F01204F1D0F0D5B8
:10071500F0EB020542120D5905DF5306595805B095
:100725004C05AC42065D4F06654406654905C54363
:08073500066B55064F46064F06
:10073D0045064F47080B5005B42D05B82E05DB2B8C
:10074D0005BC2305D92007F42A057448000005D3FC
:10075D003F3F3F00790AA2D5200314300509B91097
:10076D00020404B9080104A2D52006025001042098
:10077D0002689202B509005034C0E07F20300319A1
:10078D007F30A20272067205500F1207BAC202C262
:10079D0006C205C2087F30800F300503E9C0E012A4
:1007AD000508300503D0E0F9D0E0B509CC300517C8
:1007BD007F30B9100C1205087F583004077F788000
:1007CD0003B908031205083002057F2D0205087FC5
:1007DD00202008F87F2B2006F322920280CF286E6E
:1007ED00756C6C2900D2011204C53001F8C2017874
:1007FD000930D50108F60205742D504349581204ED
:10080D00C52403B405004001E4900806931204F9D1
:0D081D00743A1204F9D20375090402065959
:100D2700BB010689828A83F0225002F722BBFE01AB
:020D3700F322A5
:100D3900F8E0FBA3A3E0F925F0F0E5821582700243
:070D49001583E0FA38F022E7
:090D5000EBF0A3EAF0A3E9F022A4
:100D5900D083D082F8E4937012740193700DA3A329
:100D690093F8740193F5828883E47374029368603D
:060D7900EFA3A3A380DF3D
:00000001FF
