:0300000002182CB7
:0C182C00787FE4F6D8FD75812102187366
:10005600253032643A253032643A25303264000065
:1000660003050911FF118905C300E000F000F8003F
:100076000000000000004428FF11AA440000000010
:10008600000000000000000000000000000000006A
:10009600000000000000000000000000000000005A
:1000A600000000000000000000000000000000004A
:1000B6000000000000000000008301384482929294
:1000C600740183000000000000007C44FF017D7D78
:1000D6007D017D7D7D7D017D7D7D7D7D01FF000036
:1000E6000000000001000100010001000100010004
:1000F60000000000000000000101000000000000F8
:1001060000000000000000000000000000000000E9
:1001160000000000000000000000000000000000D9
:1001260000000000000000000000000000000000C9
:1001360000000000000000000001010000000000B7
:1001460000010100000000000000000001010101A3
:10015600010101010101010101010101010100008B
:100166000000000000000000000000000000000089
:1001760000000000000000000000003F3F0303F302
:100186001311111111111101F11161810101018187
:100196006111F1010101014141F10101010101C1B9
:1001A600211111111121C1010101014141F1010189
:1001B60001010101010101011111111111D33303D3
:1001C600033F3F00000000000000000000000000A8
:1001D6000000000000000000000000000000000019
:1001E6000000000000000000000000000000000009
:1001F6000000000000000000000000E0E000007FBA
:1002060001010101010100007F000001061806013D
:1002160000007F0000000040407F40400000001FBB
:100226002040404040201F0000000040407F4040EA
:1002360000000000600000000040300C03000000D9
:1002460000E0E000000000000000000000000000E8
:100256000000000000000000000000000000000098
:100266000000000000000000000000000000000088
:100276000000000000000000000000070706060658
:1002860006040404844444448404048444444484A6
:1002960004040484C4040404048444444484040418
:1002A6000404048444444484040404040484444448
:1002B6004484040484444444840404040406060672
:1002C6000607070000000000000000000000000014
:1002D6000000000000000000000000000000000018
:1002E6000000000000000000000000000000000008
:1002F60000000000000000000000000000000000F8
:1003060000000000101814121100000F1010100F3A
:10031600000000101F10000000081012120D00004F
:100326001800000D1212120D00001800001018140B
:100336001211000010181412110000000000000035
:1003460000000000000000000000000000000000A7
:100356000000000000000000000000000000000097
:100366000000000000000000000000000000000087
:100376000000000000000000000000000000000077
:100386000000000000000000000000000000000067
:1003960000000000000000000000008080808080D7
:1003A60080808000000000000000000000000000C7
:1003B6000000000000000000000000000000000037
:1003C6000000000000000000000000000000000027
:1003D6000000000000000000000000000000000017
:1003E6007F030C300C037F00003854545800007C07
:1003F60004047800003C40407C000000000000003F
:1004060000000000000000000000000000000000E6
:100416000000000000000000000000FFAAAAAA28B1
:100426000800FF00000000000000000000000000BF
:1004360000000000000000000000000000000000B6
:1004460000000000000000007F030C300C037F005A
:0F04560000264949493200007F020408107F0048
:1016F000C10AC10C4400280000000044002400007E
:101700000000C18B44003C000000004200000000CB
:10171000C109440002000000005A000A052704978E
:1017200004170497052705270527049704970497AE
:0D17300005270620062044000600000000EA
:101DAC0043B10153B2FE53B1FD43B20243B10443FC
:101DBC00B20443B10843B20853C9EF53CAEF53C935
:051DCC00DF53CADF2215
:1018B80090007EE070047F0180027F0090007EEF40
:1018C800F0121EC190003C120C8A121D5B7D327F03
:1018D800B07E0412113C121F007F647E00121E6548
:1018E800121EF9C20C90004774FFF0A37400F0A315
:1018F8007456F0900084E0FFA3E090004ACFF0A374
:10190800EFF0900071E0FFA3E090004CCFF0A3EF60
:10191800F0900078E0FFA3E090004ECFF0A3EFF046
:101928007B017A00792C1204CA7B017A00792C9009
:0C19380000497420F07D02E4FF021A3325
:1013DA0020B00302146F20090BD209121EC190001B
:0413EA0002020C8A65
:1013EE00121EC1900002E0F8A3E0F9A3E0FAA3E018
:1013FE00FBC3EF9BFFEE9AFEED99FDEC98FC90007F
:10140E0040120C8AE47F787E05FDFC900040E0F8E7
:10141E00A3E0F9A3E0FAA3E0FBC3120C7940099014
:10142E000000E4F0A37402F0E47F64FEFDFC900083
:10143E0040E0F8A3E0F9A3E0FAA3E0FBC3120C79B5
:10144E004060E47F787E05FDFC900040E0F8A3A3A9
:10145E00A3E0D3120C79504A900000E4F0A304F0FC
:10146E002230093E900000E07004A3E06401700594
:10147E001218B88024900000E07004A3E06402709B
:10148E00187D327FF47E0112113C121F007F327ED6
:10149E0000121E65121EF9C20BE4900000F0A3F0BC
:0214AE00C20971
:0114B0002219
:03122400300F7A0E
:10122700E4900040F0A3F0A3F0F0900042E0FFC389
:10123700648094855029EF3395E0FE747F2FF58203
:1012470074003EF583E0FF3395E0FE900041E02F08
:10125700F0900040E03EF0900042E004F080CB9038
:101267000040E0FAA3E0FBD39400EA648094804056
:101277000C900074120C9600000001801BC3EA64F6
:101287008094809000745009120C96FFFFFFFF8036
:0A12970007120C9600000000C20FC1
:1012A10090007EE07057900074E0FCA3E0FDA3E0A5
:1012B100FEA3E0FFEC4D4E4F6043121EC190003C77
:1012C100120C8A7D327F787E0512113C121F007F3D
:1012D100327E00121E65121EF9E47F14FEFDFC90A1
:1012E1000074E0F8A3E0F9A3E0FAA3E0FB120B5CC1
:0E12F100120F23900074120C960000000022D1
:101B0E0090007EE064017060121EC1900024E0F827
:101B1E00A3E0F9A3E0FAA3E0FBC3EF9BFFEE9AFE6E
:101B2E00ED99FDEC98FCE47BE87A03F9F8D3120CFE
:101B3E00795035121EC1900024120C8A74FFFFFEDC
:101B4E00120F23900084E07002A3E0701B900071CE
:101B5E00E07002A3E07011900078E07004A3E064DE
:091B6E00017005200A02D20C22CC
:100D1F00200003020F14200A0BD20A121EC19000EA
:100D2F0006120C8A121EC1900006E0F8A3E0F9A388
:100D3F00E0FAA3E0FBC3EF9BFFEE9AFEED99FDEC0B
:100D4F0098FC900040120C8AE47FC8FEFDFC9000D6
:100D5F0040E0F8A3E0F9A3E0FAA3E0FBC3120C799B
:100D6F00500690000A020EFCE47F907E01FDFC907D
:100D7F000040E0F8A3E0F9A3E0FAA3E0FBC3120CF4
:100D8F0079500690000C020EFCE47F587E02FDFCA9
:100D9F00900040E0F8A3E0F9A3E0FAA3E0FBC31250
:100DAF000C79500690000E020EFCE47F207E03FDAE
:100DBF00FC900040E0F8A3E0F9A3E0FAA3E0FBC346
:100DCF00120C795006900010020EFCE47FE87E03AF
:100DDF00FDFC900040E0F8A3E0F9A3E0FAA3E0FBEC
:100DEF00C3120C795006900012020EFCE47FB07E05
:100DFF0004FDFC900040E0F8A3E0F9A3E0FAA3E0C3
:100E0F00FBC3120C795006900014020EFCE47F789D
:100E1F007E05FDFC900040E0F8A3E0F9A3E0FAA303
:100E2F00E0FBC3120C795006900016020EFCE47F13
:100E3F00087E07FDFC900040E0F8A3E0F9A3E0FA7C
:100E4F00A3E0FBC3120C795006900018020EFCE4CD
:100E5F007FD07E07FDFC900040E0F8A3E0F9A3E00F
:100E6F00FAA3E0FBC3120C79500590001A807EE4C0
:100E7F007F987E08FDFC900040E0F8A3E0F9A3E026
:100E8F00FAA3E0FBC3120C79500590001C805EE4BE
:100E9F007F607E09FDFC900040E0F8A3E0F9A3E03D
:100EAF00FAA3E0FBC3120C79500590001E803EE4BC
:100EBF007F287E0AFDFC900040E0F8A3E0F9A3E054
:100ECF00FAA3E0FBC3120C795005900020801EE4BA
:100EDF007FF07E0AFDFC900040E0F8A3E0F9A3E06C
:100EEF00FAA3E0FBC3120C79500F900022E0FEA38F
:100EFF00E0FF7D3212113C8009121EC190000612D4
:100F0F000C8A021F00121EF9C20A121EC19000069F
:030F1F00120C8A27
:010F220022AC
:101AA30090007EE064016062121EC190003CE0F889
:101AB300A3E0F9A3E0FAA3E0FBC3EF9BFFEE9AFEDA
:101AC300ED99FDEC98FCE47B307A75F9F8D3120CB0
:101AD300795037121D5B121EF94387020000121D55
:101AE300ACC2B1121F07120026121582E4FF121EA8
:101AF3002FE4FF121D087D327FB07E0412113C12C9
:0B1B03001EC190003C120C8AD2AF22E1
:10164500121DACC2B1121F07120026121582E4FF4B
:10165500121E2FE4FF121D0890004774FFF0A374BB
:1016650000F0A37456F0900084E0FFA3E090004AD8
:10167500CFF0A3EFF0900071E0FFA3E090004CCF16
:10168500F0A3EFF0900078E0FFA3E090004ECFF0DC
:10169500A3EFF07B017A00792C1204CA7B017A0052
:1016A500792C9000497420F07D02E4FF121A337DF5
:1016B500327FB07E0412113C75C124D20B75FF0335
:1016C500D2AED2AF121EC1900024120C8A300B0389
:1016D50043C1101213DA121224121B0EA20C92002F
:0B16E500120D1F121AA31219C180E29F
:0300330002001EAA
:04001E005387DF32F3
:10003600759850E4F589758BCC758DFFD28E438EFD
:0C00460040900087F0900086F0C20D2270
:08000300200DFDD20D8F9922A2
:101CA9009000D4EBF0A3EAF0A3E9F09000D4E0FBB4
:101CB900A3E0FAA3E0F9120A9960179000D4A3E40B
:101CC90075F001120B46A9F0FA120A99FF120003E6
:031CD90080D9228D
:03002300021C2B91
:101C2B00C0E0C083C082C0D075D000C006C00730F2
:101C3B009904C299C20D309822C298900087E0FF98
:101C4B0004F0EF3395E0FE74882FF58274003EF5B7
:101C5B0083E599F0900087E0540FF0D007D006D0C1
:081C6B00D0D082D083D0E0321A
:081EF1008F993099FDC299227E
:101E4B00EF1FAC0670011E4C600F0000000000007D
:0A1E5B000000000000000080E722F4
:101E6500AB07AA06EB1BAE0270011A4E60097FE8AC
:081E75007E03121E4B80ED22DA
:0D000E00E4F5C7F5C5F5C675C380F5C4223D
:101E130075C78075F50C75C5018FC4EEFF8FC3754B
:0B1E2300C65A75C6A500AFC212000E23
:011E2E002291
:101CDC00A2AFE433FCC2AF75C78075F50C75C502B5
:101CEC008FC4EEFF8FC3AF058FC275C65A75C6A5DC
:0B1CFC000012000EAF04EF24FF92AFB7
:011D070022B9
:101D8400A2AFE433FDC2AF75C78075F50C75C5030A
:101D94008FC4EEFF8FC375C65A75C6A50012000E18
:071DA400AF05EF24FF92AF31
:011DAB002215
:101E9200AB07AA06121E13EF6D6005AF03121CDC1E
:011EA200221D
:1007CA00253032643A253032643A253032640000EA
:1007DA0000C0A0E0E0E0E0E0E0E0E0E0E0A0E0006F
:1007EA00007F7F3F00000000000000003F7F3F00C5
:1007FA0000FFFFFE8080808080808080FEFFFF00F7
:10080A0000030203030303030303030303020100B8
:10081A00000080C0E00000000000000000000000AE
:10082A0000003F7F7F000000000000000000000081
:10083A000000FEFFFE0000000000000000000000B3
:10084A00000000010300000000000000000000009A
:10085A0000002060E0E0E0E0E0E0E0E0E0A0C000CE
:10086A00000000808080808080808080BF7F7F0041
:10087A0000FEFF7F83838383838383838301000056
:10088A00000102030303030303030303030200003B
:10089A00002060E0E0E0E0E0E0E0E0E0E0A0C000AE
:1008AA000000808080808080808080803F7F7F0001
:1008BA000000038383838383838383837FFFFF0013
:1008CA0000020303030303030303030303020100F8
:1008DA0000E0C08000000000000000008080C0002E
:1008EA00007F7FBF8080808080808080BF7F7F0084
:1008FA00000001030303030303030303FFFFFE00D6
:10090A0000000000000000000000000000010300D9
:10091A0000C0A060E0E0E0E0E0E0E0E0E02000000D
:10092A00007F7FBF80808080808080808000000080
:10093A00000001038383838383838383FFFFFE0095
:10094A00000002030303030303030303030201007A
:10095A0000C0A0E0E0E0E0E0E0E0E0E0E02000004D
:10096A00007F7FBF80808080808080808000000040
:10097A0000FFFF7F8383838383838383FFFFFF00DB
:10098A000001020303030303030303030302030037
:10099A00002060E0E0E0E0E0E0E0E0E0E0A0C000AD
:1009AA000000000000000000000000003F7F7F0000
:1009BA00000000000000000000000000FEFFFE0032
:1009CA000000000000000000000000000001030019
:1009DA0000C0A0E0E0E0E0E0E0E0E0E0E0A0E0006D
:1009EA00007F7FBF8080808080808080BF7F3F00C3
:1009FA0000FFFF7F8383838383838383FFFFFF005B
:100A0A0000010203030303030303030303020300B6
:100A1A0000C0A0E0E0E0E0E0E0E0E0E0E0A0C0004C
:100A2A00007F7FBF8080808080808080BF7F7F0042
:100A3A00000001038383838383838383FFFFFF0093
:100A4A000000020303030303030303030302010079
:100A5A00000000000000000000000000000000008C
:100A6A000000000000000707070000000000000067
:100A7A00000000000000C0C0C0000000000000002C
:0F0A8A000000000000000101010000000000005A
:04173D0041009800CF
:101E2F00900040EFF07006FD7FA6121C80900040DE
:0C1E3F00E0B40107E4FD7FA7121C802224
:101D0800900040EFF0700DFD7FC8121C80E4FD7F4D
:101D1800A1121C80900040E0B4010EE4FD7FC012C7
:0A1D28001C80E4FD7FA0121C802245
:081EE8007F01AE071FEE70FA46
:011EF00022CF
:0F1EA300D2B2D2B3121EE8C2B2121EE8C2B322EC
:0A1EDE00C2B2D2B3121EE8D2B22243
:0F1EB200D2B2121EE8D2B3121EE8C2B3021EE86B
:021DD100AD075C
:101DD300E4FCC2B3ED30E704D2B28002C2B2121EF9
:101DE300E8D2B3121EE8C2B3ED25E0FD0CECB40853
:011DF300E10E
:011DF40022CC
:0D1C7300121C80E4FDFF121C80E4FD7F10B8
:101C8000AB05AA07121EA37F78121DD1121EB2EB5C
:101C900060047F408002E4FF121DD1121EB2AF0229
:091CA000121DD1121EB2021EDE5B
:071D3200E0FFA3E0FD04F057
:101D3900A907ED24B0FFE4FD121C80E954F0C45456
:101D49000F4410FFE4FD121C80E9540FFFE4FD026B
:021D59001C80EC
:101E7D00E4FD7F8D121C80E4FD7F14121C80E4FDB7
:051E8D007FAF021C8084
:0E1ED000E4FD7F8D121C79E4FD7FAE021C80C4
:101D5B00E4F9E924B0FFE4FD121C73E4900044F0B5
:101D6B007D01E4FF121C80900044E004F0E0C3947A
:081D7B008040ED09E9B408DA2B
:011D8300223D
:0810510090004BEFF0A3EDF05D
:10105900E490004FF090004EE0FFC313FD90005064
:10106900F0E4A3F0A3F0EFB40809A3E4F0A3740635
:10107900F0803190004EE0FF131313541FF5827571
:101089008300EF54077E0060047F0180027F00EF38
:101099002582FFEE3583FE7C00120ADF900053EEB5
:1010A900F0A3EFF0EB24E090004FF090004BE0FF4D
:1010B900A3E0FD121D39E4900051F0A3F090005314
:1010C900E0FCA3E0FD900051E0FEA3E0FFC39DEE2C
:1010D9009C505F900050E0FD7C00120AF1ED4C70CD
:1010E9000E90004EE06408600690004B121D32908D
:1010F900004EE0B4203C900051E0FEA3E0FF9000D8
:101109004FE075F040A424D9F582E5F03403F58366
:10111900E5822FF582E5833EF583E493FF7D011295
:101129001C80900052E004F07093900051E004F0AC
:02113900808BA9
:01113B002291
:071DF5009000D7EFF0A905F3
:101DFC007F017E00AD0119ED600C9000D7E0FD7CF9
:061E0C0000120ADF80EE67
:011E120022AD
:0E12FF009000B4EFF0A3EDF0A3EAF0A3EBF043
:10130D00E49000BCF0A3F09000B9E0B408069000A2
:10131D00BC7402F0E49000BAF09000B8E0FF9000C9
:10132D00BAE0FEC39F40030213D9C3EF9E14FD7FA5
:10133D000A121DF59000B6E0FCA3E0FDCFCDCFCE97
:10134D00CCCE120AF17C007D0A120AF19000BBEDA1
:10135D00F09000BDE0703C9000B8E014FF9000BA32
:10136D00E0FEC39F502DA3E070239000B9E0FCC3B5
:10137D0013FF9000BCE02F8EF0A4FF9000B4E02F7F
:10138D00FFA3E0FD90004EECF07B2080339000BD7C
:10139D007401F09000B9E0FEC313FF9000BCE02F84
:1013AD00FF9000BAE0FDEF8DF0A4FF9000B4E02FA8
:1013BD00FFA3E0FD9000BBE02430FB90004EEEF06B
:0C13CD001210519000BAE004F002132648
:0113D90022F1
:101A3300900044EFF0A3EDF0A3EBF0A3EAF0A3E9E9
:011A4300F0B2
:101A4400E490004AF0900046E0FBA3E0FAA3E0F93A
:101A540090004AE0F582758300120AB2604090005B
:101A640044E0FFA3E0FD90004AE0FE04F08E82759E
:101A74008300120AB2FB900049E090004EF012106D
:101A840051900049E0FFB40809900044E02406F0B6
:0E1A940080B3EFC313FF900044E02FF080A753
:011AA2002221
:0B1944009000C8EFF0A3EDF0A3EBF063
:10194F00A3E0FF131313541FFD7C00EF54077E0019
:10195F0060047F0180027F00EF2DFFEE3CFE9000C0
:10196F00CBE0FD7C00120ADF9000CEEEF0A3EFF08B
:10197F00E49000CCF0A3F09000CEE0FCA3E0FD904B
:10198F0000CCE0FEA3E0FFC39DEE9C50249000CB63
:10199F00E0FD7C00120AF1ED4C70069000C8121D9C
:1019AF00329000CDE004F070CE9000CCE004F080D7
:0119BF00C661
:0119C0002204
:0B1799009000A9EFF0A3EDF0A3EBF02F
:1017A400E49000B0F0A3F09000ACE0FF13131354E6
:1017B4001FFEEF540760047F0180027F00EE2F902C
:1017C40000ACF0E49000B2F09000ACE0FF9000B206
:1017D400E0FEC39F50519000A9E0FFA3E0FDEE2D71
:1017E400FD121D39E49000B3F09000ABE0FF9000CF
:1017F400B3E0C39F50299000ADE0FBA3E0FAA3E05F
:10180400F9A3E475F001120B4685F082F583120A00
:10181400B2FF7D01121C809000B3E004F080CA90F6
:0718240000B2E004F080A116
:01182B00229A
:10158200C2927FC87E00121E65D292E4FD7FAE1227
:101592001C73E4FD7F40121C80E4FD7F81121C80DD
:1015A200E4FD7FCF121C80E4FD7FA1121C80E4FDCC
:1015B2007FC8121C80E4FD7FA6121C80E4FD7FA878
:1015C200121C80E4FD7F3F121C80E4FD7FD3121CBD
:1015D20080E4FDFF121C80E4FD7FD5121C80E4FD37
:1015E2007F80121C80E4FD7FD9121C80E4FD7FF114
:1015F200121C80E4FD7FDA121C80E4FD7F12121CB3
:1016020080E4FD7FDB121C80E4FD7F40121C80E43D
:10161200FD7F20121C80E4FD7F02121C80E4FD7F0E
:101622008D121C80E4FD7F14121C80E4FD7FA41245
:101632001C80E4FD7FA6121C80121D5BE4FD7FAFBF
:03164200021C8007
:080F2300900043EEF0A3EFF093
:100F2B00900071E0FEA3E0FF7C007D3C120ADFAA7B
:100F3B0006AB07900084E0FEA3E0FF7C0E7D101251
:100F4B000ADFEF2BFFEE3AFE900079E02FFF9000C7
:100F5B0078E03EFE3395E0FDFC900045120C8A9044
:100F6B000045E0F8A3E0F9A3E0FAA3E0FB9000430F
:100F7B00E0FEA3E0FFEE3395E0FDFCEB2FFFEA3E36
:100F8B00FEE93DFDE83CFCA3120C8AE4FFFEFDFCF0
:100F9B00900045E0F8A3E0F9A3E0FAA3E0FBC3124D
:100FAB000C79500A900045120C9600000000E47F6B
:100FBB00807E51FDFC900045E0F8A3E0F9A3E0FA38
:100FCB00A3E0FBC3120C79400A900045120C96006B
:100FDB00000000E47B107A0EF9F8900045E0FCA3CA
:100FEB00E0FDA3E0FEA3E0FF120BE7900084EEF020
:100FFB00A3EFF0E47B107A0EF9F8900045E0FCA328
:10100B00E0FDA3E0FEA3E0FF120BE7AC00AD01AEE9
:10101B0002AF03E47B3CFAF9F8120BE7900071EE98
:10102B00F0A3EFF0E47B3CFAF9F8900045E0FCA369
:10103B00E0FDA3E0FEA3E0FF120BE7AF0390007807
:05104B00EAF0A3EFF044
:01105000227D
:1019C100900098E0FF900078E07003A3E06F606101
:1019D10090004774FFF0A37407F0A374CAF090005D
:1019E10084E0FFA3E090004ACFF0A3EFF0900071F4
:1019F100E0FFA3E090004CCFF0A3EFF0900078E07F
:101A0100FFA3E090004ECFF0A3EFF07B017A0079C5
:101A1100991204CA7B017A0079999000497420F0E7
:101A21007D02E4FF121A33900078E0A3E090009861
:011A3100F0C4
:011A32002291
:101741004100C1004100C5004100C4004200C20087
:10175100004200C60000C18E4200BE00004100C030
:011761000087
:05113C00900044EDF0FD
:10114100C3940150037401F0900044E0D3946340D0
:10115100037463F09000BEE0B50612A3E0B5070D7D
:10116100A3E0FD900044E06D70030212239000BEE5
:10117100EEF0A3EFF0900044E09000C0F0AB07AABE
:1011810006E4F9F87F407E427D0FFC120BE79000E8
:1011910045120C8A900049E4F0A37432F0900049A2
:1011A100E0FEA3E0FBAA06E4F9F8900045E0FCA309
:1011B100E0FDA3E0FEA3E0FF120BE79000C2EEF01A
:1011C100FAA3EFF0FB900044E0FF7E00AD03AC0218
:1011D100120ADF7C007D64120AF1A9079000C1E9BF
:1011E100F0C3EB999000C5F053890F43891090002B
:1011F10049E0FEA3E0FFE4FCFD7B02FAF9F8120BE3
:101201005CC3E49FFFE49E9000C6F0A3EFF0900062
:10121100C6E0FCA3E0FDECF58DEDF58BD28ED2ABF3
:02122100D2AF4A
:0112230022A8
:071EF900C2B1C28EC2AB2290
:071F0000D2B1D28ED2AB2258
:03001B00021B774E
:101B7700C0E0C083C082C0D075D000C004C005C01B
:101B8700079000C674FFF0A3749CF09000C6E0FCB9
:101B9700A3E0FDECF58DEDF58B9000C4E004F0308B
:101BA7000E159000C1E0FF9000C4E0C39F401BE406
:101BB700F0C20EC2B180139000C5E0FF9000C4E0F0
:101BC700C39F4006E4F0D20ED2B1D007D005D004AF
:091BD700D0D0D082D083D0E032DE
:1017620045007F000000000041007300C10F4200ED
:1017720084000042007100004200780000440074BE
:0F1782000000000041007E0044007A00000000DB
:041F0700758F1022A0
:030053000214B1E3
:1014B100C0E0C0F0C083C082C0D075D000C000C001
:1014C10001C002C003C004C005C006C00790007E71
:0614D100E0600302156754
:1014D700121EC190006C120C8A900070E4F090000C
:1014E7007AE0F8A3E0F9A3E0FAA3E0FB90006CE050
:1014F700FCA3E0FDA3E0FEA3E0C39BFFEE9AFEED95
:1015070099FDEC98FCE47B0AFAF9F8D3120C7950B0
:101517004F90006CE0FCA3E0FDA3E0FEA3E0FF908A
:10152700007A120C8A90007030CD057401F08003A8
:1015370074FFF0900070E0FF900073E0FE04F0EE9F
:10154700FD3395E0FC747F2DF58274003CF583EF45
:10155700F0900073E0C3648094854004E4F0D20FF8
:10156700D007D006D005D004D003D002D001D000D8
:0B157700D0D0D082D083D0F0D0E03282
:071791004400D0000000003D
:0B002600758CF8758A30D2A9D28C22AC
:0F1EC1009000D0E0FCA3E0FDA3E0FEA3E0FF2231
:03000B00021BE0F5
:101BE000C0E0C0F0C083C082C0D075D000C000C0CB
:101BF00004C005C006C0079000D0E0FCA3E0FDA330
:101C0000E0FEA3E02401FFE43EFEE43DFDE43CFCF5
:101C10009000D0120C8AD007D006D005D004D00096
:0B1C2000D0D0D082D083D0F0D0E032D2
:10183800021645E493A3F8E493A34003F68001F26B
:1018480008DFF48029E493A3F85407240CC8C333B1
:10185800C4540F4420C8834004F456800146F6DF80
:10186800E4800B01020408102040809016F0E47E0A
:10187800019360BCA3FF543F30E509541FFEE49375
:10188800A360010ECF54C025E060A840B8E493A33C
:10189800FAE493A3F8E493A3C8C582C8CAC583CA67
:1018A800F0A3C8C582C8CAC583CADFE9DEE780BE1F
:011798000050
:100A9900BB010689828A83E0225002E722BBFE025B
:090AA900E32289828A83E493228E
:100AB200BB010CE58229F582E5833AF583E02250F9
:100AC20006E92582F8E622BBFE06E92582F8E22243
:0D0AD200E58229F582E5833AF583E493225D
:100ADF00EF8DF0A4A8F0CF8CF0A428CE8DF0A42E2B
:020AEF00FE22E5
:100AF100BC000BBE0029EF8DF084FFADF022E4CCE9
:100B0100F875F008EF2FFFEE33FEEC33FCEE9DECB1
:100B1100984005FCEE9DFE0FD5F0E9E4CEFD22EDF7
:100B2100F8F5F0EE8420D21CFEADF075F008EF2F41
:100B3100FFED33FD4007985006D5F0F222C398FD32
:050B41000FD5F0EA22CF
:100B4600A3F8E0C5F025F0F0E58215827002158362
:060B5600E0C838F0E822BF
:100B5C00E88FF0A4CC8BF0A42CFCE98EF0A42CFC38
:100B6C008AF0EDA42CFCEA8EF0A4CDA8F08BF0A4B6
:100B7C002DCC3825F0FDE98FF0A42CCD35F0FCEB15
:100B8C008EF0A4FEA9F0EB8FF0A4CFC5F02ECD39DA
:0F0B9C00FEE43CFCEAA42DCE35F0FDE43CFC2247
:100BAB0075F008758200EF2FFFEE33FECD33CDCC01
:100BBB0033CCC58233C5829BED9AEC99E582984084
:100BCB000CF582EE9BFEED9AFDEC99FC0FD5F0D661
:100BDB00E4CEFBE4CDFAE4CCF9A88222B800C1B98B
:100BEB000059BA002DEC8BF084CFCECDFCE5F0CBC9
:100BFB00F97818EF2FFFEE33FEED33FDEC33FCEB02
:100C0B0033FB10D703994004EB99FB0FD8E5E4F9BC
:100C1B00FA227818EF2FFFEE33FEED33FDEC33FCA9
:100C2B00C933C910D7059BE99A4007EC9BFCE99A9D
:100C3B00F90FD8E0E4C9FAE4CCFB2275F010EF2FE2
:100C4B00FFEE33FEED33FDCC33CCC833C810D707E2
:100C5B009BEC9AE899400AED9BFDEC9AFCE899F81D
:0E0C6B000FD5F0DAE4CDFBE4CCFAE4C8F922B0
:100C7900EB9FF5F0EA9E42F0E99D42F0E89C45F0D1
:010C89002248
:0C0C8A00ECF0A3EDF0A3EEF0A3EFF022DD
:100C9600A8828583F0D083D082120CAD120CAD12DF
:100CA6000CAD120CADE473E493A3C583C5F0C58304
:100CB600C8C582C8F0A3C583C5F0C583C8C582C8A8
:010CC600220B
:10046500E5082447F582E43400F583E00508229089
:100475000044300703900047E475F001120CD902DF
:100485000A992000E97F2ED2008018EF540F24909E
:10049500D43440D4FF30040BEF24BFB41A0050030A
:1004A5002461FFE50960021509050CE50C700205DC
:1004B5000B30070E900044E475F001120CD9EF02E1
:1004C5000CC7021EF17403D2078003E4C207F508C6
:1004D500900044120CF0E4F509F50BF50CE5096004
:1004E500077F201204A880F5750AFFC201C200C269
:1004F50002C203C205C206C208120474FF700D30A1
:1005050007057F001204B9AF0CAE0B22B4255FC2FC
:10051500D5C204120474FF24D0B40A00501A75F031
:100525000A780930D50508B6FF0106C6A426F620C7
:10053500D5047002D20380D924CFB41A00EF500439
:10054500C2E5D2040206BAD20180C6D20080C0D26A
:100555000280BCD2D580BAD20580B47F201204A80F
:100565002002077401B5090040F1120465FF120469
:10057500A80204E2D208D2068095120465FB120493
:1005850065FA120465F94A4B7006798B7A077BFF89
:1005950020022EE509602A7E008E82758300120AEC
:1005A500B260060EEE650A70F0C2D5EBC0E0EAC097
:1005B500E0E9C0E0EE120701D0E0F9D0E0FAD0E0C2
:1005C500FB120A99FF60AAEBC0E0EAC0E0E9C0E0CF
:1005D5001204A8D0E02401F9D0E03400FAD0E0FB01
:1005E500E50A0460DCD50AD980877BFF7A0679FDA8
:1005F500D202809C791080027908C206C208800860
:10060500D2D5790A8004790AC2D5E50A047002F5C3
:100615000AE4FAFDFEFF120465FC7B0820011312B3
:100625000465FD7B1030000A120465FE120465FFA7
:100635007B20EC3382D592D55013C3E43000069F5E
:10064500FFE49EFEE42001039DFDE49CFCE4CBF861
:10065500C201EC700CCFCECDCCE824F8F870F38055
:1006650017C3EF33FFEE33FEED33FDEC33FCEB3315
:10067500FB994002FB0FD8E9EB300105F8D0E0C447
:1006850048B201C0E00AEC4D4E4F78207B0070C2A5
:10069500EAB50A0040BCC0E0120703D0F0D0E02064
:1006A5000104C4C0E0C4B201C0F0120491D0F0D579
:1006B500F0EB0204E2120CF9057F5305F9580550D9
:1006C5004C054C4205FD4F060544060549056543A5
:0806D500060B5505EF4605EF89
:1006DD004505EF4707AB5005542D05582E057B2BCF
:1006ED00055C2305792007942A051448000005733D
:1006FD003F3F3F00790AA2D5200314300509B910F8
:10070D00020404B9080104A2D520060250010420F8
:10071D0002689202B509005034C0E07F2030031901
:10072D007F30A20272067205500F12075AC202C222
:10073D0006C205C2087F30800F300503E9C0E01204
:10074D0004A8300503D0E0F9D0E0B509CC30051789
:10075D007F30B9100C1204A87F583004077F7880C1
:10076D0003B908031204A83002057F2D0204A87FE7
:10077D00202008F87F2B2006F322920280CF286ECE
:10078D00756C6C2900D2011204653001F8C2017834
:10079D000930D50108F60205142D504349581204AD
:1007AD00652403B405004001E49007A69312049953
:0D07BD00743A120499D2037509040205F97B
:100CC700BB010689828A83F0225002F722BBFE010C
:020CD700F32206
:100CD900F8E0FBA3A3E0F925F0F0E58215827002A4
:070CE9001583E0FA38F02248
:090CF000EBF0A3EAF0A3E9F02205
:100CF900D083D082F8E4937012740193700DA3A38A
:100D090093F8740193F5828883E47374029368609D
:060D1900EFA3A3A380DF9D
:00000001FF
