:0300000002169055
:0C169000787FE4F6D8FD7581210216D7A2
:100056000003050911FF118905C300E000F000F84F
:10006600000000000000004428FF11AA4400000020
:10007600000000000000000000000000000000007A
:10008600000000000000000000000000000000006A
:10009600000000000000000000000000000000005A
:1000A6000000000000000000000083013844829236
:1000B60092740183000000000000007C44FF017D73
:1000C6007D7D017D7D7D7D017D7D7D7D7D01FF00C9
:1000D6000000000000010001000100010001000114
:1000E6000000000000000000000101000000000008
:1000F60000000000000000000000000000000000FA
:1001060000000000000000000000000000000000E9
:1001160000000000000000000000000000000000D9
:1001260000000000000000000000010100000000C7
:1001360000000101000000000000000000010101B4
:10014600010101010101010101010101010101009A
:100156000000000000000000000000000000000099
:100166000000000000000000000000003F3F030305
:10017600F31311111111111101F111618101010125
:10018600816111F1010101014141F1010101010109
:10019600C1211111111121C1010101014141F101D9
:1001A6000101010101010101011111111111D333E5
:1001B60003033F3F000000000000000000000000B5
:1001C6000000000000000000000000000000000029
:1001D6000000000000000000000000000000000019
:1001E600000000000000000000000000E0E0000049
:1001F6007F01010101010100007F000001061806D0
:100206000100007F0000000040407F4040000000E9
:100216001F2040404040201F0000000040407F401B
:100226004000000000600000000040300C030000A9
:100236000000E0E0000000000000000000000000F8
:1002460000000000000000000000000000000000A8
:100256000000000000000000000000000000000098
:10026600000000000000000000000000070706066E
:100276000606040404844444448404048444444434
:100286008404040484C404040404844444448404A8
:100296000404040484444444840404040404844498
:1002A6004444840404844444448404040404060644
:1002B600060607070000000000000000000000001E
:1002C6000000000000000000000000000000000028
:1002D6000000000000000000000000000000000018
:1002E6000000000000000000000000000000000008
:1002F6000000000000101814121100000F1010105A
:100306000F000000101F10000000081012120D0050
:10031600001800000D1212120D000018000010182F
:100326001412110000101814121100000000000031
:1003360000000000000000000000000000000000B7
:1003460000000000000000000000000000000000A7
:100356000000000000000000000000000000000097
:100366000000000000000000000000000000000087
:100376000000000000000000000000000000000077
:100386000000000000000000000000008080808067
:100396008080808000000000000000000000000057
:1003A6000000000000000000000000000000000047
:1003B6000000000000000000000000000000000037
:1003C6000000000000000000000000000000000027
:1003D600007F030C300C037F000038545458000093
:1003E6007C04047800003C40407C000000000000D3
:1003F60000000000000000000000000000000000F7
:10040600000000000000000000000000FFAAAAAAE9
:10041600280800FF000000000000000000000000A7
:1004260000000000000000000000000000000000C6
:100436000000000000000000007F030C300C037F6A
:100446000000264949493200007F020408107F0057
:10155F00C10AC10B44002600000000440022000015
:10156F00000044002A00000000C1094400000000F0
:10157F0000005A000805270497041704970527054C
:10158F00270527049704970497052706200620446C
:06159F0000040000000042
:101C350043B10153B2FE53B1FD43B20243B1044374
:101C4500B20443B10843B20853C9EF53CAEF53C9AD
:051C5500DF53CADF228D
:10171C0030B07720090BD209121D5A900000020C30
:10172C007B121D5A900000E0F8A3E0F9A3E0FAA3A5
:10173C00E0FBC3EF9BFFEE9AFEED99FDEC98FCE409
:10174C007BB07A04F9F8D3120C6A5040900068E030
:10175C0070047F0180027F00900068EFF0121D5A28
:10176C0090002A120C7B121BE47D327FB07E041297
:10177C00112D121D8F7F647E00121CED121D88121C
:0C178C0019C320B0FDC209C20B22C20923
:01179800222E
:03121500300E7A1E
:10121800E490002EF0A3F0A3F0F0900030E0FFC3BC
:10122800648094855029EF3395E0FE74692FF58228
:1012380074003EF583E0FF3395E0FE90002FE02F29
:10124800F090002EE03EF0900030E004F080CB906B
:10125800002EE0FAA3E0FBD39400EA648094804077
:101268000C90005E120C8700000001801BC3EA642A
:1012780080948090005E5009120C87FFFFFFFF806A
:0A12880007120C8700000000C20EE0
:10129200900068E0705790005EE0FCA3E0FDA3E0E0
:1012A200FEA3E0FFEC4D4E4F6043121D5A90002A00
:1012B200120C7B7D327F787E0512112D121D8F7FDD
:1012C200327E00121CED121D88E47F14FEFDFC909C
:1012D200005EE0F8A3E0F9A3E0FAA3E0FB120B4DF5
:0E12E200120F1490005E120C87000000002214
:1018F100900068E064017060121D5A900022E0F8C7
:10190100A3E0F9A3E0FAA3E0FBC3EF9BFFEE9AFE8D
:10191100ED99FDEC98FCE47BE87A03F9F8D3120C1D
:101921006A5035121D5A900022120C7B74FFFFFE83
:10193100120F1490006EE07002A3E0701B90005B28
:10194100E07002A3E07011900062E07004A3E06413
:09195100017005200A02D20B22EC
:100D1000200003020F05200A0BD20A121D5A900070
:100D200004120C7B121D5A900004E0F8A3E0F9A312
:100D3000E0FAA3E0FBC3EF9BFFEE9AFEED99FDEC1A
:100D400098FC90002E120C7BE47FC8FEFDFC900006
:100D50002EE0F8A3E0F9A3E0FAA3E0FBC3120C6ACB
:100D60005006900008020EEDE47F907E01FDFC909D
:100D7000002EE0F8A3E0F9A3E0FAA3E0FBC3120C15
:100D80006A500690000A020EEDE47F587E02FDFCD8
:100D900090002EE0F8A3E0F9A3E0FAA3E0FBC31271
:100DA0000C6A500690000C020EEDE47F207E03FDDD
:100DB000FC90002EE0F8A3E0F9A3E0FAA3E0FBC367
:100DC000120C6A500690000E020EEDE47FE87E03DE
:100DD000FDFC90002EE0F8A3E0F9A3E0FAA3E0FB0D
:100DE000C3120C6A5006900010020EEDE47FB07E34
:100DF00004FDFC90002EE0F8A3E0F9A3E0FAA3E0E4
:100E0000FBC3120C6A5006900012020EEDE47F78CC
:100E10007E05FDFC90002EE0F8A3E0F9A3E0FAA324
:100E2000E0FBC3120C6A5006900014020EEDE47F42
:100E3000087E07FDFC90002EE0F8A3E0F9A3E0FA9D
:100E4000A3E0FBC3120C6A5006900016020EEDE4FC
:100E50007FD07E07FDFC90002EE0F8A3E0F9A3E030
:100E6000FAA3E0FBC3120C6A5005900018807EE4E0
:100E70007F987E08FDFC90002EE0F8A3E0F9A3E047
:100E8000FAA3E0FBC3120C6A500590001A805EE4DE
:100E90007F607E09FDFC90002EE0F8A3E0F9A3E05E
:100EA000FAA3E0FBC3120C6A500590001C803EE4DC
:100EB0007F287E0AFDFC90002EE0F8A3E0F9A3E075
:100EC000FAA3E0FBC3120C6A500590001E801EE4DA
:100ED0007FF07E0AFDFC90002EE0F8A3E0F9A3E08D
:100EE000FAA3E0FBC3120C6A500F900020E0FEA3AF
:100EF000E0FF7D3212112D8009121D5A900004125C
:100F00000C7B021D8F121D88C20A121D5A9000040C
:030F1000120C7B45
:010F130022BB
:10188600900068E064016062121D5A90002AE0F838
:10189600A3E0F9A3E0FAA3E0FBC3EF9BFFEE9AFEF9
:1018A600ED99FDEC98FCE47B307A75F9F8D3120CCF
:1018B6006A5037121BE4121D884387020000121C6F
:1018C60035121D96121D2B12149CE4FF121C9CE46B
:1018D600FF121B91C2B17D327FB07E0412112D1210
:0B18E6001D5A90002A120C7BD2AF228A
:101A6B00121C35121D96121D2B12149CE4FF121C16
:101A7B009CE4FF121B91C2B17D327FB07E04121128
:101A8B002D75FF03D2AED2AF121D5A900022120C4D
:101A9B007B12171C1212151218F1A20B9200120DC9
:091AAB00101218861219C380E81C
:0300330002001EAA
:04001E005387DF32F3
:10003600759850E4F589758BCC758DFFD28E438EFD
:0C00460040900071F0900070F0C20C229D
:08000300200CFDD20C8F9922A4
:101B32009000BDEBF0A3EAF0A3E9F09000BDE0FB5A
:101B4200A3E0FAA3E0F9120A8A60179000BDA3E4A9
:101B520075F001120B37A9F0FA120A8AFF1200037C
:031B620080D92205
:03002300021AB40A
:101AB400C0E0C083C082C0D075D000C006C007306B
:101AC4009904C299C20C309822C298900071E0FF28
:101AD40004F0EF3395E0FE74722FF58274003EF546
:101AE40083E599F0900071E0540FF0D007D006D050
:081AF400D0D082D083D0E03293
:081D80008F993099FDC29922F0
:101CD300EF1FAC0670011E4C600F000000000000F7
:0A1CE3000000000000000080E7226E
:101CED00AB07AA06EB1BAE0270011A4E60097FE826
:081CFD007E03121CD380ED22CE
:0D000E00E4F5C7F5C5F5C675C380F5C4223D
:101CB80075C78075F50C75C5018FC4EEFF8FC375A8
:0B1CC800C65A75C6A500AFC202000E90
:101B6500A2AFE433FCC2AF75C78075F50C75C5022D
:101B75008FC4EEFF8FC3AF058FC275C65A75C6A554
:0B1B85000012000EAF04EF24FF92AF2F
:011B90002232
:101C0D00A2AFE433FDC2AF75C78075F50C75C50382
:101C1D008FC4EEFF8FC375C65A75C6A50012000E90
:071C2D00AF05EF24FF92AFA9
:011C3400228D
:101D1A00AB07AA06121CB8EF6D6005AF03121B656C
:011D2A002296
:1007BB00253032643A253032643A253032640000F9
:1007CB0000C0A0E0E0E0E0E0E0E0E0E0E0A0E0007E
:1007DB00007F7F3F00000000000000003F7F3F00D4
:1007EB0000FFFFFE8080808080808080FEFFFF0006
:1007FB0000030203030303030303030303020100C8
:10080B00000080C0E00000000000000000000000BD
:10081B0000003F7F7F000000000000000000000090
:10082B000000FEFFFE0000000000000000000000C2
:10083B0000000001030000000000000000000000A9
:10084B0000002060E0E0E0E0E0E0E0E0E0A0C000DD
:10085B00000000808080808080808080BF7F7F0050
:10086B0000FEFF7F83838383838383838301000065
:10087B00000102030303030303030303030200004A
:10088B00002060E0E0E0E0E0E0E0E0E0E0A0C000BD
:10089B000000808080808080808080803F7F7F0010
:1008AB000000038383838383838383837FFFFF0022
:1008BB000002030303030303030303030302010007
:1008CB0000E0C08000000000000000008080C0003D
:1008DB00007F7FBF8080808080808080BF7F7F0093
:1008EB00000001030303030303030303FFFFFE00E5
:1008FB0000000000000000000000000000010300E9
:10090B0000C0A060E0E0E0E0E0E0E0E0E02000001C
:10091B00007F7FBF8080808080808080800000008F
:10092B00000001038383838383838383FFFFFE00A4
:10093B000000020303030303030303030302010089
:10094B0000C0A0E0E0E0E0E0E0E0E0E0E02000005C
:10095B00007F7FBF8080808080808080800000004F
:10096B0000FFFF7F8383838383838383FFFFFF00EA
:10097B000001020303030303030303030302030046
:10098B00002060E0E0E0E0E0E0E0E0E0E0A0C000BC
:10099B000000000000000000000000003F7F7F000F
:1009AB00000000000000000000000000FEFFFE0041
:1009BB000000000000000000000000000001030028
:1009CB0000C0A0E0E0E0E0E0E0E0E0E0E0A0E0007C
:1009DB00007F7FBF8080808080808080BF7F3F00D2
:1009EB0000FFFF7F8383838383838383FFFFFF006A
:1009FB0000010203030303030303030303020300C6
:100A0B0000C0A0E0E0E0E0E0E0E0E0E0E0A0C0005B
:100A1B00007F7FBF8080808080808080BF7F7F0051
:100A2B00000001038383838383838383FFFFFF00A2
:100A3B000000020303030303030303030302010088
:100A4B00000000000000000000000000000000009B
:100A5B000000000000000707070000000000000076
:100A6B00000000000000C0C0C0000000000000003B
:0F0A7B0000000000000001010100000000000069
:101C9C0090002EEFF07006FD7FA6121B0990002E0F
:0C1CAC00E0B40107E4FD7FA7121B092231
:101B910090002EEFF0700DFD7FC8121B09E4FD7F50
:101BA100A1121B0990002EE0B4010EE4FD7FC012CA
:0A1BB1001B09E4FD7FA0121B0922AE
:081D77007F01AE071FEE70FAB8
:011D7F002241
:0F1D3C00D2B2D2B3121D77C2B2121D77C2B32238
:0A002600C2B2D2B3121D77D2B2228B
:0F1D4B00D2B2121D77D2B3121D77C2B3021D7729
:021C5A00AD07D4
:101C5C00E4FCC2B3ED30E704D2B28002C2B2121D72
:101C6C0077D2B3121D77C2B3ED25E0FD0CECB408AE
:011C7C00E186
:011C7D002244
:0D1AFC00121B09E4FDFF121B09E4FD7F1021
:101B0900AB05AA07121D3C7F78121C5A121D4BEB1C
:101B190060047F408002E4FF121C5A121D4BAF0281
:091B2900121C5A121D4B02002689
:071BBB00E0FFA3E0FD04F0D0
:101BC200A907ED24B0FFE4FD121B09E954F0C45447
:101BD2000F4410FFE4FD121B09E9540FFFE4FD025C
:021BE2001B09DD
:101D0500E4FD7F8D121B09E4FD7F14121B09E4FD20
:051D15007FAF021B0975
:0E1D6900E4FD7F8D121B02E4FD7FAE021B091C
:101BE400E4F9E924B0FFE4FD121AFCE490002EF0BD
:101BF4007D01E4FF121B0990002EE004F0E0C39481
:081C04008040ED09E9B408DAA3
:011C0C0022B5
:08104200900035EFF0A3EDF082
:10104A00E4900039F0900038E0FFC313FD90003AB5
:10105A00F0E4A3F0A3F0EFB40809A3E4F0A3740644
:10106A00F08031900038E0FF131313541FF5827596
:10107A008300EF54077E0060047F0180027F00EF47
:10108A002582FFEE3583FE7C00120AD090003DEEE9
:10109A00F0A3EFF0EB24E0900039F0900035E0FF88
:1010AA00A3E0FD121BC2E490003BF0A3F090003DC8
:1010BA00E0FCA3E0FD90003BE0FEA3E0FFC39DEE51
:1010CA009C505F90003AE0FD7C00120AE2ED4C7001
:1010DA000E900038E064086006900035121BBB9041
:1010EA000038E0B4203C90003BE0FEA3E0FF900013
:1010FA0039E075F040A424CAF582E5F03403F5839B
:10110A00E5822FF582E5833EF583E493FF7D0112A4
:10111A001B0990003CE004F0709390003BE004F05F
:02112A00808BB8
:01112C0022A0
:071C7E009000C0EFF0A90582
:101C85007F017E00AD0119ED600C9000C0E0FD7C88
:061C950000120AD080EEEF
:011C9B002226
:0E12F00090009DEFF0A3EDF0A3EAF0A3EBF069
:1012FE00E49000A5F0A3F09000A2E0B408069000E0
:10130E00A57402F0E49000A3F09000A1E0FF90001D
:10131E00A3E0FEC39F40030213CAC3EF9E14FD7FDA
:10132E000A121C7E90009FE0FCA3E0FDCFCDCFCE35
:10133E00CCCE120AE27C007D0A120AE29000A4EDE5
:10134E00F09000A6E0703C9000A1E014FF9000A386
:10135E00E0FEC39F502DA3E070239000A2E0FCC3DB
:10136E0013FF9000A5E02F8EF0A4FF90009DE02FBC
:10137E00FFA3E0FD900038ECF07B2080339000A6B8
:10138E007401F09000A2E0FEC313FF9000A5E02FC1
:10139E00FF9000A3E0FDEF8DF0A4FF90009DE02FE5
:1013AE00FFA3E0FD9000A4E02430FB900038EEF0A7
:0C13BE001210429000A3E004F00213178C
:0113CA002200
:1018160090002EEFF0A3EDF0A3EBF0A3EAF0A3E91E
:01182600F0D1
:10182700E4900034F0900030E0FBA3E0FAA3E0F985
:10183700900034E0F582758300120AA3604090009F
:101847002EE0FFA3E0FD900034E0FE04F08E8275E9
:101857008300120AA3FB900033E0900038F01210C7
:1018670042900033E0FFB4080990002EE02406F010
:0E18770080B3EFC313FF90002EE02FF080A788
:011885002240
:0B1799009000B1EFF0A3EDF0A3EBF027
:1017A400A3E0FF131313541FFD7C00EF54077E00C6
:1017B40060047F0180027F00EF2DFFEE3CFE90006D
:1017C400B4E0FD7C00120AD09000B7EEF0A3EFF075
:1017D400E49000B5F0A3F09000B7E0FCA3E0FD9026
:1017E40000B5E0FEA3E0FFC39DEE9C50249000B43E
:1017F400E0FD7C00120AE2ED4C70069000B1121B71
:10180400BB9000B6E004F070CE9000B5E004F08028
:01181400C60D
:0118150022B0
:0B15FD00900092EFF0A3EDF0A3EBF0E4
:10160800E4900099F0A3F0900095E0FF13131354B1
:101618001FFEEF540760047F0180027F00EE2F90C9
:101628000095F0E490009BF0900095E0FF90009BFF
:10163800E0FEC39F5051900092E0FFA3E0FDEE2D25
:10164800FD121BC2E490009CF0900094E0FF900013
:101658009CE0C39F5029900096E0FBA3E0FAA3E02A
:10166800F9A3E475F001120B3785F082F583120AAD
:10167800A3FF7D01121B0990009CE004F080CA9032
:07168800009BE004F080A1CB
:01168F002238
:10149C00C2927FC87E00121CEDD292E4FD7FAE1288
:1014AC001AFCE4FD7F40121B09E4FD7F81121B092D
:1014BC00E4FD7FCF121B09E4FD7FA1121B09E4FDA3
:1014CC007FC8121B09E4FD7FA6121B09E4FD7FA84F
:1014DC00121B09E4FD7F3F121B09E4FD7FD3121B95
:1014EC0009E4FDFF121B09E4FD7FD5121B09E4FD85
:1014FC007F80121B09E4FD7FD9121B09E4FD7FF1EB
:10150C00121B09E4FD7FDA121B09E4FD7F12121B8A
:10151C0009E4FD7FDB121B09E4FD7F40121B09E48B
:10152C00FD7F20121B09E4FD7F02121B09E4FD7FE5
:10153C008D121B09E4FD7F14121B09E4FD7FA4121C
:10154C001B09E4FD7FA6121B09121BE4E4FD7FAF0F
:03155C00021B0966
:080F1400900031EEF0A3EFF0B4
:100F1C0090005BE0FEA3E0FF7C007D3C120AD0AAAF
:100F2C0006AB0790006EE0FEA3E0FF7C0E7D101276
:100F3C000AD0EF2BFFEE3AFE900063E02FFF9000FB
:100F4C0062E03EFE3395E0FDFC900033120C7B908A
:100F5C000033E0F8A3E0F9A3E0FAA3E0FB90003142
:100F6C00E0FEA3E0FFEE3395E0FDFCEB2FFFEA3E45
:100F7C00FEE93DFDE83CFCA3120C7BE4FFFEFDFC0E
:100F8C00900033E0F8A3E0F9A3E0FAA3E0FBC3126E
:100F9C000C6A500A900033120C8700000000E47FAA
:100FAC00807E51FDFC900033E0F8A3E0F9A3E0FA59
:100FBC00A3E0FBC3120C6A400A900033120C8700AA
:100FCC00000000E47B107A0EF9F8900033E0FCA3EB
:100FDC00E0FDA3E0FEA3E0FF120BD890006EEEF054
:100FEC00A3EFF0E47B107A0EF9F8900033E0FCA349
:100FFC00E0FDA3E0FEA3E0FF120BD8AC00AD01AE08
:10100C0002AF03E47B3CFAF9F8120BD890005BEECC
:10101C00F0A3EFF0E47B3CFAF9F8900033E0FCA38A
:10102C00E0FDA3E0FEA3E0FF120BD8AF039000623B
:05103C00EAF0A3EFF053
:01104100228C
:1019C30090003174FFF0A37407F0A374BBF0900090
:1019D3006EE0FFA3E0900034CFF0A3EFF090005B44
:1019E300E0FFA3E0900036CFF0A3EFF0900062E0B9
:1019F300FFA3E0900038CFF0A3EFF07B017A0079EA
:101A0300821204BB7B017A0079829000337420F048
:071A13007D02E4FF0218163A
:1015A5004100AA004100AE004100AD004200AB0081
:1015B500004200AF0000C18D4200A700004100A914
:0115C5000025
:05112D00900032EDF01E
:10113200C3940150037401F0900032E0D3946340F1
:10114200037463F09000A7E0B50612A3E0B5070DA3
:10115200A3E0FD900032E06D70030212149000A72C
:10116200EEF0A3EFF0900032E09000A9F0AB07AAF6
:1011720006E4F9F87F407E427D0FFC120BD8900006
:1011820033120C7B900037E4F0A37432F0900037F6
:10119200E0FEA3E0FBAA06E4F9F8900033E0FCA32A
:1011A200E0FDA3E0FEA3E0FF120BD89000ABEEF04F
:1011B200FAA3EFF0FB900032E0FF7E00AD03AC0239
:1011C200120AD07C007D64120AE2A9079000AAE903
:1011D200F0C3EB999000AEF053890F438910900051
:1011E20037E0FEA3E0FFE4FCFD7B02FAF9F8120B04
:1011F2004DC3E49FFFE49E9000AFF0A3EFF0900098
:10120200AFE0FCA3E0FDECF58DEDF58BD28ED2AB19
:02121200D2AF59
:0112140022B7
:071D8800C2B1C28EC2AB2202
:071D8F00D2B1D28ED2AB22CB
:03001B0002195A6D
:10195A00C0E0C083C082C0D075D000C004C005C03A
:10196A00079000AF74FFF0A3749CF09000AFE0FC06
:10197A00A3E0FDECF58DEDF58B9000ADE004F030C1
:10198A000D159000AAE0FF9000ADE0C39F401BE454
:10199A00F0C20DC2B180139000AEE0FF9000ADE03E
:1019AA00C39F4006E4F0D20DD2B1D007D005D004CF
:0919BA00D0D0D082D083D0E032FD
:1015C600450069000000000041005D00C10E4200B8
:1015D6006E000042005B0000420062000044005EB4
:0F15E600000000004100680044006400000000A5
:041D9600758F102213
:030053000213CBCA
:1013CB00C0E0C0F0C083C082C0D075D000C000C0E8
:1013DB0001C002C003C004C005C006C0079000686E
:0613EB00E0600302148122
:1013F100121D5A900056120C7B90005AE4F0900096
:1014010064E0F8A3E0F9A3E0FAA3E0FB900056E062
:10141100FCA3E0FDA3E0FEA3E0C39BFFEE9AFEED7B
:1014210099FDEC98FCE47B0AFAF9F8D3120C6A50A6
:101431004F900056E0FCA3E0FDA3E0FEA3E0FF9087
:101441000064120C7B90005A30CD057401F08003CA
:1014510074FFF090005AE0FF90005DE0FE04F0EEB2
:10146100FD3395E0FC74692DF58274003CF583EF42
:10147100F090005DE0C3648094854004E4F0D20EF6
:10148100D007D006D005D004D003D002D001D000BF
:0B149100D0D0D082D083D0F0D0E03269
:0715F5004400B900000000F2
:101D2B005389F0438901758CF8758A30D2A9D28C0E
:011D3B002285
:0F1D5A009000B9E0FCA3E0FDA3E0FEA3E0FF22B0
:03000B00021A1ABC
:101A1A00C0E0C0F0C083C082C0D075D000C000C092
:101A2A0004C005C006C007758CF8758A309000B9E5
:101A3A00E0FCA3E0FDA3E0FEA3E02401FFE43EFEF8
:101A4A00E43DFDE43CFC9000B9120C7BD007D006C3
:101A5A00D005D004D000D0D0D082D083D0F0D0E04E
:011A6A003249
:10169C00021A6BE493A3F8E493A34003F68001F2DF
:1016AC0008DFF48029E493A3F85407240CC8C3334F
:1016BC00C4540F4420C8834004F456800146F6DF1E
:1016CC00E4800B010204081020408090155FE47E3A
:1016DC00019360BCA3FF543F30E509541FFEE49313
:1016EC00A360010ECF54C025E060A840B8E493A3DA
:1016FC00FAE493A3F8E493A3C8C582C8CAC583CA05
:10170C00F0A3C8C582C8CAC583CADFE9DEE780BEBC
:0115FC0000EE
:100A8A00BB010689828A83E0225002E722BBFE026A
:090A9A00E32289828A83E493229D
:100AA300BB010CE58229F582E5833AF583E0225008
:100AB30006E92582F8E622BBFE06E92582F8E22252
:0D0AC300E58229F582E5833AF583E493226C
:100AD000EF8DF0A4A8F0CF8CF0A428CE8DF0A42E3A
:020AE000FE22F4
:100AE200BC000BBE0029EF8DF084FFADF022E4CCF8
:100AF200F875F008EF2FFFEE33FEEC33FCEE9DECC1
:100B0200984005FCEE9DFE0FD5F0E9E4CEFD22ED06
:100B1200F8F5F0EE8420D21CFEADF075F008EF2F50
:100B2200FFED33FD4007985006D5F0F222C398FD41
:050B32000FD5F0EA22DE
:100B3700A3F8E0C5F025F0F0E58215827002158371
:060B4700E0C838F0E822CE
:100B4D00E88FF0A4CC8BF0A42CFCE98EF0A42CFC47
:100B5D008AF0EDA42CFCEA8EF0A4CDA8F08BF0A4C5
:100B6D002DCC3825F0FDE98FF0A42CCD35F0FCEB24
:100B7D008EF0A4FEA9F0EB8FF0A4CFC5F02ECD39E9
:0F0B8D00FEE43CFCEAA42DCE35F0FDE43CFC2256
:100B9C0075F008758200EF2FFFEE33FECD33CDCC10
:100BAC0033CCC58233C5829BED9AEC99E582984093
:100BBC000CF582EE9BFEED9AFDEC99FC0FD5F0D670
:100BCC00E4CEFBE4CDFAE4CCF9A88222B800C1B99A
:100BDC000059BA002DEC8BF084CFCECDFCE5F0CBD8
:100BEC00F97818EF2FFFEE33FEED33FDEC33FCEB11
:100BFC0033FB10D703994004EB99FB0FD8E5E4F9CC
:100C0C00FA227818EF2FFFEE33FEED33FDEC33FCB8
:100C1C00C933C910D7059BE99A4007EC9BFCE99AAC
:100C2C00F90FD8E0E4C9FAE4CCFB2275F010EF2FF1
:100C3C00FFEE33FEED33FDCC33CCC833C810D707F1
:100C4C009BEC9AE899400AED9BFDEC9AFCE899F82C
:0E0C5C000FD5F0DAE4CDFBE4CCFAE4C8F922BF
:100C6A00EB9FF5F0EA9E42F0E99D42F0E89C45F0E0
:010C7A002257
:0C0C7B00ECF0A3EDF0A3EEF0A3EFF022EC
:100C8700A8828583F0D083D082120C9E120C9E120C
:100C97000C9E120C9EE473E493A3C583C5F0C58331
:100CA700C8C582C8F0A3C583C5F0C583C8C582C8B7
:010CB700221A
:10045600E5082431F582E43400F583E005082290AE
:10046600002E300703900031E475F001120CCA0229
:100476000A8A2000E97F2ED2008018EF540F2490BC
:10048600D43440D4FF30040BEF24BFB41A00500319
:100496002461FFE50960021509050CE50C700205EB
:1004A6000B30070E90002EE475F001120CCAEF0215
:1004B6000CB8021D807403D2078003E4C207F50856
:1004C60090002E120CE1E4F509F50BF50CE5096038
:1004D600077F2012049980F5750AFFC201C200C287
:1004E60002C203C205C206C208120465FF700D30BF
:1004F60007057F001204AAAF0CAE0B22B4255FC21B
:10050600D5C204120465FF24D0B40A00501A75F04F
:100516000A780930D50508B6FF0106C6A426F620D6
:10052600D5047002D20380D924CFB41A00EF500448
:10053600C2E5D2040206ABD20180C6D20080C0D288
:100546000280BCD2D580BAD20580B47F201204992D
:100556002002077401B5090040F1120456FF120487
:10056600990204D3D208D2068095120456FB1204CF
:1005760056FA120456F94A4B7006797C7A077BFFC5
:1005860020022EE509602A7E008E82758300120AFB
:10059600A360060EEE650A70F0C2D5EBC0E0EAC0B5
:1005A600E0E9C0E0EE1206F2D0E0F9D0E0FAD0E0E1
:1005B600FB120A8AFF60AAEBC0E0EAC0E0E9C0E0ED
:1005C600120499D0E02401F9D0E03400FAD0E0FB1F
:1005D600E50A0460DCD50AD980877BFF7A0679EEC6
:1005E600D202809C791080027908C206C20880086F
:1005F600D2D5790A8004790AC2D5E50A047002F5D3
:100606000AE4FAFDFEFF120456FC7B0820011312D1
:100616000456FD7B1030000A120456FE120456FFE3
:100626007B20EC3382D592D55013C3E43000069F6D
:10063600FFE49EFEE42001039DFDE49CFCE4CBF870
:10064600C201EC700CCFCECDCCE824F8F870F38064
:1006560017C3EF33FFEE33FEED33FDEC33FCEB3324
:10066600FB994002FB0FD8E9EB300105F8D0E0C456
:1006760048B201C0E00AEC4D4E4F78207B0070C2B4
:10068600EAB50A0040BCC0E01206F4D0F0D0E02083
:100696000104C4C0E0C4B201C0F0120482D0F0D597
:1006A600F0EB0204D3120CEA05705305EA58054133
:1006B6004C053D4205EE4F05F64405F64905564301
:0806C60005FC5505E04605E0C6
:1006CE004505E047079C5005452D05492E056C2B29
:1006DE00054D23056A2007852A0505480000056497
:1006EE003F3F3F00790AA2D5200314300509B91007
:1006FE00020404B9080104A2D52006025001042008
:10070E0002689202B509005034C0E07F2030031910
:10071E007F30A20272067205500F12074BC202C240
:10072E0006C205C2087F30800F300503E9C0E01213
:10073E000499300503D0E0F9D0E0B509CC300517A7
:10074E007F30B9100C1204997F583004077F7880DF
:10075E0003B908031204993002057F2D0204997F14
:10076E00202008F87F2B2006F322920280CF286EDD
:10077E00756C6C2900D2011204563001F8C2017852
:10078E000930D50108F60205052D504349581204CB
:10079E00562403B405004001E49007979312048A8F
:0D07AE00743A12048AD2037509040205EAA8
:100CB800BB010689828A83F0225002F722BBFE011B
:020CC800F32215
:100CCA00F8E0FBA3A3E0F925F0F0E58215827002B3
:070CDA001583E0FA38F02257
:090CE100EBF0A3EAF0A3E9F02214
:100CEA00D083D082F8E4937012740193700DA3A399
:100CFA0093F8740193F5828883E4737402936860AD
:060D0A00EFA3A3A380DFAC
:00000001FF
