:0300000002188C57
:0C188C00787FE4F6D8FD7581220218D3A5
:10005600253032643A253032643A25303264000065
:1000660003050911FF118905C300E000F000F8003F
:100076000000000000004428FF11AA440000000010
:10008600000000000000000000000000000000006A
:10009600000000000000000000000000000000005A
:1000A600000000000000000000000000000000004A
:1000B6000000000000000000008301384482929294
:1000C600740183000000000000007C44FF017D7D78
:1000D6007D017D7D7D7D017D7D7D7D7D01FF000036
:1000E6000000000001000100010001000100010004
:1000F60000000000000000000101000000000000F8
:1001060000000000000000000000000000000000E9
:1001160000000000000000000000000000000000D9
:1001260000000000000000000000000000000000C9
:1001360000000000000000000001010000000000B7
:1001460000010100000000000000000001010101A3
:10015600010101010101010101010101010100008B
:100166000000000000000000000000000000000089
:1001760000000000000000000000003F3F0303F302
:100186001311111111111101F11161810101018187
:100196006111F1010101014141F10101010101C1B9
:1001A600211111111121C1010101014141F1010189
:1001B60001010101010101011111111111D33303D3
:1001C600033F3F00000000000000000000000000A8
:1001D6000000000000000000000000000000000019
:1001E6000000000000000000000000000000000009
:1001F6000000000000000000000000E0E000007FBA
:1002060001010101010100007F000001061806013D
:1002160000007F0000000040407F40400000001FBB
:100226002040404040201F0000000040407F4040EA
:1002360000000000600000000040300C03000000D9
:1002460000E0E000000000000000000000000000E8
:100256000000000000000000000000000000000098
:100266000000000000000000000000000000000088
:100276000000000000000000000000070706060658
:1002860006040404844444448404048444444484A6
:1002960004040484C4040404048444444484040418
:1002A6000404048444444484040404040484444448
:1002B6004484040484444444840404040406060672
:1002C6000607070000000000000000000000000014
:1002D6000000000000000000000000000000000018
:1002E6000000000000000000000000000000000008
:1002F60000000000000000000000000000000000F8
:1003060000000000101814121100000F1010100F3A
:10031600000000101F10000000081012120D00004F
:100326001800000D1212120D00001800001018140B
:100336001211000010181412110000000000000035
:1003460000000000000000000000000000000000A7
:100356000000000000000000000000000000000097
:100366000000000000000000000000000000000087
:100376000000000000000000000000000000000077
:100386000000000000000000000000000000000067
:1003960000000000000000000000008080808080D7
:1003A60080808000000000000000000000000000C7
:1003B6000000000000000000000000000000000037
:1003C6000000000000000000000000000000000027
:1003D6000000000000000000000000000000000017
:1003E6007F030C300C037F00003854545800007C07
:1003F60004047800003C40407C000000000000003F
:1004060000000000000000000000000000000000E6
:100416000000000000000000000000FFAAAAAA28B1
:100426000800FF00000000000000000000000000BF
:1004360000000000000000000000000000000000B6
:1004460000000000000000007F030C300C037F005A
:1004560000264949493200007F020408107F000047
:1004660000FEFE060606060606060606F6F606065C
:100476000606060606060606FEFEFCF0E00000007E
:10048600007F7F6060606060606060606B6B606072
:0F04960060606060606060607F7F3F0F07000004
:10174F00C10AC10D4400280000000044002400001D
:10175F000000C18C44003C00000000C10B4200009F
:10176F000000C109440002000000005A000A0527CA
:10177F00049704170497052705270527049704974F
:0F178F00049705270620062044000600000000EE
:101D420043B10153B2FE53B1FD43B20290FE23E010
:101D520054FDF043B10443B20443B10843B2085303
:0C1D6200C9EF53CAEF53C9DF53CADF2298
:1019180090007EE070047F0180027F0090007EEFDF
:10192800F0121F2D90003C120CCA121DED7D327F63
:10193800B07E0412117C121F707F647E00121ED1CB
:10194800121F69C20D90004774FFF0A37400F0A342
:101958007456F0900083E0FFA3E090004ACFF0A314
:10196800EFF0900071E0FFA3E090004CCFF0A3EF00
:10197800F0900078E0FFA3E090004ECFF0A3EFF0E6
:101988007B017A00792C12050A7B017A00792C9068
:0C19980000497420F07D02E4FF021A9365
:10141A0020B0030214AF20090BD209121F2D90002D
:04142A0002020CCAE4
:10142E00121F2D900002E0F8A3E0F9A3E0FAA3E06A
:10143E00FBC3EF9BFFEE9AFEED99FDEC98FC90003E
:10144E0040120CCAE47F787E05FDFC900040E0F867
:10145E00A3E0F9A3E0FAA3E0FBC3120CB940099094
:10146E000000E4F0A37402F0E47FC8FEFDFC9000DF
:10147E0040E0F8A3E0F9A3E0FAA3E0FBC3120CB935
:10148E004060E47F787E05FDFC900040E0F8A3A369
:10149E00A3E0D3120CB9504A900000E4F0A304F07C
:1014AE002230093E900000E07004A3E06401700554
:1014BE001219188024900000E07004A3E0640270FA
:1014CE00187D327FF47E0112117C121F707F327EE6
:1014DE0000121ED1121F69C20CE4900000F0A3F09E
:0214EE00C20931
:0114F00022D9
:0312640030107ACD
:10126700E4900040F0A3F0A3F0F0900042E0FFC349
:10127700648094845029EF3395E0FE747F2FF582C4
:1012870074003EF583E0FF3395E0FE900041E02FC8
:10129700F0900040E03EF0900042E004F080CB90F8
:1012A7000040E0FAA3E0FBD39400EA648094804016
:1012B7000C900074120CD600000001801BC3EA6476
:1012C7008094809000745009120CD6FFFFFFFF80B6
:0A12D70007120CD600000000C21040
:1012E10090007EE07057900074E0FCA3E0FDA3E065
:1012F100FEA3E0FFEC4D4E4F6043121F2D90003CCA
:10130100120CCA7D327F787E0512117C121F707F0C
:10131100327E00121ED1121F69E47F1EFEFDFC9079
:101321000074E0F8A3E0F9A3E0FAA3E0FB120B9C40
:0E133100120F63900074120CD6000000002210
:101B6E0090007EE064017060121F2D900024E0F85A
:101B7E00A3E0F9A3E0FAA3E0FBC3EF9BFFEE9AFE0E
:101B8E00ED99FDEC98FCE47BE87A03F9F8D3120C9E
:101B9E00B95035121F2D900024120CCA74FFFFFE8F
:101BAE00120F63900083E07002A3E0701B9000712F
:101BBE00E07002A3E07011900078E07004A3E0647E
:091BCE00017005200A02D20D226B
:100D5F00200003020F54200A0BD20A121F2D9000FD
:100D6F0006120CCA121F2D900006E0F8A3E0F9A39B
:100D7F00E0FAA3E0FBC3EF9BFFEE9AFEED99FDECCB
:100D8F0098FC900040120CCAE47FC8FEFDFC900056
:100D9F0040E0F8A3E0F9A3E0FAA3E0FBC3120CB91B
:100DAF00500690000A020F3CE47F907E01FDFC90FC
:100DBF000040E0F8A3E0F9A3E0FAA3E0FBC3120CB4
:100DCF00B9500690000C020F3CE47F587E02FDFCE8
:100DDF00900040E0F8A3E0F9A3E0FAA3E0FBC31210
:100DEF000CB9500690000E020F3CE47F207E03FDED
:100DFF00FC900040E0F8A3E0F9A3E0FAA3E0FBC306
:100E0F00120CB95006900010020F3CE47FE87E03ED
:100E1F00FDFC900040E0F8A3E0F9A3E0FAA3E0FBAB
:100E2F00C3120CB95006900012020F3CE47FB07E43
:100E3F0004FDFC900040E0F8A3E0F9A3E0FAA3E082
:100E4F00FBC3120CB95006900014020F3CE47F78DC
:100E5F007E05FDFC900040E0F8A3E0F9A3E0FAA3C3
:100E6F00E0FBC3120CB95006900016020F3CE47F52
:100E7F00087E07FDFC900040E0F8A3E0F9A3E0FA3C
:100E8F00A3E0FBC3120CB95006900018020F3CE40C
:100E9F007FD07E07FDFC900040E0F8A3E0F9A3E0CF
:100EAF00FAA3E0FBC3120CB9500590001A807EE440
:100EBF007F987E08FDFC900040E0F8A3E0F9A3E0E6
:100ECF00FAA3E0FBC3120CB9500590001C805EE43E
:100EDF007F607E09FDFC900040E0F8A3E0F9A3E0FD
:100EEF00FAA3E0FBC3120CB9500590001E803EE43C
:100EFF007F287E0AFDFC900040E0F8A3E0F9A3E014
:100F0F00FAA3E0FBC3120CB95005900020801EE439
:100F1F007FF07E0AFDFC900040E0F8A3E0F9A3E02B
:100F2F00FAA3E0FBC3120CB9500F900022E0FEA30E
:100F3F00E0FF7D3212117C8009121F2D90000612E6
:100F4F000CCA021F70121F69C20A121F2D900006D1
:030F5F00120CCAA7
:010F6200226C
:101B030090007EE064016062121F2D90003CE0F8BB
:101B1300A3E0F9A3E0FAA3E0FBC3EF9BFFEE9AFE79
:101B2300ED99FDEC98FCE47B307A75F9F8D3120C4F
:101B3300B95037121DED121F694387020000121DB1
:101B430042C2B112001E121F4A12168CE4FF121E6B
:101B530080E4FF121D9A7D327FB07E0412117C1245
:0B1B63001F2D90003C120CCAD2AF22D4
:1015C200121D42C2B112001E121F4A12168CE4FFF3
:1015D200121E80E4FF121D9A90004774FFF0A3745C
:1015E20000F0A37456F0900083E0FFA3E090004A5D
:1015F200CFF0A3EFF0900071E0FFA3E090004CCF9A
:10160200F0A3EFF0900078E0FFA3E090004ECFF05F
:10161200A3EFF07B017A00792C12050A7B017A0094
:10162200792C9000497420F07D02E4FF121A937D18
:10163200327FB07E0412117C75C124D20C75FF0377
:10164200D2AEC20BD2AF121F2D900024120CCA30A0
:101652000C0343C11012141A121264121B6EA20D53
:101662009200120D5F121B03121A21300BE190003F
:10167200437410F0A374FFF0A37404F0A37465F034
:0A1682007B20E4FDFF1217F980C57C
:03003300021F7732
:061F77005387DFD20B329C
:10003600759850E4F589758BCC758DFFD28E438EFD
:0C00460040900086F0900085F0C20E2271
:08000300200EFDD20E8F9922A0
:101D0F009000C8EBF0A3EAF0A3E9F09000C8E0FB65
:101D1F00A3E0FAA3E0F9120AD960179000C8A3E470
:101D2F0075F001120B86A9F0FA120AD9FF120003FF
:031D3F0080D92226
:03002300021C912B
:101C9100C0E0C083C082C0D075D000C006C007308C
:101CA1009904C299C20E309822C298900086E0FF32
:101CB10004F0EF3395E0FE74872FF58274003EF552
:101CC10083E599F0900086E0540FF0D007D006D05C
:081CD100D0D082D083D0E032B4
:081F61008F993099FDC299220D
:101EB700EF1FAC0670011E4C600F00000000000011
:0A1EC7000000000000000080E72288
:101ED100AB07AA06EB1BAE0270011A4E60097FE840
:081EE1007E03121EB780ED2202
:0D000E00E4F5C7F5C5F5C675C380F5C4223D
:101E9C0075C78075F50C75C5018FC4EEFF8FC375C2
:0B1EAC00C65A75C6A500AFC202000EAA
:101D6E00A2AFE433FCC2AF75C78075F50C75C50222
:101D7E008FC4EEFF8FC3AF058FC275C65A75C6A549
:0B1D8E000012000EAF04EF24FF92AF24
:011D99002227
:101E1600A2AFE433FDC2AF75C78075F50C75C50377
:101E26008FC4EEFF8FC375C65A75C6A50012000E85
:071E3600AF05EF24FF92AF9E
:011E3D002282
:101EFE00AB07AA06121E9CEF6D6005AF03121D6E96
:011F0E0022B0
:10080A00253032643A253032643A253032640000A9
:10081A0000C0A0E0E0E0E0E0E0E0E0E0E0A0E0002E
:10082A00007F7F3F00000000000000003F7F3F0084
:10083A0000FFFFFE8080808080808080FEFFFF00B6
:10084A000003020303030303030303030302010078
:10085A00000080C0E000000000000000000000006E
:10086A0000003F7F7F000000000000000000000041
:10087A000000FEFFFE000000000000000000000073
:10088A00000000010300000000000000000000005A
:10089A0000002060E0E0E0E0E0E0E0E0E0A0C0008E
:1008AA00000000808080808080808080BF7F7F0001
:1008BA0000FEFF7F83838383838383838301000016
:1008CA0000010203030303030303030303020000FB
:1008DA00002060E0E0E0E0E0E0E0E0E0E0A0C0006E
:1008EA000000808080808080808080803F7F7F00C1
:1008FA000000038383838383838383837FFFFF00D3
:10090A0000020303030303030303030303020100B7
:10091A0000E0C08000000000000000008080C000ED
:10092A00007F7FBF8080808080808080BF7F7F0043
:10093A00000001030303030303030303FFFFFE0095
:10094A000000000000000000000000000001030099
:10095A0000C0A060E0E0E0E0E0E0E0E0E0200000CD
:10096A00007F7FBF80808080808080808000000040
:10097A00000001038383838383838383FFFFFE0055
:10098A00000002030303030303030303030201003A
:10099A0000C0A0E0E0E0E0E0E0E0E0E0E02000000D
:1009AA00007F7FBF80808080808080808000000000
:1009BA0000FFFF7F8383838383838383FFFFFF009B
:1009CA0000010203030303030303030303020300F7
:1009DA00002060E0E0E0E0E0E0E0E0E0E0A0C0006D
:1009EA000000000000000000000000003F7F7F00C0
:1009FA00000000000000000000000000FEFFFE00F2
:100A0A0000000000000000000000000000010300D8
:100A1A0000C0A0E0E0E0E0E0E0E0E0E0E0A0E0002C
:100A2A00007F7FBF8080808080808080BF7F3F0082
:100A3A0000FFFF7F8383838383838383FFFFFF001A
:100A4A000001020303030303030303030302030076
:100A5A0000C0A0E0E0E0E0E0E0E0E0E0E0A0C0000C
:100A6A00007F7FBF8080808080808080BF7F7F0002
:100A7A00000001038383838383838383FFFFFF0053
:100A8A000000020303030303030303030302010039
:100A9A00000000000000000000000000000000004C
:100AAA000000000000000707070000000000000027
:100ABA00000000000000C0C0C000000000000000EC
:0F0ACA000000000000000101010000000000001A
:04179E00410097006F
:101E8000900040EFF07006FD7FA6121CE690004027
:0C1E9000E0B40107E4FD7FA7121CE6226D
:101D9A00900040EFF0700DFD7FC8121CE6E4FD7F55
:101DAA00A1121CE6900040E0B4010EE4FD7FC012CF
:0A1DBA001CE6E4FD7FA0121CE622E7
:081F58007F01AE071FEE70FAD5
:011F6000225E
:0F1F0F00D2B2D2B3121F58C2B2121F58C2B3229D
:0A002600C2B2D2B3121F58D2B222A8
:0F1F1E00D2B2121F58D2B3121F58C2B3021F58AB
:021E3E00AD07EE
:101E4000E4FCC2B3ED30E704D2B28002C2B2121F8A
:101E500058D2B3121F58C2B3ED25E0FD0CECB40804
:011E6000E1A0
:011E6100225E
:0D1CD900121CE6E4FDFF121CE6E4FD7F1086
:101CE600AB05AA07121F0F7F78121E3E121F1EEBAE
:101CF60060047F408002E4FF121E3E121F1EAF02E8
:091D0600121E3E121F1E020026EF
:071DC400E0FFA3E0FD04F0C5
:101DCB00A907ED24B0FFE4FD121CE6E954F0C4545E
:101DDB000F4410FFE4FD121CE6E9540FFFE4FD0273
:021DEB001CE6F4
:101EE900E4FD7F8D121CE6E4FD7F14121CE6E4FD7F
:051EF9007FAF021CE6B2
:0E1F3C00E4FD7F8D121CDFE4FD7FAE021CE68B
:101DED00E4F9E924B0FFE4FD121CD9E4900044F0BD
:101DFD007D01E4FF121CE6900044E004F0E0C39482
:081E0D008040ED09E9B408DA98
:011E150022AA
:0810910090004BEFF0A3EDF01D
:10109900E490004FF090004EE0FFC313FD90005024
:1010A900F0E4A3F0A3F0EFB40809A3E4F0A37406F5
:1010B900F0803190004EE0FF131313541FF5827531
:1010C9008300EF54077E0060047F0180027F00EFF8
:1010D9002582FFEE3583FE7C00120B1F900053EE34
:1010E900F0A3EFF0EB24E090004FF090004BE0FF0D
:1010F900A3E0FD121DCBE4900051F0A3F090005342
:10110900E0FCA3E0FD900051E0FEA3E0FFC39DEEEB
:101119009C505F900050E0FD7C00120B31ED4C704B
:101129000E90004EE06408600690004B121DC490BA
:10113900004EE0B4203C900051E0FEA3E0FF900097
:101149004FE075F040A42419F582E5F03404F583E5
:10115900E5822FF582E5833EF583E493FF7D011255
:101169001CE6900052E004F07093900051E004F006
:02117900808B69
:01117B002251
:071E62009000CBEFF0A90591
:101E69007F017E00AD0119ED600C9000CBE0FD7C97
:061E790000120B1F80EEB9
:011E7F002240
:0E133F009000A8EFF0A3EDF0A3EAF0A3EBF00E
:10134D00E49000B0F0A3F09000ADE0B4080690007A
:10135D00B07402F0E49000AEF09000ACE0FF9000AD
:10136D00AEE0FEC39F4003021419C3EF9E14FD7F30
:10137D000A121E629000AAE0FCA3E0FDCFCDCFCEF5
:10138D00CCCE120B317C007D0A120B319000AFEDEB
:10139D00F09000B1E0703C9000ACE014FF9000AE16
:1013AD00E0FEC39F502DA3E070239000ADE0FCC381
:1013BD0013FF9000B0E02F8EF0A4FF9000A8E02F57
:1013CD00FFA3E0FD90004EECF07B2080339000B148
:1013DD007401F09000ADE0FEC313FF9000B0E02F5C
:1013ED00FF9000AEE0FDEF8DF0A4FF9000A8E02F80
:1013FD00FFA3E0FD9000AFE02430FB90004EEEF037
:0C140D001210919000AEE004F002136693
:0114190022B0
:101A9300900044EFF0A3EDF0A3EBF0A3EAF0A3E989
:011AA300F052
:101AA400E490004AF0900046E0FBA3E0FAA3E0F9DA
:101AB40090004AE0F582758300120AF260409000BB
:101AC40044E0FFA3E0FD90004AE0FE04F08E82753E
:101AD4008300120AF2FB900049E090004EF01210CD
:101AE40091900049E0FFB40809900044E02406F016
:0E1AF40080B3EFC313FF900044E02FF080A7F3
:011B020022C0
:0B19A4009000BCEFF0A3EDF0A3EBF00F
:1019AF00A3E0FF131313541FFD7C00EF54077E00B9
:1019BF0060047F0180027F00EF2DFFEE3CFE900060
:1019CF00BFE0FD7C00120B1F9000C2EEF0A3EFF002
:1019DF00E49000C0F0A3F09000C2E0FCA3E0FD9003
:1019EF0000C0E0FEA3E0FFC39DEE9C50249000BF1B
:1019FF00E0FD7C00120B31ED4C70069000BC121D07
:101A0F00C49000C1E004F070CE9000C0E004F080FC
:011A1F00C600
:011A200022A3
:0B17F900900040EFF0A3EDF0A3EBF038
:10180400E4900047F0A3F0900043E0FF1313135457
:101814001FFEEF540760047F0180027F00EE2F90CB
:101824000043F0E4900049F0900043E0FF90004949
:10183400E0FEC39F5051900040E0FFA3E0FDEE2D79
:10184400FD121DCBE490004AF0900042E0FF9000AE
:101854004AE0C39F5029900044E0FBA3E0FAA3E0D0
:10186400F9A3E475F001120B8685F082F583120A60
:10187400F2FF7D01121CE690004AE004F080CA9059
:071884000049E004F080A11F
:01188B00223A
:10168C00C2927FC87E00121ED1D292E4FD7FAE12B0
:10169C001CD9E4FD7F40121CE6E4FD7F81121CE6A0
:1016AC00E4FD7FCF121CE6E4FD7FA1121CE6E4FDF5
:1016BC007FC8121CE6E4FD7FA6121CE6E4FD7FA8A1
:1016CC00121CE6E4FD7F3F121CE6E4FD7FD3121CE6
:1016DC00E6E4FDFF121CE6E4FD7FD5121CE6E4FDFA
:1016EC007F80121CE6E4FD7FD9121CE6E4FD7FF13D
:1016FC00121CE6E4FD7FDA121CE6E4FD7F12121CDC
:10170C00E6E4FD7FDB121CE6E4FD7F40121CE6E400
:10171C00FD7F20121CE6E4FD7F02121CE6E4FD7F37
:10172C008D121CE6E4FD7F14121CE6E4FD7FA4126E
:10173C001CE6E4FD7FA6121CE6121DEDE4FD7FAF56
:03174C00021CE696
:080F6300900043EEF0A3EFF053
:100F6B00900071E0FEA3E0FF7C007D3C120B1FAAFA
:100F7B0006AB07900083E0FEA3E0FF7C0E7D101212
:100F8B000B1FEF2BFFEE3AFE900079E02FFF900046
:100F9B0078E03EFE3395E0FDFC900045120CCA90C4
:100FAB000045E0F8A3E0F9A3E0FAA3E0FB900043CF
:100FBB00E0FEA3E0FFEE3395E0FDFCEB2FFFEA3EF6
:100FCB00FEE93DFDE83CFCA3120CCAE4FFFEFDFC70
:100FDB00900045E0F8A3E0F9A3E0FAA3E0FBC3120D
:100FEB000CB9500A900045120CD600000000E47FAB
:100FFB00807E51FDFC900045E0F8A3E0F9A3E0FAF8
:10100B00A3E0FBC3120CB9400A900045120CD600AA
:10101B00000000E47B107A0EF9F8900045E0FCA389
:10102B00E0FDA3E0FEA3E0FF120C27900083EEF09F
:10103B00A3EFF0E47B107A0EF9F8900045E0FCA3E7
:10104B00E0FDA3E0FEA3E0FF120C27AC00AD01AE68
:10105B0002AF03E47B3CFAF9F8120C27900071EE17
:10106B00F0A3EFF0E47B3CFAF9F8900045E0FCA329
:10107B00E0FDA3E0FEA3E0FF120C27AF0390007886
:05108B00EAF0A3EFF004
:01109000223D
:101A2100900097E0FF900078E07003A3E06F6061A1
:101A310090004774FFF0A37408F0A3740AF09000BB
:101A410083E0FFA3E090004ACFF0A3EFF090007194
:101A5100E0FFA3E090004CCFF0A3EFF0900078E01E
:101A6100FFA3E090004ECFF0A3EFF07B017A007965
:101A71009812050A7B017A0079989000497420F048
:101A81007D02E4FF121A93900078E0A3E0900097A2
:011A9100F064
:011A92002231
:1017A2004100B5004100B9004100B8004200B60056
:1017B200004200BA0000C18F4200B200004100B4F2
:0117C2000026
:05117C00900044EDF0BD
:10118100C3940150037401F0900044E0D394634090
:10119100037463F09000B2E0B50612A3E0B5070D49
:1011A100A3E0FD900044E06D70030212639000B271
:1011B100EEF0A3EFF0900044E09000B4F0AB07AA8A
:1011C10006E4F9F87F407E427D0FFC120C27900067
:1011D10045120CCA900049E4F0A37432F090004922
:1011E100E0FEA3E0FBAA06E4F9F8900045E0FCA3C9
:1011F100E0FDA3E0FEA3E0FF120C279000B6EEF0A5
:10120100FAA3EFF0FB900044E0FF7E00AD03AC02D7
:10121100120B1F7C007D64120B31A9079000B5E908
:10122100F0C3EB999000B9F053890F4389109000F6
:1012310049E0FEA3E0FFE4FCFD7B02FAF9F8120BA2
:101241009CC3E49FFFE49E9000BAF0A3EFF09000EE
:10125100BAE0FCA3E0FDECF58DEDF58BD28ED2ABBF
:02126100D2AF0A
:011263002268
:071F6900C2B1C28EC2AB221F
:071F7000D2B1D28ED2AB22E8
:03001B00021BD7EE
:101BD700C0E0C083C082C0D075D000C004C005C0BB
:101BE700079000BA74FFF0A3749CF09000BAE0FC71
:101BF700A3E0FDECF58DEDF58B9000B8E004F03037
:101C07000F159000B5E0FF9000B8E0C39F401BE4BC
:101C1700F0C20FC2B180139000B9E0FF9000B8E0A6
:101C2700C39F4006E4F0D20FD2B1D007D005D0044D
:091C3700D0D0D082D083D0E0327D
:1017C30044007F0000000041007300C11042008309
:1017D30000004200710000420078000044007400E1
:0E17E30000000041007E0044007A000000007B
:04001E00758F1022A8
:030053000214F1A3
:1014F100C0E0C0F0C083C082C0D075D000C000C0C1
:1015010001C002C003C004C005C006C00790007E30
:06151100E060030215A7D3
:10151700121F2D90006C120CCA900070E4F090001E
:101527007AE0F8A3E0F9A3E0FAA3E0FB90006CE00F
:10153700FCA3E0FDA3E0FEA3E0C39BFFEE9AFEED54
:1015470099FDEC98FCE47B0AFAF9F8D3120CB95030
:101557004F90006CE0FCA3E0FDA3E0FEA3E0FF904A
:10156700007A120CCA90007030CD057401F0800328
:1015770074FFF0900070E0FF900073E0FE04F0EE5F
:10158700FD3395E0FC747F2DF58274003CF583EF05
:10159700F0900073E0C3648094844004E4F0D210B8
:1015A700D007D006D005D004D003D002D001D00098
:0B15B700D0D0D082D083D0F0D0E03242
:0717F1004400C400000000E9
:0E1F4A00438E80758CA2758A40D2A9D28C225B
:0F1F2D009000C4E0FCA3E0FDA3E0FEA3E0FF22D0
:03000B00021C4094
:101C4000C0E0C0F0C083C082C0D075D000C000C06A
:101C500004C005C006C007758CA2758A409000C4F8
:101C6000E0FCA3E0FDA3E0FEA3E02401FFE43EFED0
:101C7000E43DFDE43CFC9000C4120CCAD007D00641
:101C8000D005D004D000D0D0D082D083D0F0D0E026
:011C90003221
:101898000215C2E493A3F8E493A34003F68001F28F
:1018A80008DFF48029E493A3F85407240CC8C33351
:1018B800C4540F4420C8834004F456800146F6DF20
:1018C800E4800B010204081020408090174FE47E4A
:1018D800019360BCA3FF543F30E509541FFEE49315
:1018E800A360010ECF54C025E060A840B8E493A3DC
:1018F800FAE493A3F8E493A3C8C582C8CAC583CA07
:10190800F0A3C8C582C8CAC583CADFE9DEE780BEBE
:0117F80000F0
:100AD900BB010689828A83E0225002E722BBFE021B
:090AE900E32289828A83E493224E
:100AF200BB010CE58229F582E5833AF583E02250B9
:100B020006E92582F8E622BBFE06E92582F8E22202
:0D0B1200E58229F582E5833AF583E493221C
:100B1F00EF8DF0A4A8F0CF8CF0A428CE8DF0A42EEA
:020B2F00FE22A4
:100B3100BC000BBE0029EF8DF084FFADF022E4CCA8
:100B4100F875F008EF2FFFEE33FEEC33FCEE9DEC71
:100B5100984005FCEE9DFE0FD5F0E9E4CEFD22EDB7
:100B6100F8F5F0EE8420D21CFEADF075F008EF2F01
:100B7100FFED33FD4007985006D5F0F222C398FDF2
:050B81000FD5F0EA228F
:100B8600A3F8E0C5F025F0F0E58215827002158322
:060B9600E0C838F0E8227F
:100B9C00E88FF0A4CC8BF0A42CFCE98EF0A42CFCF8
:100BAC008AF0EDA42CFCEA8EF0A4CDA8F08BF0A476
:100BBC002DCC3825F0FDE98FF0A42CCD35F0FCEBD5
:100BCC008EF0A4FEA9F0EB8FF0A4CFC5F02ECD399A
:0F0BDC00FEE43CFCEAA42DCE35F0FDE43CFC2207
:100BEB0075F008758200EF2FFFEE33FECD33CDCCC1
:100BFB0033CCC58233C5829BED9AEC99E582984044
:100C0B000CF582EE9BFEED9AFDEC99FC0FD5F0D620
:100C1B00E4CEFBE4CDFAE4CCF9A88222B800C1B94A
:100C2B000059BA002DEC8BF084CFCECDFCE5F0CB88
:100C3B00F97818EF2FFFEE33FEED33FDEC33FCEBC1
:100C4B0033FB10D703994004EB99FB0FD8E5E4F97C
:100C5B00FA227818EF2FFFEE33FEED33FDEC33FC69
:100C6B00C933C910D7059BE99A4007EC9BFCE99A5D
:100C7B00F90FD8E0E4C9FAE4CCFB2275F010EF2FA2
:100C8B00FFEE33FEED33FDCC33CCC833C810D707A2
:100C9B009BEC9AE899400AED9BFDEC9AFCE899F8DD
:0E0CAB000FD5F0DAE4CDFBE4CCFAE4C8F92270
:100CB900EB9FF5F0EA9E42F0E99D42F0E89C45F091
:010CC9002208
:0C0CCA00ECF0A3EDF0A3EEF0A3EFF0229D
:100CD600A8828583F0D083D082120CED120CED121F
:100CE6000CED120CEDE473E493A3C583C5F0C58344
:100CF600C8C582C8F0A3C583C5F0C583C8C582C868
:010D060022CA
:1004A500E5082447F582E43400F583E00508229049
:1004B5000044300703900047E475F001120D19025E
:1004C5000AD92000E97F2ED2008018EF540F24901E
:1004D500D43440D4FF30040BEF24BFB41A005003CA
:1004E5002461FFE50960021509050CE50C7002059C
:1004F5000B30070E900044E475F001120D19EF0260
:100505000D07021F617403D2078003E4C207F508D3
:10051500900044120D30E4F509F50BF50CE5096082
:10052500077F201204E880F5750AFFC201C200C2E8
:1005350002C203C205C206C2081204B4FF700D3020
:1005450007057F001204F9AF0CAE0B22B4255FC27C
:10055500D5C2041204B4FF24D0B40A00501A75F0B1
:100565000A780930D50508B6FF0106C6A426F62087
:10057500D5047002D20380D924CFB41A00EF5004F9
:10058500C2E5D2040206FAD20180C6D20080C0D2EA
:100595000280BCD2D580BAD20580B47F201204E88F
:1005A5002002077401B5090040F11204A5FF1204E9
:1005B500E8020522D208D20680951204A5FB120492
:1005C500A5FA1204A5F94A4B700679CB7A077BFF89
:1005D50020022EE509602A7E008E82758300120AAC
:1005E500F260060EEE650A70F0C2D5EBC0E0EAC017
:1005F500E0E9C0E0EE120741D0E0F9D0E0FAD0E042
:10060500FB120AD9FF60AAEBC0E0EAC0E0E9C0E04E
:100615001204E8D0E02401F9D0E03400FAD0E0FB80
:10062500E50A0460DCD50AD980877BFF7A07793D26
:10063500D202809C791080027908C206C20880081F
:10064500D2D5790A8004790AC2D5E50A047002F583
:100655000AE4FAFDFEFF1204A5FC7B082001131233
:1006650004A5FD7B1030000A1204A5FE1204A5FFA7
:100675007B20EC3382D592D55013C3E43000069F1E
:10068500FFE49EFEE42001039DFDE49CFCE4CBF821
:10069500C201EC700CCFCECDCCE824F8F870F38015
:1006A50017C3EF33FFEE33FEED33FDEC33FCEB33D5
:1006B500FB994002FB0FD8E9EB300105F8D0E0C407
:1006C50048B201C0E00AEC4D4E4F78207B0070C265
:1006D500EAB50A0040BCC0E0120743D0F0D0E020E4
:1006E5000104C4C0E0C4B201C0F01204D1D0F0D5F9
:1006F500F0EB020522120D3905BF53063958059056
:100705004C058C42063D4F06454406454905A54323
:08071500064B55062F46062F86
:10071D0045062F4707EB5005942D05982E05BB2B4D
:10072D00059C2305B92007D42A055448000005B3BC
:10073D003F3F3F00790AA2D5200314300509B910B7
:10074D00020404B9080104A2D520060250010420B8
:10075D0002689202B509005034C0E07F20300319C1
:10076D007F30A20272067205500F12079AC202C2A2
:10077D0006C205C2087F30800F300503E9C0E012C4
:10078D0004E8300503D0E0F9D0E0B509CC30051709
:10079D007F30B9100C1204E87F583004077F788041
:1007AD0003B908031204E83002057F2D0204E87F27
:1007BD00202008F87F2B2006F322920280CF286E8E
:1007CD00756C6C2900D2011204A53001F8C20178B4
:1007DD000930D50108F60205542D5043495812042D
:1007ED00A52403B405004001E49007E6931204D953
:0D07FD00743A1204D9D203750904020639BA
:100D0700BB010689828A83F0225002F722BBFE01CB
:020D1700F322C5
:100D1900F8E0FBA3A3E0F925F0F0E5821582700263
:070D29001583E0FA38F02207
:090D3000EBF0A3EAF0A3E9F022C4
:100D3900D083D082F8E4937012740193700DA3A349
:100D490093F8740193F5828883E47374029368605D
:060D5900EFA3A3A380DF5D
:00000001FF
