:0300000002196181
:0C196100787FE4F6D8FD75816A0219A8B1
:100C1D000003050911FF118905C300E000F000F87C
:100C2D00000000000000004428FF11AA440000004D
:100C3D0000000000000000000000000000000000A7
:100C4D000000000000000000000000000000000097
:100C5D000000000000000000000000000000000087
:100C6D000000000000000000000083013844829263
:100C7D0092740183000000000000007C44FF017DA0
:100C8D007D7D017D7D7D7D017D7D7D7D7D01FF00F6
:100C9D000000000000010001000100010001000141
:100CAD000000000000000000000101000000000035
:100CBD000000000000000000000000000000000027
:100CCD000000000000000000000000000000000017
:100CDD000000000000000000000000000000000007
:100CED0000000000000000000000010100000000F5
:100CFD0000000101000000000000000000010101E2
:100D0D0001010101010101010101010101010100C7
:100D1D0000000000000000000000000000000000C6
:100D2D000000000000000000000000003F3F030332
:100D3D00F31311111111111101F111618101010152
:100D4D00816111F1010101014141F1010101010136
:100D5D00C1211111111121C1010101014141F10106
:100D6D000101010101010101011111111111D33312
:100D7D0003033F3F000000000000000000000000E2
:100D8D000000000000000000000000000000000056
:100D9D000000000000000000000000000000000046
:100DAD00000000000000000000000000E0E0000076
:100DBD007F01010101010100007F000001061806FD
:100DCD000100007F0000000040407F404000000017
:100DDD001F2040404040201F0000000040407F4049
:100DED004000000000600000000040300C030000D7
:100DFD000000E0E000000000000000000000000026
:100E0D0000000000000000000000000000000000D5
:100E1D0000000000000000000000000000000000C5
:100E2D00000000000000000000000000070706069B
:100E3D000606040404844444448404048444444461
:100E4D008404040484C404040404844444448404D5
:100E5D0004040404844444448404040404048444C5
:100E6D004444840404844444448404040404060671
:100E7D00060607070000000000000000000000004B
:100E8D000000000000000000000000000000000055
:100E9D000000000000000000000000000000000045
:100EAD000000000000000000000000000000000035
:100EBD000000000000101814121100000F10101087
:100ECD000F000000101F10000000081012120D007E
:100EDD00001800000D1212120D000018000010185D
:100EED00141211000010181412110000000000005F
:100EFD0000000000000000000000000000000000E5
:100F0D0000000000000000000000000000000000D4
:100F1D0000000000000000000000000000000000C4
:100F2D0000000000000000000000000000000000B4
:100F3D0000000000000000000000000000000000A4
:100F4D000000000000000000000000008080808094
:100F5D008080808000000000000000000000000084
:100F6D000000000000000000000000000000000074
:100F7D000000000000000000000000000000000064
:100F8D000000000000000000000000000000000054
:100F9D00007F030C300C037F0000385454580000C0
:100FAD007C04047800003C40407C00000000000000
:100FBD000000000000000000000000000000000024
:100FCD00000000000000000000000000FFAAAAAA17
:100FDD00280800FF000000000000000000000000D5
:100FED0000000000000000000000000000000000F4
:100FFD000000000000000000007F030C300C037F98
:10100D000000264949493200007F020408107F0084
:101CF00043B10153B2FE53B1FD43B20243B10443B9
:101D0000B20443B10843B20853C9EF53CAEF53C9F1
:051D1000DF53CADF22D1
:1018CB00121CF0121F1A121EAB121EFF121E9AD2FE
:1018DB00AF121767E4FF121DFBE4FF121C7D30B043
:1018EB001B200A187F147E00121E4530B00ED20A40
:1018FB00E56670047F0180027F008F6620B002C214
:10190B000AE5667019FDFFFE12182AE5636042AF07
:10191B0063EF3395E0FE121682E4F5638033E566E0
:10192B00B4012EC3E56A9464E56964809480402118
:10193B00E4F569F56A74FFFFFE121682E5684567E8
:10194B00700FE56245617009E56545647003121B14
:06195B00B2121C2180887D
:101E2D00759850E4F589758BF4758DFFD28E438EC0
:081E3D0040F523F522C2092241
:080003002009FDD2098F9922AA
:101D15008B1C8A1D891EAB1CAA1DA91E1213796076
:101D250013051EE51E7002051D14F9121379FF1225
:051D3500000380E22222
:03002300020026B2
:10002600C0E0C0D075D000C000C007309904C299A6
:10003600C20930980FC298AF23052374242FF8A65F
:0D0046009953230FD007D000D0D0D0E03266
:081F12008F993099FDC299225C
:101DE100EF1FAC0670011E4C600F000000000000E8
:0A1DF1000000000000000080E7225F
:101E4500AB07AA06EB1BAE0270011A4E60097FE8CC
:081E55007E03121DE180ED2265
:0D1EE800E4F5C7F5C5F5C675C380F5C42245
:101DC60075C78075F50C75C5018FC4EEFF8FC37599
:0B1DD600C65A75C6A500AFC2021EE889
:101C5500A2AFE433F9C2AF75C78075F50C75C5023F
:101C65008FC4EEFF8FC38DC275C65A75C6A5001207
:071C75001EE8E924FF92AF15
:011C7C002245
:101CA400A2AFE433FDC2AF75C78075F50C75C503EB
:101CB4008FC4EEFF8FC375C65A75C6A500121EE801
:051CC400ED24FF92AFCA
:011CC90022F8
:101E8900AB07AA06121DC6EF6D6005AF03121C55FC
:011E99002226
:10005600253032643A253032643A25303264000065
:1000660000000000000000002F000000000700074D
:100076000000147F147F1400242A7F2A1200626471
:1000860008132300364955225000000503000000DE
:10009600001C224100000041221C000014083E08FA
:1000A600140008083E0808000000A06000000808C8
:1000B6000808080000606000000020100804020024
:1000C6003E5149453E0000427F4000004261514991
:1000D60046002141454B31001814127F1000274578
:1000E600454539003C4A494930000171090503007C
:1000F600364949493600064949291E000036360068
:1001060000000056360000000814224100001414B6
:1001160014141400004122140800020151090600BB
:10012600324959513E007C1211127C007F494949DF
:1001360036003E41414122007F4141221C007F4959
:10014600494941007F09090901003E4149497A00B0
:100156007F0808087F0000417F4100002040413FA2
:1001660001007F08142241007F40404040007F028A
:100176000C027F007F0408107F003E4141413E0093
:100186007F09090906003E4151215E007F091929B0
:10019600460046494949310001017F0101003F40BF
:1001A60040403F001F2040201F003F4038403F0096
:1001B6006314081463000708700807006151494575
:1001C6004300007F41410000552A552A5500004151
:1001D600417F00000402010204004040404040000C
:1001E6000001020400002054545478007F4844441F
:1001F6003800384444442000384444487F0038548A
:1002060054541800087E0901020018A4A4A47C0016
:100216007F080404780000447D4000004080847D0F
:1002260000007F102844000000417F4000007C044D
:10023600180478007C0804047800384444443800E4
:10024600FC242424180018242418FC007C08040428
:100256000800485454542000043F444020003C40C9
:1002660040207C001C2040201C003C4030403C00CC
:100276004428102844001CA0A0A07C004464544CD0
:1002860044141414141414000000000000000000AC
:1002960000000000000000000000F8000000000060
:1002A6000000333000000000100C06100C060000A1
:1002B6000000000000000040C07840C07840000404
:1002C6003F04043F040400007088FC08300000006E
:1002D6001820FF211E0000F008F000E018000000C2
:1002E600211C031E211E0000F00888700000001E5D
:1002F6002123241927211010160E000000000000EB
:1003060000000000000000000000E01804020000E9
:100316000000071820400000020418E0000000005A
:1003260040201807000000404080F0804040000256
:1003360002010F01020200000000F00000000001AF
:1003460001011F0101010000000000000000008003
:10035600B070000000000000000000000000000077
:100366000101010101010100000000000000000080
:10037600303000000000000000000080601804001B
:100386006018060100000000E010080810E00000F8
:100396000F102020100F00001010F80000000000C1
:1003A60020203F2020000000700808088870000008
:1003B6003028242221300000300888884830000088
:1003C60018202020110E000000C02010F8000000A8
:1003D600070424243F240000F80888880808000041
:1003E60019212020110E0000E01088881800000056
:1003F6000F112020110E0000380808C83808000028
:1004060000003F00000000007088080888700000A7
:100416001C222121221C0000E010080810E0000028
:1004260000312222110F00000000C0C000000000B1
:1004360000003030000000000000800000000000D6
:1004460000806000000000000080402010080000CE
:100456000102040810200040404040404040000493
:100466000404040404040000081020408000000076
:1004760020100804020100007048080808F0000077
:1004860000003036010000C030C828E810E0000740
:1004960018272423140B000000C038E000000020B9
:1004A6003C23020227382008F8888888700000203C
:1004B6003F202020110E00C0300808080838000729
:1004C6001820202010080008F808080810E000206E
:1004D6003F202020100F0008F88888E80810002028
:1004E6003F20202320180008F88888E808100020FC
:1004F6003F200003000000C030080808380000074D
:10050600182020221E020008F808000008F808201B
:100516003F210101213F20000808F80808000000DB
:1005260020203F2020000000000808F8080800C02E
:100536008080807F00000008F888C0281808002006
:100546003F20012638200008F8080000000000209F
:100556003F20202020300008F8F800F8F808002096
:100566003F003F003F200008F830C00008F8082090
:100576003F200007183F00E01008080810E0000FB1
:1005860010202020100F0008F808080808F00020A6
:100596003F210101010000E01008080810E0000FEB
:1005A60018242438504F0008F8888888887000205E
:1005B6003F2000030C30200070880808083800002F
:1005C60038202121221C00180808F8080818000005
:1005D60000203F2000000008F808000008F8080086
:1005E6001F202020201F000878880000C838080037
:1005F6000007380E010000F80800F80008F80003AC
:100606003C0700073C03000818688080681808202B
:10061600302C03032C30200838C800C838080000E6
:1006260000203F2000000010080808C838080020F5
:1006360038262120201800000000FE0202020000D9
:1006460000007F40404000000C30C0000000000069
:100656000000010638C00000020202FE0000000091
:100666004040407F00000000000402020204000037
:1006760000000000000000000000000000000080F4
:1006860080808080808080000202040000000000DC
:100696000000000000000000008080808000000054
:1006A60019242222223F2008F80080800000000042
:1006B6003F112020110E0000000080808000000005
:1006C6000E112020201100000000808088F8000014
:1006D6000E112020103F2000008080808000000046
:1006E6001F222222221300008080F08888881800AA
:1006F60020203F20200000000080808080800000B5
:100706006B94949493600008F80080808000002029
:100716003F210000203F2000809898000000000044
:1007260020203F2020000000000080989800000054
:10073600C08080807F000008F80000808080002054
:100746003F24022D302000000808F80000000000B9
:1007560020203F2020000080808080808080002034
:100766003F20003F20003F808000808080000020E6
:100776003F210000203F2000008080808000000094
:100786001F202020201F0080800080800000008025
:10079600FFA12020110E0000000080808080000054
:1007A6000E112020A0FF80808080008080800020A5
:1007B600203F212000010000008080808080000012
:1007C60033242424241900008080E0808000000067
:1007D60000001F20200000808000000080800000B4
:1007E6001F202020103F2080808000008080800015
:1007F600010E300806010080800080008080800F96
:10080600300C030C300F00008080008080800000D8
:1008160020312E0E31200080808000008080808074
:10082600818E701806010000808080808080000024
:1008360021302C2221300000000000807C020200C2
:10084600000000003F404000000000FF00000000E4
:10085600000000FF0000000002027C800000000093
:1008660040403F00000000000601010202040400AF
:10087600000000000000000000F010101010FF1033
:10088600101010F000000000000F04040404FF0420
:100896000404040F0000004040405F55555575554F
:1008A60055555F404040000040200F0949897909AD
:1008B60009090F2040000000FE02424ACA4A4ACAFD
:1008C6004A4A4202FE000000FF40504C4340404F5F
:1008D60050505C40FF00000000F888888888FF8838
:1008E600888888F800000000001F080808087F882C
:1008F6008888889F80F00080828282828282E2A23B
:10090600928A8682808000000000000040807F007E
:1009160000000000000000101010FF1090088888EA
:1009260088FF88888808000444827F0180804043CD
:100936002C1028468180000010101010D030FF3097
:10094600D0121C1010000010080402010000FF0065
:10095600000102040810000000C0A0E0E0E0E0E0B2
:10096600E0E0E0E0E0A0E000007F7F3F0000000064
:10097600000000003F7F3F0000FFFFFE8080808078
:1009860080808080FEFFFF00000302030303030351
:100996000303030303020100000080C0E00000001F
:1009A600000000000000000000003F7F7F00000004
:1009B60000000000000000000000FEFFFE00000036
:1009C600000000000000000000000001030000001D
:1009D600000000000000000000002060E0E0E0E011
:1009E600E0E0E0E0E0A0C0000000008080808080C1
:1009F60080808080BF7F7F0000FEFF7F83838383AC
:100A0600838383838301000000010203030303033E
:100A16000303030303020000002060E0E0E0E0E0DF
:100A2600E0E0E0E0E0A0C000000080808080808000
:100A3600808080803F7F7F000000038383838383E1
:100A4600838383837FFFFF00000203030303030303
:100A5600030303030302010000E0C080000000005E
:100A6600000000008080C000007F7FBF8080808003
:100A760080808080BF7F7F000000010303030303A3
:100A860003030303FFFFFE00000000000000000058
:100A9600000000000001030000C0A060E0E0E0E00C
:100AA600E0E0E0E0E0200000007F7FBF8080808003
:100AB60080808080800000000000010383838383A0
:100AC60083838383FFFFFE00000002030303030307
:100AD600030303030302010000C0A0E0E0E0E0E03E
:100AE600E0E0E0E0E0200000007F7FBF80808080C3
:100AF600808080808000000000FFFF7F83838383E7
:100B060083838383FFFFFF000001020303030303C4
:100B16000303030303020300002060E0E0E0E0E0DB
:100B2600E0E0E0E0E0A0C0000000000000000000FF
:100B3600000000003F7F7F00000000000000000072
:100B460000000000FEFFFE000000000000000000A4
:100B5600000000000001030000C0A0E0E0E0E0E0CB
:100B6600E0E0E0E0E0A0E000007F7FBF80808080E2
:100B760080808080BF7F3F0000FFFF7F8383838369
:100B860083838383FFFFFF00000102030303030344
:100B9600030303030302030000C0A0E0E0E0E0E07B
:100BA600E0E0E0E0E0A0C000007F7FBF80808080C2
:100BB60080808080BF7F7F00000001038383838362
:100BC60083838383FFFFFF00000002030303030305
:100BD60003030303030201000000000000000000FD
:100BE60000000000000000000000000000000707F1
:100BF6000700000000000000000000000000C0C068
:100C0600C00000000000000000000000000001011C
:070C160001000000000000D6
:101DFB008F08E5087006FD7FA6121BF8E508B401F5
:091E0B0007E4FD7FA7121BF82279
:101C7D008F08E508700DFD7FC8121BF8E4FD7FA1EC
:101C8D00121BF8E508B4010EE4FD7FC0121BF8E449
:071C9D00FD7FA0121BF822DD
:081F09007F01AE071FEE70FA24
:011F110022AD
:0F1EBC00D2B2D2B3121F09C2B2121F09C2B3228F
:0A1EF500C2B2D2B3121F09D2B2220A
:0F1ECB00D2B2121F09D2B3121F09C2B3021F09EC
:021D5E00AD07CF
:101D6000E4FCC2B3ED30E704D2B28002C2B2121F6B
:101D700009D2B3121F09C2B3ED25E0FD0CBC08E285
:011D80002240
:0D1BEB00121BF8E4FDFF121BF8E4FD7F1053
:101BF800AB05AA07121EBC7F78121D5E121ECBEB26
:101C080060047F408002E4FF121D5E121ECBAF020B
:091C1800121D5E121ECB021EF526
:101DA400A907ED24B0FFE4FD121BF8E954F0C45474
:101DB4000F4410FFE4FD121BF8E9540FFFE4FD0289
:021DC4001BF80A
:10000E00E4FD7F8D121BF8E4FD7F14121BF8E4FD56
:05001E007FAF021BF89A
:0E1EDA00E4FD7F8D121BF1E4FD7FAE021BF8CC
:101D8100E4F9E924B0FFE4FD121BEBE4F5087D0161
:101D9100E4FF121BF80508E508C3948040F009B977
:021DA10008E058
:011DA300221D
:04159C008F0F8D1010
:1015A000E4F513E512C313FDF514E4F515F516E59E
:1015B00012B408087517007518068029E512131370
:1015C00013541FFF7E00E512540760059000018050
:1015D00003900000E5822FFFE5833EFE7C0012139E
:1015E000BF8E178F18EB24E0F513AD10AF0F121D4F
:1015F000A4E4F515F516C3E5169518E515951740FD
:1016000003021681E514FD7C00AE15AF161213D14E
:10161000ED4C700FE51264086009AD100510AF0FB6
:10162000121DA4E512B4081075F006E513A4246594
:10163000F582E5F034008028E512B4101075F01042
:10164000E513A4248DF582E5F034028013E512B48D
:10165000202F75F040E513A4245DF582E5F03405F4
:10166000F583E5822516F582E5833515F583E49348
:10167000FF7D01121BF80516E5167002051502150F
:01168000F673
:011681002246
:041E5D008F1FA90525
:101E61007F017E00AD0119ED6009AD1F7C001213E9
:031E7100BF80F13E
:011E7400224B
:081A78008F4F8D508A518B52F3
:101A8000E4F557F558E554B40803755702E4F555E5
:101A9000E555C395535069C3E553955514FD7F0A29
:101AA000121E5DAC51AD52CFCDCFCECCCE1213D1E4
:101AB0007C007D0A1213D18D56E5587025E553142C
:101AC000FFE555C39F501BE5567014E554C313251D
:101AD000578555F0A4254FFF8554127B208018753B
:101AE0005801E554C31325578555F0A4254FFFE54C
:101AF000562430FB855412AD5012159C055580902C
:011B000022C2
:0A1B69008F088D098B0A8A0B890C86
:101B7300E4F50EAB0AAA0BA90C850E82758300123D
:101B83001392602AAF0E050E8F8275830012139293
:101B9300FB850D12AD09AF0812159CE50DB40804C1
:0E1BA30074068004E50DC3132508F50880C5FF
:011BB1002211
:0619ED008F598D5A8B5B3F
:1019F300E55C131313541FFF7E00E55C54077C0062
:101A030060047D0180027D00ED2FFFEC3EFEAD5CA6
:101A13007C001213BF8E5F8F60E4F55DF55EC3E556
:101A23005E9560E55D955F504BE55CFD7C00AE5DCA
:101A3300AF5E1213D1ED4C7009AD5A055AAF59126E
:101A43001DA4E55CB4102DE55BC43354E0247DF59F
:101A530082E43408F583E582255EF582E583355D0E
:101A6300F583E493FF7D01121BF8055EE55E70AE1E
:041A7300055D80AAE3
:011A7700224C
:061B01008F448D458B4668
:101B0700E4F54BF54CE547131313541FFFE5475412
:101B17000760047E0180027E00EF2EF547E4F54D55
:101B2700E54DC39547503AE54D2545FDAF44121D98
:101B3700A4E4F54EE54EC395465022AB48AA49A901
:101B47004A054CE54CAE4B7002054B14F5828E836B
:101B5700121392FF7D01121BF8054E80D7054D80A9
:011B6700BFBE
:011B6800225A
:10176700C2927FC87E00121E45D292E4FD7FAE1260
:101777001BEBE4FD7F40121BF8E4FD7F81121BF891
:10178700E4FD7FCF121BF8E4FD7FA1121BF8E4FDF7
:101797007FC8121BF8E4FD7FA6121BF8E4FD7FA8A3
:1017A700121BF8E4FD7F3F121BF8E4FD7FD3121BE9
:1017B700F8E4FDFF121BF8E4FD7FD5121BF8E4FDEA
:1017C7007F80121BF8E4FD7FD9121BF8E4FD7FF13F
:1017D700121BF8E4FD7FDA121BF8E4FD7F12121BDF
:1017E700F8E4FD7FDB121BF8E4FD7F40121BF8E4F1
:1017F700FD7F20121BF8E4FD7F02121BF8E4FD7F3A
:101807008D121BF8E4FD7F14121BF8E4FD7FA41270
:101817001BF8E4FD7FA6121BF8121D81E4FD7FAFC4
:03182700021BF8A9
:041682008E088F0936
:10168600AE61AF627C007D3C1213BFAA06AB07AE0B
:1016960067AF687C0E7D101213BFEF2BFFEE3AFE8C
:1016A600E5652FFFE5643EFE3395E08F0D8E0CF564
:1016B6000BF50AAE08EE3395E0FDFCE50D2509F5C0
:1016C6000DE50C3EF50CE50B3DF50BE50A3CF50A80
:1016D600E4FFFEFDFCAB0DAA0CA90BA80AC312156C
:1016E600435009E4F50DF50CF50BF50AE47F807E11
:1016F60051FDFCAB0DAA0CA90BA80AC31215434059
:1017060009E4F50DF50CF50BF50AE47B107A0EF9F4
:10171600F8AF0DAE0CAD0BAC0A1214B18E678F6824
:10172600E47B107A0EF9F8AF0DAE0CAD0BAC0A12D5
:1017360014B1AC00AD01AE02AF03E47B3CFAF9F89C
:101746001214B18E618F62E47B3CFAF9F8AF0DAEEC
:101756000CAD0BAC0A1214B1AE02AF038E648F65EA
:011766002260
:101C2100750BFF750C00750D5685670E85680F8560
:101C310061108562118564128565137B007A0079D4
:101C4100341210797B007A007934750D207D02E41D
:041C5100FF021B690A
:0A1EFF0053B1FD43B20243A21022CA
:101E9A00E4F5D8F5D9F5E9F5F975DA42F5F2D2DEC5
:011EAA002215
:06182A008D0AAB07AA06BF
:10183000E4750EC0750DA8F50CF50BEB4A6004E5D8
:101840000A700975FAFF75EAFFC2DE22E4F9F8AF03
:101850000EAE0DAD0CAC0B1214B18F128E118D109B
:101860008C0FE47FFFFEFDFCAB12AA11A910A80F9C
:10187000D3121543400AE47512FFF511F510F50F68
:10188000E47F0AFEFDFCAB12AA11A910A80FC31237
:101890001543500AE475120AF511F510F50FE4F539
:1018A000F2C37464950AFFE49400FE3395E0FDFCF6
:1018B000AB12AA11A910A80F121426E47B64FAF93E
:0A18C000F81214B18FFA8FEAD2DE9D
:0118CA0022FB
:0A1CCA007F937B2C7A017D5A7E0285
:101CD4008A088B0912182AAF09AE08121E45E4FDC2
:0C1CE400FFFE12182A7F0A7E00021E4537
:101BB2007F0B121CCC7B2C7A017D5A7F4B7E02124A
:101BC2001CD4121CCA7B2C7A017D5A7F107E031210
:101BD2001CD4121CCA7B587A027D5A7F107E0312D3
:091BE2001CD47FF47E01021E45B3
:101E1400026700000261000002640000016300C167
:041E24000A01660049
:041F1A00758F10228D
:03005300021E7515
:101E7500C0E0E566700B30CD0575630A80037563B8
:041E8500F6D0E03281
:041E2800026900004B
:101EAB005389F0438901758CEEE4F58AD2A9D28C63
:011EBB002204
:03000B00021D3A99
:101D3A00C0E0C0D0758CEE758A00E566B4010A056C
:101D4A006AE56A700A05698006756900756A00D0D5
:041D5A00D0D0E032D3
:10196D000218CBE493A3F8E493A34003F68001F2AD
:10197D0008DFF48029E493A3F85407240CC8C3337B
:10198D00C4540F4420C8834004F456800146F6DF4A
:10199D00E4800B0102040810204080901E14E47EA8
:1019AD00019360BCA3FF543F30E509541FFEE4933F
:1019BD00A360010ECF54C025E060A840B8E493A306
:1019CD00FAE493A3F8E493A3C8C582C8CAC583CA31
:1019DD00F0A3C8C582C8CAC583CADFE9DEE780BEE9
:011E2C0000B5
:10137900BB010689828A83E0225002E722BBFE0272
:09138900E32289828A83E49322A5
:10139200BB010CE58229F582E5833AF583E0225010
:1013A20006E92582F8E622BBFE06E92582F8E2225A
:0D13B200E58229F582E5833AF583E4932274
:1013BF00EF8DF0A4A8F0CF8CF0A428CE8DF0A42E42
:0213CF00FE22FC
:1013D100BC000BBE0029EF8DF084FFADF022E4CC00
:1013E100F875F008EF2FFFEE33FEEC33FCEE9DECC9
:1013F100984005FCEE9DFE0FD5F0E9E4CEFD22ED0F
:10140100F8F5F0EE8420D21CFEADF075F008EF2F58
:10141100FFED33FD4007985006D5F0F222C398FD49
:051421000FD5F0EA22E6
:10142600E88FF0A4CC8BF0A42CFCE98EF0A42CFC65
:101436008AF0EDA42CFCEA8EF0A4CDA8F08BF0A4E3
:101446002DCC3825F0FDE98FF0A42CCD35F0FCEB42
:101456008EF0A4FEA9F0EB8FF0A4CFC5F02ECD3907
:0F146600FEE43CFCEAA42DCE35F0FDE43CFC2274
:1014750075F008758200EF2FFFEE33FECD33CDCC2E
:1014850033CCC58233C5829BED9AEC99E5829840B1
:101495000CF582EE9BFEED9AFDEC99FC0FD5F0D68E
:1014A500E4CEFBE4CDFAE4CCF9A88222B800C1B9B8
:1014B5000059BA002DEC8BF084CFCECDFCE5F0CBF6
:1014C500F97818EF2FFFEE33FEED33FDEC33FCEB2F
:1014D50033FB10D703994004EB99FB0FD8E5E4F9EA
:1014E500FA227818EF2FFFEE33FEED33FDEC33FCD7
:1014F500C933C910D7059BE99A4007EC9BFCE99ACB
:10150500F90FD8E0E4C9FAE4CCFB2275F010EF2F0F
:10151500FFEE33FEED33FDCC33CCC833C810D7070F
:101525009BEC9AE899400AED9BFDEC9AFCE899F84A
:0E1535000FD5F0DAE4CDFBE4CCFAE4C8F922DD
:10154300EB9FF5F0EA9E42F0E99D42F0E89C45F0FE
:011553002275
:10101D00E517240BF8E60517227808300702780B40
:10102D00E475F0011215660213792000EB7F2ED2C4
:10103D00008018EF540F2490D43440D4FF30040BAB
:10104D00EF24BFB41A0050032461FFE518600215A8
:10105D0018051BE51B7002051A30070D7808E4759D
:10106D00F001121566EF021554021F127403D20718
:10107D008003E4C207F5178B088A09890AE4F5187D
:10108D00F51AF51BE51860077F2012105880F575CD
:10109D0019FFC201C200C202C203C205C206C208C4
:1010AD00121026FF700D3007057F00121069AF1B5F
:1010BD00AE1A22B4255FC2D5C204121026FF24D069
:1010CD00B40A00501A75F00A781830D50508B6FF25
:1010DD000106C6A426F620D5047002D20380D924B9
:1010ED00CFB41A00EF5004C2E5D204021269D20146
:1010FD0080C6D20080C0D20280BCD2D580BAD205C3
:10110D0080B47F201210582002077401B5180040DA
:10111D00F112101DFF121058021091D208D2068044
:10112D009512101DFB12101DFA12101DF94A4B706D
:10113D0006793A7A137BFF20022EE518602A7E008D
:10114D008E8275830012139260060EEE651970F093
:10115D00C2D5EBC0E0EAC0E0E9C0E0EE1212B0D0BB
:10116D00E0F9D0E0FAD0E0FB121379FF60AAEBC0F2
:10117D00E0EAC0E0E9C0E0121058D0E02401F9D057
:10118D00E03400FAD0E0FBE5190460DCD519D98014
:10119D00877BFF7A1279ACD202809C79108002791C
:1011AD0008C206C2088008D2D5790A8004790AC21D
:1011BD00D5E519047002F519E4FAFDFEFF12101DB4
:1011CD00FC7B0820011312101DFD7B1030000A124C
:1011DD00101DFE12101DFF7B20EC3382D592D550D1
:1011ED0013C3E43000069FFFE49EFEE42001039D3F
:1011FD00FDE49CFCE4CBF8C201EC700CCFCECDCC61
:10120D00E824F8F870F38017C3EF33FFEE33FEEDEB
:10121D0033FDEC33FCEB33FB994002FB0FD8E9EBCC
:10122D00300105F8D0E0C448B201C0E00AEC4D4EE3
:10123D004F78207B0070C2EAB5190040BCC0E012A7
:10124D0012B2D0F0D0E0200104C4C0E0C4B201C09D
:10125D00F0121041D0F0D5F0EB021091121576116D
:10126D002E5311A85810FF4C10FB4211AC4F11B466
:0F127D004411B44911144311BA55119E46119EE4
:10128C0045119E47135A5011032D11072E112A2B6D
:10129C00110B2311282013432A10C34800001122DC
:1012AC003F3F3F00790AA2D5200314300509B9103D
:1012BC00020404B9080104A2D5200602500104203E
:1012CC0002689202B518005034C0E07F2030031938
:1012DC007F30A20272067205500F121309C202C2AD
:1012EC0006C205C2087F30800F300503E9C0E0124A
:1012FC001058300503D0E0F9D0E0B518CC30051704
:10130C007F30B9100C1210587F583004077F78804A
:10131C0003B908031210583002057F2D0210587FB4
:10132C00202008F87F2B2006F322920280CF286E13
:10133C00756C6C2900D20112101D3001F8C20178B5
:10134C001830D50108F60210C32D5043495812101D
:10135C001D2403B405004001E49013559312104969
:0D136C00743A121049D2037518040211A83A
:10155400BB010689828A83F0225002F722BBFE0176
:02156400F32270
:10156600FAE6FB0808E6F925F0F618E6CA3AF62286
:10157600D083D082F8E4937012740193700DA3A304
:1015860093F8740193F5828883E473740293686018
:06159600EFA3A3A380DF18
:00000001FF
