:030000000217B82C
:0C17B800787FE4F6D8FD75815C0217FF15
:100BDE0073797374656D206F6B21200D0A003133AC
:100BEE003A30353A3433000003050911FF118905F7
:100BFE00C300E000F000F8000000000000004428F0
:100C0E00FF11AA44000000000000000000000000D8
:100C1E0000000000000000000000000000000000C6
:100C2E0000000000000000000000000000000000B6
:100C3E0000000000000000000000000000000000A6
:100C4E0000830138448292927401830000000000F8
:100C5E0000007C44FF017D7D7D017D7D7D7D017DDC
:100C6E007D7D7D7D01FF0000000000000100010080
:100C7E000100010001000100000000000000000062
:100C8E000101000000000000000000000000000054
:100C9E000000000000000000000000000000000046
:100CAE000000000000000000000000000000000036
:100CBE000000000000000000000000000000000026
:100CCE000001010000000000000101000000000012
:100CDE0000000000010101010101010101010101FA
:100CEE0001010101010100000000000000000000F0
:100CFE0000000000000000000000000000000000E6
:100D0E000000003F3F0303F31311111111111101E4
:100D1E00F1116181010101816111F10101010141B5
:100D2E0041F10101010101C1211111111121C10175
:100D3E000101014141F10101010101010101010125
:100D4E001111111111D33303033F3F0000000000B6
:100D5E000000000000000000000000000000000085
:100D6E000000000000000000000000000000000075
:100D7E000000000000000000000000000000000065
:100D8E00000000E0E000007F010101010101000010
:100D9E007F0000010618060100007F0000000040E1
:100DAE00407F40400000001F2040404040201F0078
:100DBE0000000040407F4040000000006000000046
:100DCE000040300C0300000000E0E00000000000D6
:100DDE000000000000000000000000000000000005
:100DEE0000000000000000000000000000000000F5
:100DFE0000000000000000000000000000000000E5
:100E0E000000000707060606060404048444444452
:100E1E00840404844444448404040484C404040404
:100E2E0004844444448404040404048444444484F4
:100E3E000404040404844444448404048444444464
:100E4E0084040404040606060607070000000000DA
:100E5E000000000000000000000000000000000084
:100E6E000000000000000000000000000000000074
:100E7E000000000000000000000000000000000064
:100E8E000000000000000000000000001018141206
:100E9E001100000F1010100F000000101F100000A6
:100EAE0000081012120D00001800000D1212120D83
:100EBE00000018000010181412110000101814125F
:100ECE001100000000000000000000000000000003
:100EDE000000000000000000000000000000000004
:100EEE0000000000000000000000000000000000F4
:100EFE0000000000000000000000000000000000E4
:100F0E0000000000000000000000000000000000D3
:100F1E0000000000000000000000000000000000C3
:100F2E0000000080808080808080800000000000B3
:100F3E0000000000000000000000000000000000A3
:100F4E000000000000000000000000000000000093
:100F5E000000000000000000000000000000000083
:100F6E0000000000000000007F030C300C037F0027
:100F7E00003854545800007C04047800003C404073
:100F8E007C000000000000000000000000000000D7
:100F9E000000000000000000000000000000000043
:100FAE00000000FFAAAAAA280800FF000000000007
:100FBE000000000000000000000000000000000023
:100FCE000000000000000000000000000000000013
:100FDE007F030C300C037F00002649494932000084
:070FEE007F020408107F00E0
:03001E00011F209F
:101A090053B1FD43B20243B10443B20443B10843A5
:101A1900B208121C3D12165AE4FF121C24E4FF12EC
:101A29001B0A7BFF7A0B79DE1210577BFF7A0B7941
:0D1A3900EC750D207D02E4FF1219C080EE57
:101C3D00759850E4F589758BCC758DFFD28E438EDA
:081C4D0040F523F522C2092233
:081D12002009FDD2098F99227E
:101B7D008B1C8A1D891EAB1CAA1DA91E1213516038
:101B8D0013051EE51E7002051D14F9121351FF12E7
:051B9D001D1280E22290
:03002300021AB509
:101AB500C0E0C0D075D000C000C007309904C299FD
:101AC500C20930980FC298AF23052374242FF8A6B6
:0D1AD5009953230FD007D000D0D0D0E032BD
:081D1A008F993099FDC2992256
:101C0A00EF1FAC0670011E4C600F000000000000C0
:0A1C1A000000000000000080E72237
:101C5500AB07AA06EB1BAE0270011A4E60097FE8BE
:081C65007E03121C0A80ED222F
:0D1CE800E4F5C7F5C5F5C675C380F5C42247
:1000030075C78075F50C75C5018FC4EEFF8FC37579
:0B001300C65A75C6A500AFC2021CE86B
:101AE200A2AFE433F9C2AF75C78075F50C75C502B4
:101AF2008FC4EEFF8FC38DC275C65A75C6A500127C
:071B02001CE8E924FF92AF8B
:011B090022B9
:101B3100A2AFE433FDC2AF75C78075F50C75C5035F
:101B41008FC4EEFF8FC375C65A75C6A500121CE877
:051B5100ED24FF92AF3E
:011B5600226C
:101C9A00AB07AA06120003EF6D6005AF03121AE242
:011CAA002217
:100026000000000000000000002F00000000070094
:10003600070000147F147F1400242A7F2A1200620E
:1000460064081323003649552250000005030000BA
:1000560000001C224100000041221C000014083E42
:1000660008140008083E0808000000A06000000808
:10007600080808080000606000000020100804025C
:10008600003E5149453E0000427F4000004261511A
:100096004946002141454B31001814127F100027B4
:1000A60045454539003C4A49493000017109050377
:1000B60000364949493600064949291E00003636A8
:1000C600000000005636000000081422410000140B
:1000D60014141414000041221408000201510906E8
:1000E60000324959513E007C1211127C007F494969
:1000F6004936003E41414122007F4141221C007F9A
:1001060049494941007F09090901003E4149497AA7
:10011600007F0808087F0000417F41000020404121
:100126003F01007F08142241007F40404040007F8D
:10013600020C027F007F0408107F003E4141413ED1
:10014600007F09090906003E4151215E007F091919
:1001560029460046494949310001017F0101003F16
:100166004040403F001F2040201F003F4038403F96
:1001760000631408146300070870080700615149FA
:10018600454300007F41410000552A552A5500008D
:1001960041417F000004020102040040404040400B
:1001A600000001020400002054545478007F4844A3
:1001B600443800384444442000384444487F0038DA
:1001C6005454541800087E0901020018A4A4A47C03
:1001D600007F080404780000447D400000408084CD
:1001E6007D00007F102844000000417F4000007C15
:1001F60004180478007C0804047800384444443821
:1002060000FC242424180018242418FC007C08046C
:10021600040800485454542000043F444020003C45
:100226004040207C001C2040201C003C4030403CCC
:10023600004428102844001CA0A0A07C004464545C
:100246004C441414141414140000000000000000A0
:100256000000000000000000000000F800000000A0
:10026600000000333000000000100C06100C0600E1
:10027600000000000000000040C07840C078400048
:10028600043F04043F040400007088FC08300000AA
:10029600001820FF211E0000F008F000E018000002
:1002A60000211C031E211E0000F0088870000000BB
:1002B6001E2123241927211010160E00000000000D
:1002C6000000000000000000000000E0180402002A
:1002D600000000071820400000020418E00000009B
:1002E6000040201807000000404080F08040400099
:1002F6000202010F01020200000000F000000000EF
:100306000101011F010101000000000000000000C2
:1003160080B0700000000000000000000000000037
:1003260000010101010101010000000000000000C0
:10033600003030000000000000000000806018045B
:10034600006018060100000000E010080810E00038
:10035600000F102020100F00001010F80000000001
:100366000020203F20200000007008080888700048
:1003760000302824222130000030088888483000C8
:100386000018202020110E000000C02010F80000E8
:1003960000070424243F240000F808888808080081
:1003A6000019212020110E0000E010888818000096
:1003B600000F112020110E0000380808C838080068
:1003C6000000003F000000000070880808887000E8
:1003D600001C222121221C0000E010080810E00069
:1003E6000000312222110F00000000C0C0000000F2
:1003F6000000003030000000000000800000000017
:10040600000080600000000000008040201008000E
:1004160000010204081020004040404040404000D7
:1004260004040404040404000008102040800000B2
:100436000020100804020100007048080808F000B7
:100446000000003036010000C030C828E810E00087
:100456000718272423140B000000C038E000000012
:10046600203C23020227382008F88888887000007C
:10047600203F202020110E00C03008080808380050
:10048600071820202010080008F808080810E000C7
:10049600203F202020100F0008F88888E808100068
:1004A600203F20202320180008F88888E80810003C
:1004B600203F200003000000C03008080838000074
:1004C60007182020221E020008F808000008F80875
:1004D600203F210101213F20000808F808080000FC
:1004E6000020203F2020000000000808F80808002F
:1004F600C08080807F00000008F888C028180800A7
:10050600203F20012638200008F8080000000000DF
:10051600203F20202020300008F8F800F8F80800D6
:10052600203F003F003F200008F830C00008F808D0
:10053600203F200007183F00E01008080810E000E0
:100546000F10202020100F0008F808080808F000F7
:10055600203F210101010000E01008080810E0001A
:100566000F18242438504F0008F8888888887000AF
:10057600203F2000030C302000708808080838004F
:100586000038202121221C00180808F80808180045
:100596000000203F2000000008F808000008F808C6
:1005A600001F202020201F000878880000C8380877
:1005B600000007380E010000F80800F80008F800EF
:1005C600033C0700073C0300081868808068180889
:1005D60020302C03032C30200838C800C838080007
:1005E6000000203F2000000010080808C838080056
:1005F6002038262120201800000000FE02020200FA
:100606000000007F40404000000C30C000000000A9
:10061600000000010638C00000020202FE000000D1
:10062600004040407F000000000004020202040077
:1006360000000000000000000000000000000000B4
:10064600808080808080808000020204000000009C
:100656000000000000000000000080808080000094
:100666000019242222223F2008F800808000000082
:10067600003F112020110E00000000808080000045
:10068600000E112020201100000000808088F80054
:10069600000E112020103F20000080808080000086
:1006A600001F222222221300008080F088888818EA
:1006B6000020203F202000000000808080808000F5
:1006C600006B94949493600008F80080808000008A
:1006D600203F210000203F20008098980000000065
:1006E6000020203F20200000000000809898000095
:1006F60000C08080807F000008F8000080808000B5
:10070600203F24022D302000000808F800000000D9
:100716000020203F20200000808080808080800094
:10072600203F20003F20003F808000808080000026
:10073600203F210000203F200000808080800000B4
:10074600001F202020201F008080008080000000E5
:1007560080FFA12020110E00000000808080800014
:10076600000E112020A0FF80808080008080800005
:1007760020203F2120000100000080808080800032
:100786000033242424241900008080E080800000A7
:100796000000001F202000008080000000808000F4
:1007A600001F202020103F20808080000080808055
:1007B60000010E30080601008080008000808080E5
:1007C6000F300C030C300F0000808000808080000A
:1007D6000020312E0E312000808080000080808035
:1007E60080818E70180601000080808080808000E5
:1007F6000021302C2221300000000000807C020203
:1008060000000000003F404000000000FF00000024
:1008160000000000FF0000000002027C80000000D3
:100826000040403F000000000006010102020404EF
:1008360000000000000000000000F010101010FF83
:1008460010101010F000000000000F04040404FF54
:10085600040404040F0000004040405F55555575E0
:100866005555555F404040000040200F09498979A1
:100876000909090F2040000000FE02424ACA4A4AFE
:10088600CA4A4A4202FE000000FF40504C43404024
:100896004F50505C40FF00000000F888888888FFB1
:1008A60088888888F800000000001F080808087F6C
:1008B600888888889F80F00080828282828282E295
:1008C600A2928A8682808000000000000040807F1D
:1008D6000000000000000000101010FF10900888B3
:1008E6008888FF88888808000444827F01808040C9
:1008F600432C1028468180000010101010D030FFC5
:1009060030D0121C1010000010080402010000FF75
:1009160000000102040810000000C0A0E0E0E0E0D2
:10092600E0E0E0E0E0E0A0E000007F7F3F000000C4
:1009360000000000003F7F3F0000FFFFFE80808038
:100946008080808080FEFFFF000003020303030314
:10095600030303030303020100000080C0E000005C
:1009660000000000000000000000003F7F7F000044
:100976000000000000000000000000FEFFFE000076
:10098600000000000000000000000000010300005D
:1009960000000000000000000000002060E0E0E031
:1009A600E0E0E0E0E0E0A0C00000000080808080A1
:1009B6008080808080BF7F7F0000FEFF7F838383EF
:1009C60083838383838301000000010203030303FF
:1009D600030303030303020000002060E0E0E0E0FD
:1009E600E0E0E0E0E0E0A0C00000008080808080E1
:1009F60080808080803F7F7F000000038383838325
:100A060083838383837FFFFF0000020303030303C3
:100A160003030303030302010000E0C0800000009B
:100A260000000000008080C000007F7FBF808080C3
:100A36008080808080BF7F7F000000010303030366
:100A46000303030303FFFFFE000000000000000095
:100A560000000000000001030000C0A060E0E0E02C
:100A6600E0E0E0E0E0E0200000007F7FBF808080E3
:100A760080808080808000000000000103838383E3
:100A86008383838383FFFFFE0000000203030303C7
:100A960003030303030302010000C0A0E0E0E0E05B
:100AA600E0E0E0E0E0E0200000007F7FBF808080A3
:100AB60080808080808000000000FFFF7F8383832A
:100AC6008383838383FFFFFF000001020303030385
:100AD600030303030303020300002060E0E0E0E0F9
:100AE600E0E0E0E0E0E0A0C0000000000000000060
:100AF60000000000003F7F7F0000000000000000B3
:100B06000000000000FEFFFE0000000000000000E4
:100B160000000000000001030000C0A0E0E0E0E0EB
:100B2600E0E0E0E0E0E0A0E000007F7FBF808080C2
:100B36008080808080BF7F3F0000FFFF7F838383AC
:100B46008383838383FFFFFF000001020303030304
:100B560003030303030302030000C0A0E0E0E0E098
:100B6600E0E0E0E0E0E0A0C000007F7FBF808080A2
:100B76008080808080BF7F7F0000000103838383A5
:100B86008383838383FFFFFF0000000203030303C5
:100B9600030303030303020100000000000000003A
:100BA6000000000000000000000000000000000738
:100BB600070700000000000000000000000000C061
:100BC600C0C000000000000000000000000000019E
:080BD600010100000000000015
:101C24008F08E5087006FD7FA6121A8CE508B4013A
:091C340007E4FD7FA7121A8C22BF
:101B0A008F08E508700DFD7FC8121A8CE4FD7FA1CD
:101B1A00121A8CE508B4010EE4FD7FC0121A8CE497
:071B2A00FD7FA0121A8C22BE
:081D09007F01AE071FEE70FA26
:011D110022AF
:0F1CBC00D2B2D2B3121D09C2B2121D09C2B32295
:0A1CF500C2B2D2B3121D09D2B2220E
:0F1CCB00D2B2121D09D2B3121D09C2B3021D09F4
:021BA200AD078D
:101BA400E4FCC2B3ED30E704D2B28002C2B2121D2B
:101BB40009D2B3121D09C2B3ED25E0FD0CBC08E245
:011BC40022FE
:0D1A7F00121A8CE4FDFF121A8CE4FD7F109A
:101A8C00AB05AA07121CBC7F78121BA2121CCBEB55
:101A9C0060047F408002E4FF121BA2121CCBAF0239
:091AAC00121BA2121CCB021CF556
:101BE800A907ED24B0FFE4FD121A8CE954F0C4549F
:101BF8000F4410FFE4FD121A8CE9540FFFE4FD02B4
:021C08001A8C34
:101C8500E4FD7F8D121A8CE4FD7F14121A8CE4FD9D
:051C95007FAF021A8C74
:0E1CDA00E4FD7F8D121A85E4FD7FAE021A8CA8
:101BC500E4F9E924B0FFE4FD121A7FE4F5087D018C
:101BD500E4FF121A8C0508E508C3948040F009B9A2
:021BE50008E016
:011BE70022DB
:041574008F0F8D1038
:10157800E4F513E512C313FDF514E4F515F516E5C6
:1015880012B408087517007518068029E512131398
:1015980013541FFF7E00E512540760059000018078
:1015A80003900000E5822FFFE5833EFE7C001213C6
:1015B800978E178F18EB24E0F513AD10AF0F121BA1
:1015C800E8E4F515F516C3E5169518E515951740E1
:1015D80003021659E514FD7C00AE15AF161213A9C7
:1015E800ED4C700FE51264086009AD100510AF0FDF
:1015F800121BE8E512B4081075F006E513A42426BA
:10160800F582E5F034008028E512B4101075F0106A
:10161800E513A4244EF582E5F034028013E512B4F4
:10162800202F75F040E513A4241EF582E5F034055B
:10163800F583E5822516F582E5833515F583E49370
:10164800FF7D01121A8C0516E516700205150215A4
:01165800CEC3
:01165900226E
:041C6D008F5CA905DA
:101C71007F017E00AD0119ED6009AD5C7C0012139E
:031C81009780F158
:011C8400223D
:0818CF008F3F8D408A418B42DE
:1018D700E4F547F548E544B40803754702E4F545E0
:1018E700E545C395435069C3E543954514FD7F0A14
:1018F700121C6DAC41AD42CFCDCFCECCCE1213A9C9
:101907007C007D0A1213A98D46E5487025E543142E
:10191700FFE545C39F501BE5467014E544C31325F7
:10192700478545F0A4253FFF8544127B2080187525
:101937004801E544C31325478545F0A4253FFFE546
:10194700462430FB854412AD40121574054580903E
:01195700226D
:0A19C0008F088D098B0A8A0B890C31
:1019CA00E4F50EAB0AAA0BA90C850E8275830012E8
:1019DA00136A602AAF0E050E8F8275830012136A8E
:1019EA00FB850D12AD09AF08121574E50DB4080494
:0E19FA0074068004E50DC3132508F50880C5AA
:011A080022BB
:061844008F528D538B54FE
:10184A00E555131313541FFF7E00E55554077C001A
:10185A0060047D0180027D00ED2FFFEC3EFEAD5558
:10186A007C001213978E588F59E4F556F557C3E545
:10187A00579559E5569558504BE555FD7C00AE569F
:10188A00AF571213A9ED4C7009AD530553AF52125D
:10189A001BE8E555B4102DE554C43354E0243EF555
:1018AA0082E43408F583E5822557F582E5833556C7
:1018BA00F583E493FF7D01121A8C0557E55770AE44
:0418CA00055680AA95
:0118CE0022F7
:061958008F348D358B3643
:10195E00E4F53BF53CE537131313541FFFE53754FD
:10196E000760047E0180027E00EF2EF537E4F53D20
:10197E00E53DC39537503AE53D2535FDAF34121B95
:10198E00E8E4F53EE53EC395365022AB38AA39A9B8
:10199E003A053CE53CAE3B7002053B14F5828E8366
:1019AE0012136AFF7D01121A8C053E80D7053D8009
:0119BE00BF69
:0119BF002205
:10165A00C2927FC87E00121C55D292E4FD7FAE1260
:10166A001A7FE4FD7F40121A8CE4FD7F81121A8CE6
:10167A00E4FD7FCF121A8CE4FD7FA1121A8CE4FDDF
:10168A007FC8121A8CE4FD7FA6121A8CE4FD7FA88B
:10169A00121A8CE4FD7F3F121A8CE4FD7FD3121AD2
:1016AA008CE4FDFF121A8CE4FD7FD5121A8CE4FD3E
:1016BA007F80121A8CE4FD7FD9121A8CE4FD7FF127
:1016CA00121A8CE4FD7FDA121A8CE4FD7F12121AC8
:1016DA008CE4FD7FDB121A8CE4FD7F40121A8CE445
:1016EA00FD7F20121A8CE4FD7F02121A8CE4FD7F22
:1016FA008D121A8CE4FD7F14121A8CE4FD7FA41259
:10170A001A8CE4FD7FA6121A8C121BC5E4FD7FAF6A
:03171A00021A8C24
:0A1CFF0053B1FD43B20243A21022CC
:101CAB00E4F5D8F5D9F5E9F5F975DA42F5F2D2DEB6
:011CBB002206
:06171D008D49AB07AA068E
:10172300754D6C754CDC754B02754A00EB4A6004D1
:10173300E549700775FAFF75EAFF22E4F9F8AF4D42
:10174300AE4CAD4BAC4A1214898F518E508D4F8CD9
:101753004EE4FF7E01FDFCAB51AA50A94FA84ED326
:1017630012151B400AE4F551755001F54FF54EE48F
:101773007F0AFEFDFCAB51AA50A94FA84EC3121518
:101783001B500AE475510AF550F54FF54EC37464C6
:101793009549FFE49400FE3395E0FDFCAB51AA505C
:1017A300A94FA84E1213FEE47B64FAF9F8121489C8
:0417B3008FFA8FEA30
:0117B700220F
:0A1B57007F937B2C7A017D5A7E02F9
:101B61008A5A8B5B12171DAF5BAE5A121C55E4FDEE
:0C1B7100FFFE12171D7F0A7E00021C55AB
:101A46007F0B121B597B2C7A017D5A7F4B7E02122B
:101A56001B61121B577B2C7A017D5A7F107E031265
:101A66001B61121B577B587A027D5A7F107E031228
:091A76001B617FF47E01021C5586
:1017C400021A09E493A3F8E493A34003F68001F218
:1017D40008DFF48029E493A3F85407240CC8C33326
:1017E400C4540F4420C8834004F456800146F6DFF5
:1017F400E4800B010204081020408090001EE47E67
:10180400019360BCA3FF543F30E509541FFEE493E9
:10181400A360010ECF54C025E060A840B8E493A3B0
:10182400FAE493A3F8E493A3C8C582C8CAC583CADB
:10183400F0A3C8C582C8CAC583CADFE9DEE780BE93
:0100210000DE
:10135100BB010689828A83E0225002E722BBFE029A
:09136100E32289828A83E49322CD
:10136A00BB010CE58229F582E5833AF583E0225038
:10137A0006E92582F8E622BBFE06E92582F8E22282
:0D138A00E58229F582E5833AF583E493229C
:10139700EF8DF0A4A8F0CF8CF0A428CE8DF0A42E6A
:0213A700FE2224
:1013A900BC000BBE0029EF8DF084FFADF022E4CC28
:1013B900F875F008EF2FFFEE33FEEC33FCEE9DECF1
:1013C900984005FCEE9DFE0FD5F0E9E4CEFD22ED37
:1013D900F8F5F0EE8420D21CFEADF075F008EF2F81
:1013E900FFED33FD4007985006D5F0F222C398FD72
:0513F9000FD5F0EA220F
:1013FE00E88FF0A4CC8BF0A42CFCE98EF0A42CFC8E
:10140E008AF0EDA42CFCEA8EF0A4CDA8F08BF0A40B
:10141E002DCC3825F0FDE98FF0A42CCD35F0FCEB6A
:10142E008EF0A4FEA9F0EB8FF0A4CFC5F02ECD392F
:0F143E00FEE43CFCEAA42DCE35F0FDE43CFC229C
:10144D0075F008758200EF2FFFEE33FECD33CDCC56
:10145D0033CCC58233C5829BED9AEC99E5829840D9
:10146D000CF582EE9BFEED9AFDEC99FC0FD5F0D6B6
:10147D00E4CEFBE4CDFAE4CCF9A88222B800C1B9E0
:10148D000059BA002DEC8BF084CFCECDFCE5F0CB1E
:10149D00F97818EF2FFFEE33FEED33FDEC33FCEB57
:1014AD0033FB10D703994004EB99FB0FD8E5E4F912
:1014BD00FA227818EF2FFFEE33FEED33FDEC33FCFF
:1014CD00C933C910D7059BE99A4007EC9BFCE99AF3
:1014DD00F90FD8E0E4C9FAE4CCFB2275F010EF2F38
:1014ED00FFEE33FEED33FDCC33CCC833C810D70738
:1014FD009BEC9AE899400AED9BFDEC9AFCE899F873
:0E150D000FD5F0DAE4CDFBE4CCFAE4C8F92205
:10151B00EB9FF5F0EA9E42F0E99D42F0E89C45F026
:01152B00229D
:100FF500E517240BF8E60517227808300702780B69
:10100500E475F00112153E0213512000EB7F2ED23C
:10101500008018EF540F2490D43440D4FF30040BD3
:10102500EF24BFB41A0050032461FFE518600215D0
:1010350018051BE51B7002051A30070D7808E475C5
:10104500F00112153EEF02152C021D1A7403D2078A
:101055008003E4C207F5178B088A09890AE4F518A5
:10106500F51AF51BE51860077F2012103080F5751D
:1010750019FFC201C200C202C203C205C206C208EC
:10108500120FFEFF700D3007057F00121041AF1BD8
:10109500AE1A22B4255FC2D5C204120FFEFF24D0BA
:1010A500B40A00501A75F00A781830D50508B6FF4D
:1010B5000106C6A426F620D5047002D20380D924E1
:1010C500CFB41A00EF5004C2E5D204021241D20196
:1010D50080C6D20080C0D20280BCD2D580BAD205EB
:1010E50080B47F201210302002077401B51800402B
:1010F500F1120FF5FF121030021069D208D20680E6
:1011050095120FF5FB120FF5FA120FF5F94A4B7010
:101115000679127A137BFF20022EE518602A7E00DD
:101125008E8275830012136A60060EEE651970F0E3
:10113500C2D5EBC0E0EAC0E0E9C0E0EE121288D00B
:10114500E0F9D0E0FAD0E0FB121351FF60AAEBC042
:10115500E0EAC0E0E9C0E0121030D0E02401F9D0A7
:10116500E03400FAD0E0FBE5190460DCD519D9803C
:10117500877BFF7A127984D202809C79108002796C
:1011850008C206C2088008D2D5790A8004790AC245
:10119500D5E519047002F519E4FAFDFEFF120FF505
:1011A500FC7B08200113120FF5FD7B1030000A129D
:1011B5000FF5FE120FF5FF7B20EC3382D592D5504B
:1011C50013C3E43000069FFFE49EFEE42001039D67
:1011D500FDE49CFCE4CBF8C201EC700CCFCECDCC89
:1011E500E824F8F870F38017C3EF33FFEE33FEED14
:1011F50033FDEC33FCEB33FB994002FB0FD8E9EBF5
:10120500300105F8D0E0C448B201C0E00AEC4D4E0B
:101215004F78207B0070C2EAB5190040BCC0E012CF
:10122500128AD0F0D0E0200104C4C0E0C4B201C0ED
:10123500F0121019D0F0D5F0EB02106912154E110D
:10124500065311805810D74C10D34211844F118C7E
:0F12550044118C4910EC431192551176461176D5
:101264004511764713325010DB2D10DF2E11022B5F
:1012740010E323110020131B2A109B48000010FACE
:101284003F3F3F00790AA2D5200314300509B91065
:10129400020404B9080104A2D52006025001042066
:1012A40002689202B518005034C0E07F2030031960
:1012B4007F30A20272067205500F1212E1C202C2FE
:1012C40006C205C2087F30800F300503E9C0E01272
:1012D4001030300503D0E0F9D0E0B518CC30051754
:1012E4007F30B9100C1210307F583004077F78809B
:1012F40003B908031210303002057F2D0210307F2D
:10130400202008F87F2B2006F322920280CF286E3B
:10131400756C6C2900D201120FF53001F8C2017806
:101324001830D50108F602109B2D50434958120F6E
:10133400F52403B405004001E490132D9312102109
:0D134400743A121021D203751804021180B2
:10152C00BB010689828A83F0225002F722BBFE019E
:02153C00F32298
:10153E00FAE6FB0808E6F925F0F618E6CA3AF622AE
:10154E00D083D082F8E4937012740193700DA3A32C
:10155E0093F8740193F5828883E473740293686040
:06156E00EFA3A3A380DF40
:00000001FF
