:0300000002030EEA
:0C030E00787FE4F6D8FD75812B0202EB2D
:0A031A0053B1FD43B20243A21022CA
:1002FD00E4F5D8F5D9F5E9F5F975DA42F5F2D2DE7E
:01030D0022CD
:06016D008D23AB07AA067A
:10017300752780752651752501752400EB4A6004A7
:10018300E523700775FAFF75EAFF22E4F9F8AF2754
:10019300AE26AD25AC241200CA8F2B8E2A8D298C56
:1001A30028E4FF7E01FDFCAB2BAA2AA929A828D3AA
:1001B30012015C400AE4F52B752A01F529F528E4C0
:1001C3007F0AFEFDFCAB2BAA2AA929A828C312018A
:1001D3005C500AE4752B0AF52AF529F528C37464E3
:1001E3009523FFE49400FE3395E0FDFCAB2BAA2A94
:1001F300A929A82812003FE47B64FAF9F81200CA7F
:040203008FFA8FEAF5
:0102070022D4
:0402C9007FF47E013F
:1002CD00D3EF9400EE940040147D6E7C00ED1D7014
:0D02DD00011CED4C70F7EF1F70E61E80E372
:0102EA0022F1
:10024A007FF47E011202CD7F937B2C7A017D5A7E48
:01025A0002A1
:10025B008A218B2212016DAF22AE211202CDE4FD59
:0C026B00FFFE12016D7F0A7E000202CD32
:100208007F0B1202531202C97B2C7A017D5A7F4B55
:100218007E0212025B12024A1202C97B2C7A017D0D
:100228005A7F107E0312025B12024A1202C97B58DF
:100238007A027D5A7F107E0312025B7FF47E0102F0
:0202480002CDE5
:1002EB0012031A1202FD1202087FE87E031202CDDE
:0202FB0080F48D
:10000300759850E4F589758BE8758DFFD28E758EE2
:0800130040F509F508C20022C6
:08001B002000FDD2008F9922A4
:1002A4008B1A8A1B891CAB1AAA1BA91C1200266074
:1002B40013051CE51C7002051B14F9120026FF121D
:0502C400001B80E22296
:030023000202775F
:10027700C0E0C0D075D000C000C007309904C29953
:10028700C20030980FC298AF090509740A2FF8A663
:0D0297009953090FD007D000D0D0D0E0322D
:080324008F993099FDC2992266
:10002600BB010689828A83E0225002E722BBFE02D8
:09003600E32289828A83E493220B
:10003F00E88FF0A4CC8BF0A42CFCE98EF0A42CFC60
:10004F008AF0EDA42CFCEA8EF0A4CDA8F08BF0A4DE
:10005F002DCC3825F0FDE98FF0A42CCD35F0FCEB3D
:10006F008EF0A4FEA9F0EB8FF0A4CFC5F02ECD3902
:0F007F00FEE43CFCEAA42DCE35F0FDE43CFC226F
:10008E0075F008758200EF2FFFEE33FECD33CDCC29
:10009E0033CCC58233C5829BED9AEC99E5829840AC
:1000AE000CF582EE9BFEED9AFDEC99FC0FD5F0D689
:1000BE00E4CEFBE4CDFAE4CCF9A88222B800C1B9B3
:1000CE000059BA002DEC8BF084CFCECDFCE5F0CBF1
:1000DE00F97818EF2FFFEE33FEED33FDEC33FCEB2A
:1000EE0033FB10D703994004EB99FB0FD8E5E4F9E5
:1000FE00FA227818EF2FFFEE33FEED33FDEC33FCD2
:10010E00C933C910D7059BE99A4007EC9BFCE99AC5
:10011E00F90FD8E0E4C9FAE4CCFB2275F010EF2F0A
:10012E00FFEE33FEED33FDCC33CCC833C810D7070A
:10013E009BEC9AE899400AED9BFDEC9AFCE899F845
:0E014E000FD5F0DAE4CDFBE4CCFAE4C8F922D8
:10015C00EB9FF5F0EA9E42F0E99D42F0E89C45F0F9
:01016C002270
:00000001FF
