:030000000213F0F8
:0C13F000787FE4F6D8FD758121021437E7
:100056000003050911FF118905C300E000F000F84F
:10006600000000000000004428FF11AA4400000020
:10007600000000000000000000000000000000007A
:10008600000000000000000000000000000000006A
:10009600000000000000000000000000000000005A
:1000A6000000000000000000000083013844829236
:1000B60092740183000000000000007C44FF017D73
:1000C6007D7D017D7D7D7D017D7D7D7D7D01FF00C9
:1000D6000000000000010001000100010001000114
:1000E6000000000000000000000101000000000008
:1000F60000000000000000000000000000000000FA
:1001060000000000000000000000000000000000E9
:1001160000000000000000000000000000000000D9
:1001260000000000000000000000010100000000C7
:1001360000000101000000000000000000010101B4
:10014600010101010101010101010101010101009A
:100156000000000000000000000000000000000099
:100166000000000000000000000000003F3F030305
:10017600F31311111111111101F111618101010125
:10018600816111F1010101014141F1010101010109
:10019600C1211111111121C1010101014141F101D9
:1001A6000101010101010101011111111111D333E5
:1001B60003033F3F000000000000000000000000B5
:1001C6000000000000000000000000000000000029
:1001D6000000000000000000000000000000000019
:1001E600000000000000000000000000E0E0000049
:1001F6007F01010101010100007F000001061806D0
:100206000100007F0000000040407F4040000000E9
:100216001F2040404040201F0000000040407F401B
:100226004000000000600000000040300C030000A9
:100236000000E0E0000000000000000000000000F8
:1002460000000000000000000000000000000000A8
:100256000000000000000000000000000000000098
:10026600000000000000000000000000070706066E
:100276000606040404844444448404048444444434
:100286008404040484C404040404844444448404A8
:100296000404040484444444840404040404844498
:1002A6004444840404844444448404040404060644
:1002B600060607070000000000000000000000001E
:1002C6000000000000000000000000000000000028
:1002D6000000000000000000000000000000000018
:1002E6000000000000000000000000000000000008
:1002F6000000000000101814121100000F1010105A
:100306000F000000101F10000000081012120D0050
:10031600001800000D1212120D000018000010182F
:100326001412110000101814121100000000000031
:1003360000000000000000000000000000000000B7
:1003460000000000000000000000000000000000A7
:100356000000000000000000000000000000000097
:100366000000000000000000000000000000000087
:100376000000000000000000000000000000000077
:100386000000000000000000000000008080808067
:100396008080808000000000000000000000000057
:1003A6000000000000000000000000000000000047
:1003B6000000000000000000000000000000000037
:1003C6000000000000000000000000000000000027
:1003D600007F030C300C037F000038545458000093
:1003E6007C04047800003C40407C000000000000D3
:1003F60000000000000000000000000000000000F7
:10040600000000000000000000000000FFAAAAAAE9
:10041600280800FF000000000000000000000000A7
:1004260000000000000000000000000000000000C6
:100436000000000000000000007F030C300C037F6A
:100446000000264949493200007F020408107F0057
:10156D00C10AC10B44005D00000000440059000099
:10157D000000C10944005100000000440055000066
:02158D0000005C
:1019C60043B10153B2FE53B1FD43B20243B10443E6
:1019D600B20443B10843B20853C9EF53CAEF53C91F
:0519E600DF53CADF22FF
:1014F90030B06E20090BD209121B07900051020C63
:101509007B121B07900051E0F8A3E0F9A3E0FAA3CE
:10151900E0FBC3EF9BFFEE9AFEED99FDEC98FCE42E
:101529007BB07A04F9F8D3120C6A5037900032E094
:1015390070047F0180027F00900032EFF01219756C
:101549007D327FB07E0412129E121B467F647E009C
:10155900121A9A121B3F12178820B0FDC209C20B3A
:0315690022C20992
:01156C00225C
:03110900300D7A2C
:10110C00E4900000F0A3F0A3F0F0900002E0FFC325
:10111C006480948A5029EF3395E0FE74332FF58266
:10112C0074003EF583E0FF3395E0FE900001E02F64
:10113C00F0900000E03EF0900002E004F080CB90D4
:10114C000000E0FAA3E0FBD39400EA6480948040B2
:10115C000C90002C120C8700000001801BC3EA6469
:10116C0080948090002C5009120C87FFFFFFFF80A9
:0A117C0007120C8700000000C20DEE
:10118600900032E0704E90002CE0FCA3E0FDA3E05E
:10119600FEA3E0FFEC4D4E4F603A7D327F787E0530
:1011A60012129E121B467F327E00121A9A121B3FA3
:1011B600E47F0AFEFDFC90002CE0F8A3E0F9A3E032
:1011C600FAA3E0FB120B4D120D1090002C120C87A7
:0511D6000000000022F2
:10164E00900032E064017060121B07900059E0F8C0
:10165E00A3E0F9A3E0FAA3E0FBC3EF9BFFEE9AFE33
:10166E00ED99FDEC98FCE47BE87A03F9F8D3120CC3
:10167E006A5035121B07900059120C7B74FFFFFE47
:10168E00120D1090003DE07002A3E0701B90002937
:10169E00E07002A3E07011900030E07004A3E064EB
:0916AE00017005200A02D20B2292
:100E3E00200003020F34200A0BD20A121B07900067
:100E4E0055120C7B121B07900055E0F8A3E0F9A396
:100E5E00E0FAA3E0FBC3EF9BFFEE9AFEED99FDECEB
:100E6E0098FC900000120C7BE47FFAFEFDFC9000D3
:100E7E0000E0F8A3E0F9A3E0FAA3E0FBC3120C6ACA
:100E8E0050097D327FB07E04020F23E47FF47E0191
:100E9E00FDFC900000E0F8A3E0F9A3E0FAA3E0FB6C
:100EAE00C3120C6A50087D327FE87E038067E47FB0
:100EBE00EE7E02FDFC900000E0F8A3E0F9A3E0FA5C
:100ECE00A3E0FBC3120C6A50087D327F207E0380A4
:100EDE0044E47FE87E03FDFC900000E0F8A3E0F917
:100EEE00A3E0FAA3E0FBC3120C6A50087D327F58D0
:100EFE007E028021E47FE27E04FDFC900000E0F89B
:100F0E00A3E0F9A3E0FAA3E0FBC3120C6A500B7D39
:100F1E00327F907E0112129E8009121B079000559F
:100F2E00120C7B021B46121B3FC20A121B079000BB
:040F3E0055120C7BC1
:010F4200228C
:101878001219C612001E121AD81211DBE4FF121A2E
:1018880049E4FF121922C2B17D327FB07E041212E0
:101898009ED2AF121B07900059120C7B1214F9123A
:1018A800110912164EA20B9200120E3E12178880D2
:0118B800EB44
:101A2D00759850E4F589758BCC758DFFD28E438EEC
:0C1A3D0040900040F090003FF0C20E22EC
:08000300200EFDD20E8F9922A0
:1018EF00900099EBF0A3EAF0A3E9F0900099E0FBE8
:1018FF00A3E0FAA3E0F9120A8A6017900099A3E413
:10190F0075F001120B37A9F0FA120A8AFF120003C1
:03191F0080D9224A
:0300230002183090
:10183000C0E0C083C082C0D075D000C006C00730F1
:101840009904C299C20E309822C298900040E0FFDD
:1018500004F0EF3395E0FE74412FF58274003EF5FD
:1018600083E599F0900040E0540FF0D007D006D007
:08187000D0D082D083D0E03219
:081B37008F993099FDC299223B
:101A8000EF1FAC0670011E4C600F0000000000004C
:0A1A90000000000000000080E722C3
:101A9A00AB07AA06EB1BAE0270011A4E60097FE87B
:081AAA007E03121A8080ED2278
:0D000E00E4F5C7F5C5F5C675C380F5C4223D
:101A650075C78075F50C75C5018FC4EEFF8FC375FD
:0B1A7500C65A75C6A500AFC202000EE5
:10002600A2AFE433FCC2AF75C78075F50C75C50287
:100036008FC4EEFF8FC3AF058FC275C65A75C6A5AE
:0B0046000012000EAF04EF24FF92AF89
:01005100228C
:10199E00A2AFE433FDC2AF75C78075F50C75C503F4
:1019AE008FC4EEFF8FC375C65A75C6A50012000E02
:0719BE00AF05EF24FF92AF1B
:0119C50022FF
:101AC700AB07AA06121A65EF6D6005AF0312002671
:011AD70022EC
:1007BB00253032643A253032643A253032640000F9
:1007CB0000C0A0E0E0E0E0E0E0E0E0E0E0A0E0007E
:1007DB00007F7F3F00000000000000003F7F3F00D4
:1007EB0000FFFFFE8080808080808080FEFFFF0006
:1007FB0000030203030303030303030303020100C8
:10080B00000080C0E00000000000000000000000BD
:10081B0000003F7F7F000000000000000000000090
:10082B000000FEFFFE0000000000000000000000C2
:10083B0000000001030000000000000000000000A9
:10084B0000002060E0E0E0E0E0E0E0E0E0A0C000DD
:10085B00000000808080808080808080BF7F7F0050
:10086B0000FEFF7F83838383838383838301000065
:10087B00000102030303030303030303030200004A
:10088B00002060E0E0E0E0E0E0E0E0E0E0A0C000BD
:10089B000000808080808080808080803F7F7F0010
:1008AB000000038383838383838383837FFFFF0022
:1008BB000002030303030303030303030302010007
:1008CB0000E0C08000000000000000008080C0003D
:1008DB00007F7FBF8080808080808080BF7F7F0093
:1008EB00000001030303030303030303FFFFFE00E5
:1008FB0000000000000000000000000000010300E9
:10090B0000C0A060E0E0E0E0E0E0E0E0E02000001C
:10091B00007F7FBF8080808080808080800000008F
:10092B00000001038383838383838383FFFFFE00A4
:10093B000000020303030303030303030302010089
:10094B0000C0A0E0E0E0E0E0E0E0E0E0E02000005C
:10095B00007F7FBF8080808080808080800000004F
:10096B0000FFFF7F8383838383838383FFFFFF00EA
:10097B000001020303030303030303030302030046
:10098B00002060E0E0E0E0E0E0E0E0E0E0A0C000BC
:10099B000000000000000000000000003F7F7F000F
:1009AB00000000000000000000000000FEFFFE0041
:1009BB000000000000000000000000000001030028
:1009CB0000C0A0E0E0E0E0E0E0E0E0E0E0A0E0007C
:1009DB00007F7FBF8080808080808080BF7F3F00D2
:1009EB0000FFFF7F8383838383838383FFFFFF006A
:1009FB0000010203030303030303030303020300C6
:100A0B0000C0A0E0E0E0E0E0E0E0E0E0E0A0C0005B
:100A1B00007F7FBF8080808080808080BF7F7F0051
:100A2B00000001038383838383838383FFFFFF00A2
:100A3B000000020303030303030303030302010088
:100A4B00000000000000000000000000000000009B
:100A5B000000000000000707070000000000000076
:100A6B00000000000000C0C0C0000000000000003B
:0F0A7B0000000000000001010100000000000069
:101A4900900000EFF07006FD7FA61218C690000006
:0C1A5900E0B40107E4FD7FA71218C622CC
:10192200900000EFF0700DFD7FC81218C6E4FD7F35
:10193200A11218C6900000E0B4010EE4FD7FC012AF
:0A19420018C6E4FD7FA01218C622AB
:081B2E007F01AE071FEE70FA03
:011B3600228C
:0F1AE900D2B2D2B3121B2EC2B2121B2EC2B32224
:0A1B2400C2B2D2B3121B2ED2B222BD
:0F1AF800D2B2121B2ED2B3121B2EC2B3021B2E60
:0219EB00AD0746
:1019ED00E4FCC2B3ED30E704D2B28002C2B2121BE6
:1019FD002ED2B3121B2EC2B3ED25E0FD0CECB408B4
:011A0D00E1F7
:011A0E0022B5
:0D18B9001218C6E4FDFF1218C6E4FD7F10F2
:1018C600AB05AA07121AE97F781219EB121AF8EB80
:1018D60060047F408002E4FF1219EB121AF8AF028F
:0918E6001219EB121AF8021B247E
:07194C00E0FFA3E0FD04F041
:10195300A907ED24B0FFE4FD1218C6E954F0C454FE
:101963000F4410FFE4FD1218C6E9540FFFE4FD0213
:0219730018C694
:101AB200E4FD7F8D1218C6E4FD7F141218C6E4FD02
:051AC2007FAF0218C611
:0E1B1600E4FD7F8D1218BFE4FD7FAE0218C6FD
:10197500E4F9E924B0FFE4FD1218B9E4900000F0A1
:101985007D01E4FF1218C6900000E004F0E0C39466
:081995008040ED09E9B408DA15
:01199D002227
:080F4300900007EFF0A3EDF0B0
:100F4B00E490000BF090000AE0FFC313FD90000C3F
:100F5B00F0E4A3F0A3F0EFB40809A3E4F0A3740644
:100F6B00F0803190000AE0FF131313541FF58275C4
:100F7B008300EF54077E0060047F0180027F00EF47
:100F8B002582FFEE3583FE7C00120AD090000FEE17
:100F9B00F0A3EFF0EB24E090000BF0900007E0FFE4
:100FAB00A3E0FD121953E490000DF0A3F090000F95
:100FBB00E0FCA3E0FD90000DE0FEA3E0FFC39DEE7F
:100FCB009C505F90000CE0FD7C00120AE2ED4C702F
:100FDB000E90000AE06408600690000712194C900E
:100FEB00000AE0B4203C90000DE0FEA3E0FF90006F
:100FFB000BE075F040A424CAF582E5F03403F583C9
:10100B00E5822FF582E5833EF583E493FF7D0112A4
:10101B0018C690000EE004F0709390000DE004F001
:02102B00808BB8
:01102D0022A0
:071A0F0090009CEFF0A90517
:101A16007F017E00AD0119ED600C90009CE0FD7C1D
:061A260000120AD080EE60
:011A2C002297
:0E102E0090007CEFF0A3EDF0A3EAF0A3EBF04E
:10103C00E4900084F0A3F0900081E0B408069000E6
:10104C00847402F0E4900082F0900080E0FF900045
:10105C0082E0FEC39F4003021108C3EF9E14FD7F84
:10106C000A121A0F90007EE0FCA3E0FDCFCDCFCE8C
:10107C00CCCE120AE27C007D0A120AE2900083EDCB
:10108C00F0900085E0703C900080E014FF900082AE
:10109C00E0FEC39F502DA3E07023900081E0FCC3C1
:1010AC0013FF900084E02F8EF0A4FF90007CE02FC3
:1010BC00FFA3E0FD90000AECF07B208033900085CC
:1010CC007401F0900081E0FEC313FF900084E02FC8
:1010DC00FF900082E0FDEF8DF0A4FF90007CE02FEC
:1010EC00FFA3E0FD900083E02430FB90000AEEF0BB
:0C10FC00120F43900082E004F002105537
:0111080022C4
:1015DE00900000EFF0A3EDF0A3EBF0A3EAF0A3E987
:0115EE00F00C
:1015EF00E4900006F0900002E0FBA3E0FAA3E0F91C
:1015FF00900006E0F582758300120AA36040900008
:10160F0000E0FFA3E0FD900006E0FE04F08E82757F
:10161F008300120AA3FB900005E090000AF0120F5E
:10162F0043900005E0FFB40809900000E02406F0A5
:0E163F0080B3EFC313FF900000E02FF080A7F0
:01164D00227A
:0B147C00900086EFF0A3EDF0A3EBF072
:10148700A3E0FF131313541FFD7C00EF54077E00E6
:1014970060047F0180027F00EF2DFFEE3CFE90008D
:1014A70089E0FD7C00120AD090008CEEF0A3EFF0EB
:1014B700E490008AF0A3F090008CE0FCA3E0FD909C
:1014C700008AE0FEA3E0FFC39DEE9C5024900089B4
:1014D700E0FD7C00120AE2ED4C70169000861219AE
:1014E7004C90008BE004F070CE90008AE004F0800E
:0114F700C62E
:0114F80022D1
:0B135D00900071EFF0A3EDF0A3EBF0A7
:10136800E4900078F0A3F0900074E0FF1313135496
:101378001FFEEF540760047F0180027F00EE2F906C
:101388000074F0E490007AF0900074E0FF90007A26
:10139800E0FEC39F5051900071E0FFA3E0FDEE2DE9
:1013A800FD121953E490007BF0900073E0FF900069
:1013B8007BE0C39F5029900075E0FBA3E0FAA3E00F
:1013C800F9A3E475F001120B3785F082F583120A50
:1013D800A3FF7D011218C690007BE004F080CA903C
:0713E800007AE004F080A18F
:0113EF0022DB
:1011DB00C2927FC87E00121A9AD292E4FD7FAE12A1
:1011EB0018B9E4FD7F401218C6E4FD7F811218C6C2
:1011FB00E4FD7FCF1218C6E4FD7FA11218C6E4FDF3
:10120B007FC81218C6E4FD7FA61218C6E4FD7FA89E
:10121B001218C6E4FD7F3F1218C6E4FD7FD31218E7
:10122B00C6E4FDFF1218C6E4FD7FD51218C6E4FD17
:10123B007F801218C6E4FD7FD91218C6E4FD7FF13A
:10124B001218C6E4FD7FDA1218C6E4FD7F121218DD
:10125B00C6E4FD7FDB1218C6E4FD7F401218C6E41E
:10126B00FD7F201218C6E4FD7F021218C6E4FD7F35
:10127B008D1218C6E4FD7F141218C6E4FD7FA4126C
:10128B0018C6E4FD7FA61218C6121975E4FD7FAFD0
:03129B000218C670
:080D1000900003EEF0A3EFF0E8
:100D1800900029E0FEA3E0FF7C007D3C120AD0AAE7
:100D280006AB0790003DE0FEA3E0FF7C0E7D1012AD
:100D38000AD0EF2BFFEE3AFE900031E02FFF900033
:100D480030E03EFE3395E0FDFC900005120C7B90F0
:100D58000005E0F8A3E0F9A3E0FAA3E0FB900003A4
:100D6800E0FEA3E0FFEE3395E0FDFCEB2FFFEA3E4B
:100D7800FEE93DFDE83CFCA3120C7BE4FFFEFDFC14
:100D8800900005E0F8A3E0F9A3E0FAA3E0FBC312A2
:100D98000C6A500A900005120C8700000000E47FDE
:100DA800807E51FDFC900005E0F8A3E0F9A3E0FA8D
:100DB800A3E0FBC3120C6A400A900005120C8700DE
:100DC800000000E47B107A0EF9F8900005E0FCA31F
:100DD800E0FDA3E0FEA3E0FF120BD890003DEEF08B
:100DE800A3EFF0E47B107A0EF9F8900005E0FCA37D
:100DF800E0FDA3E0FEA3E0FF120BD8AC00AD01AE0E
:100E080002AF03E47B3CFAF9F8120BD8900029EE04
:100E1800F0A3EFF0E47B3CFAF9F8900005E0FCA3BE
:100E2800E0FDA3E0FEA3E0FF120BD8AF0390003073
:050E3800EAF0A3EFF059
:010E3D002292
:1017880090000374FFF0A37407F0A374BBF09000FB
:101798003DE0FFA3E0900006CFF0A3EFF090002912
:1017A800E0FFA3E0900008CFF0A3EFF0900030E056
:1017B800FFA3E090000ACFF0A3EFF07B017A007955
:1017C800611204BB7B017A0079619000057420F0F6
:0717D8007D02E4FF0215DEB3
:10158F0041008E00410092004100910042008F0007
:08159F00004200930000C18F1F
:05129E00900004EDF0DA
:1012A300C3940150037401F0900004E0D3946340AD
:1012B300037463F0AB07AA06E4F9F87F407E427D2E
:1012C3000FFC120BD8900005120C7B900009E4F080
:1012D300A37432F0900009E0FEA3E0FBAA06E4F950
:1012E300F8900005E0FCA3E0FDA3E0FEA3E0FF12FD
:1012F3000BD890008FEEF0FAA3EFF0FB900004E020
:10130300FF7E00AD03AC02120AD07C007D64120A9A
:10131300E2A90790008EE9F0C3EB99900092F05395
:10132300890F438910900009E0FEA3E0FFE4FCFD70
:101333007B02FAF9F8120B4DC3E49FFFE49E900081
:1013430093F0A3EFF0900093E0FCA3E0FDECF58DA8
:09135300EDF58BD28ED2ABD2AFC6
:01135C00226E
:071B3F00C2B1C28EC2AB224D
:071B4600D2B1D28ED2AB2216
:03001B000216B713
:1016B700C0E0C083C082C0D075D000C004C005C0E0
:1016C7000790009374FFF0A3749CF0900093E0FCE4
:1016D700A3E0FDECF58DEDF58B900091E004F03083
:1016E7000F1590008EE0FF900091E0C39F401BE430
:1016F700F0C20FC2B18013900092E0FF900091E01A
:10170700C39F4006E4F0D20FD2B1D007D005D00472
:09171700D0D0D082D083D0E032A2
:1015A7004A00330000000000000000000041002B4B
:1015B70000C10D42003D00004200290000420030FA
:0F15C700000044002C00000000C10C4100320065
:04001E00758F1022A8
:0300530002172071
:10172000C0E0C083C082C0D075D000C004C005C076
:0917300006C007900032E0703E93
:10173900900028F030CD0404F0800690002874FF52
:10174900F0900028E0FF90002BE0FE04F0EEFD335E
:1017590095E0FC74332DF58274003CF583EFF0902D
:0E176900002BE0C36480948A4004E4F0D20DAB
:10177700D007D006D005D004D0D0D082D083D0E017
:01178700322F
:0715D6004400950000000035
:101AD8005389F0438901758CF8758A30D2A9D28C64
:011AE80022DB
:0F1B0700900095E0FCA3E0FDA3E0FEA3E0FF2229
:03000B000217DFFA
:1017DF00C0E0C0F0C083C082C0D075D000C000C0D0
:1017EF0004C005C006C007758CF8758A3090009547
:1017FF00E0FCA3E0FDA3E0FEA3E02401FFE43EFE36
:10180F00E43DFDE43CFC900095120C7BD007D00624
:10181F00D005D004D000D0D0D082D083D0F0D0E08B
:01182F003286
:1013FC00021878E493A3F8E493A34003F68001F277
:10140C0008DFF48029E493A3F85407240CC8C333F1
:10141C00C4540F4420C8834004F456800146F6DFC0
:10142C00E4800B010204081020408090156DE47ECE
:10143C00019360BCA3FF543F30E509541FFEE493B5
:10144C00A360010ECF54C025E060A840B8E493A37C
:10145C00FAE493A3F8E493A3C8C582C8CAC583CAA7
:10146C00F0A3C8C582C8CAC583CADFE9DEE780BE5F
:0115DD00000D
:100A8A00BB010689828A83E0225002E722BBFE026A
:090A9A00E32289828A83E493229D
:100AA300BB010CE58229F582E5833AF583E0225008
:100AB30006E92582F8E622BBFE06E92582F8E22252
:0D0AC300E58229F582E5833AF583E493226C
:100AD000EF8DF0A4A8F0CF8CF0A428CE8DF0A42E3A
:020AE000FE22F4
:100AE200BC000BBE0029EF8DF084FFADF022E4CCF8
:100AF200F875F008EF2FFFEE33FEEC33FCEE9DECC1
:100B0200984005FCEE9DFE0FD5F0E9E4CEFD22ED06
:100B1200F8F5F0EE8420D21CFEADF075F008EF2F50
:100B2200FFED33FD4007985006D5F0F222C398FD41
:050B32000FD5F0EA22DE
:100B3700A3F8E0C5F025F0F0E58215827002158371
:060B4700E0C838F0E822CE
:100B4D00E88FF0A4CC8BF0A42CFCE98EF0A42CFC47
:100B5D008AF0EDA42CFCEA8EF0A4CDA8F08BF0A4C5
:100B6D002DCC3825F0FDE98FF0A42CCD35F0FCEB24
:100B7D008EF0A4FEA9F0EB8FF0A4CFC5F02ECD39E9
:0F0B8D00FEE43CFCEAA42DCE35F0FDE43CFC2256
:100B9C0075F008758200EF2FFFEE33FECD33CDCC10
:100BAC0033CCC58233C5829BED9AEC99E582984093
:100BBC000CF582EE9BFEED9AFDEC99FC0FD5F0D670
:100BCC00E4CEFBE4CDFAE4CCF9A88222B800C1B99A
:100BDC000059BA002DEC8BF084CFCECDFCE5F0CBD8
:100BEC00F97818EF2FFFEE33FEED33FDEC33FCEB11
:100BFC0033FB10D703994004EB99FB0FD8E5E4F9CC
:100C0C00FA227818EF2FFFEE33FEED33FDEC33FCB8
:100C1C00C933C910D7059BE99A4007EC9BFCE99AAC
:100C2C00F90FD8E0E4C9FAE4CCFB2275F010EF2FF1
:100C3C00FFEE33FEED33FDCC33CCC833C810D707F1
:100C4C009BEC9AE899400AED9BFDEC9AFCE899F82C
:0E0C5C000FD5F0DAE4CDFBE4CCFAE4C8F922BF
:100C6A00EB9FF5F0EA9E42F0E99D42F0E89C45F0E0
:010C7A002257
:0C0C7B00ECF0A3EDF0A3EEF0A3EFF022EC
:100C8700A8828583F0D083D082120C9E120C9E120C
:100C97000C9E120C9EE473E493A3C583C5F0C58331
:100CA700C8C582C8F0A3C583C5F0C583C8C582C8B7
:010CB700221A
:10045600E5082403F582E43400F583E005082290DC
:100466000000300703900003E475F001120CCA0285
:100476000A8A2000E97F2ED2008018EF540F2490BC
:10048600D43440D4FF30040BEF24BFB41A00500319
:100496002461FFE50960021509050CE50C700205EB
:1004A6000B30070E900000E475F001120CCAEF0243
:1004B6000CB8021B377403D2078003E4C207F508A1
:1004C600900000120CE1E4F509F50BF50CE5096066
:1004D600077F2012049980F5750AFFC201C200C287
:1004E60002C203C205C206C208120465FF700D30BF
:1004F60007057F001204AAAF0CAE0B22B4255FC21B
:10050600D5C204120465FF24D0B40A00501A75F04F
:100516000A780930D50508B6FF0106C6A426F620D6
:10052600D5047002D20380D924CFB41A00EF500448
:10053600C2E5D2040206ABD20180C6D20080C0D288
:100546000280BCD2D580BAD20580B47F201204992D
:100556002002077401B5090040F1120456FF120487
:10056600990204D3D208D2068095120456FB1204CF
:1005760056FA120456F94A4B7006797C7A077BFFC5
:1005860020022EE509602A7E008E82758300120AFB
:10059600A360060EEE650A70F0C2D5EBC0E0EAC0B5
:1005A600E0E9C0E0EE1206F2D0E0F9D0E0FAD0E0E1
:1005B600FB120A8AFF60AAEBC0E0EAC0E0E9C0E0ED
:1005C600120499D0E02401F9D0E03400FAD0E0FB1F
:1005D600E50A0460DCD50AD980877BFF7A0679EEC6
:1005E600D202809C791080027908C206C20880086F
:1005F600D2D5790A8004790AC2D5E50A047002F5D3
:100606000AE4FAFDFEFF120456FC7B0820011312D1
:100616000456FD7B1030000A120456FE120456FFE3
:100626007B20EC3382D592D55013C3E43000069F6D
:10063600FFE49EFEE42001039DFDE49CFCE4CBF870
:10064600C201EC700CCFCECDCCE824F8F870F38064
:1006560017C3EF33FFEE33FEED33FDEC33FCEB3324
:10066600FB994002FB0FD8E9EB300105F8D0E0C456
:1006760048B201C0E00AEC4D4E4F78207B0070C2B4
:10068600EAB50A0040BCC0E01206F4D0F0D0E02083
:100696000104C4C0E0C4B201C0F0120482D0F0D597
:1006A600F0EB0204D3120CEA05705305EA58054133
:1006B6004C053D4205EE4F05F64405F64905564301
:0806C60005FC5505E04605E0C6
:1006CE004505E047079C5005452D05492E056C2B29
:1006DE00054D23056A2007852A0505480000056497
:1006EE003F3F3F00790AA2D5200314300509B91007
:1006FE00020404B9080104A2D52006025001042008
:10070E0002689202B509005034C0E07F2030031910
:10071E007F30A20272067205500F12074BC202C240
:10072E0006C205C2087F30800F300503E9C0E01213
:10073E000499300503D0E0F9D0E0B509CC300517A7
:10074E007F30B9100C1204997F583004077F7880DF
:10075E0003B908031204993002057F2D0204997F14
:10076E00202008F87F2B2006F322920280CF286EDD
:10077E00756C6C2900D2011204563001F8C2017852
:10078E000930D50108F60205052D504349581204CB
:10079E00562403B405004001E49007979312048A8F
:0D07AE00743A12048AD2037509040205EAA8
:100CB800BB010689828A83F0225002F722BBFE011B
:020CC800F32215
:100CCA00F8E0FBA3A3E0F925F0F0E58215827002B3
:070CDA001583E0FA38F02257
:090CE100EBF0A3EAF0A3E9F02214
:100CEA00D083D082F8E4937012740193700DA3A399
:100CFA0093F8740193F5828883E4737402936860AD
:060D0A00EFA3A3A380DFAC
:00000001FF
